:020000040000FA
:06000000ABEF05F0120059
:020006001200E6
:06000800ADEF00F0120054
:060018001CEF00F01200D5
:02001E000200DE
:100020007E0E0000000E000016000000720B0000A3
:08003000000900000C030000B0
:08003800DACFE4FFE2CFDAFFAA
:10004000E9CFE4FFEACFE4FFF3CFE4FFF4CFE4FF2E
:10005000E65200009EA275D09E92B80ECC6E010EA4
:100060000001A16FA26B010E0001A36FA46B0E0132
:100070000851060DF3CFE9FFF4CFEAFF000EE926A1
:10008000090EEA22EF50A1C0A1F0A2C0A2F006E042
:100090000001D890A137A237E804FBE10E01085116
:1000A000060DF3CFE9FFF4CFEAFF000EE926090EB3
:1000B000EA22EE52EF50A3C0A3F0A4C0A4F006E0E1
:1000C0000001D890A337A437E804FBE10E010851E2
:1000D000060DF3CFE9FFF4CFEAFF000EE926090E83
:1000E000EA22030EE926000EEA22EF5006E00001A4
:1000F000A11D8A6EA3C08BFF02D08A688B6A0E0195
:10010000082B0E010851146E156AD890155004E69C
:10011000800E145C000E155812E20E010851060DF7
:10012000F3CFE9FFF4CFEAFF000EE926090EEA2239
:10013000040EE926000EEA22EF50FF0802E10E014C
:10014000086BE552E5CFF4FFE5CFF3FFE5CFEAFF1B
:10015000E5CFE9FFE5CFDAFF1100DACFE4FFE2CF28
:10016000DAFFE9CFE4FFEACFE4FFF6CFE4FFF7CF11
:10017000E4FFF8CFE4FFF5CFE4FFF3CFE4FFF4CFE3
:10018000E4FFFACFE4FFFBCFE4FF00EE00F0100E37
:10019000E80403E3EECFE4FFFBD700EE10F0040E1B
:1001A000E80403E3EECFE4FFFBD7E6520000A350E0
:1001B000100B27E0A450100B24E00E010D510E018E
:1001C0000F19E8AE02D00F3507D00E510E010C5DAD
:1001D0000E010F510E010D5906E3BAA203D0A398E8
:1001E0000E01046B0ED00ACEE9FF0BCEEAFFEF50F2
:1001F000796E0E010C2B000E0D230E010A2B000E42
:100200000B23A4AA06D0A6A202D0A698A6887ACFCD
:10021000A7F0F2A438D0F2940F0155B316D08D8018
:100220000F0154910E01026B0E01010E036F8D82BE
:100230000E0105511F0BF36EF346F346830EC214F5
:10024000F310C26EC280C2821ED08D900F015593F2
:100250000E01010E026F0E01010E036F0E0105511A
:10026000E96EEA6AD890E936EA36810EE926000E90
:10027000EA22EECFE6FFEFCFE6FF48EC05F0E552CD
:10028000E5520F0154819EAC90D09E9C8D92C3CFBD
:10029000A5F0C4CFA6F0A5C016F0A6C017F0040EB6
:1002A000D89017321632E804FBE116C0A5F017C04B
:1002B000A6F00E010551E96EEA6AD890E936EA36F1
:1002C000610EE926000EEA22EECF16F0EFCF17F00E
:1002D000080E165E000E175A00011650A55D175045
:1002E000A65918E2010E0E01066F076B8D84080EE9
:1002F0000E010525060DF3CFE9FFF4CFEAFF000E4E
:10030000E926090EEA22030EE926000EEA22010E72
:10031000EF6E32D00E010551E96EEA6AD890E936E7
:10032000EA36610EE926000EEA22EECF16F0EFCF94
:1003300017F0080E165E000E175A020E1626000E53
:1003400017220001A551165CA651175815E20E019F
:10035000066B076B8D94080E0E010525060DF3CF75
:10036000E9FFF4CFEAFF000EE926090EEA22030EA8
:10037000E926000EEA22EF6AA6C0B3FFA5C0B2FFCD
:100380000E01010E016F0E01036B0F01558F0F015E
:1003900054910F0154930F015583280EE66EA00E61
:1003A000E66E48EC05F0E552E552E55200EE13F03A
:1003B000040EE80403E3E5CFEDFFFBD700EE0FF0FA
:1003C000100EE80403E3E5CFEDFFFBD7E5CFFBFF1D
:1003D000E5CFFAFFE5CFF4FFE5CFF3FFE5CFF5FF7B
:1003E000E5CFF8FFE5CFF7FFE5CFF6FFE5CFEAFF72
:1003F000E5CFE9FFE5CFDAFF1100D9CFE6FFE1CF86
:10040000D9FF080EE126DE6ADE6ADE6ADD6ADD52A9
:10041000DD52FE0EDBCFE6FF90D8E5520E01016BF8
:100420000E01015102E10400FBD7040EDB6A050E48
:10043000DB6A060EDB6A070EDB6AD950040FE96E31
:10044000DACFEAFF080EEE5C000EEE58000EEE5812
:10045000000EEE5829E20E01016B0E01015102E17E
:100460000400FBD7E66AFE0EDBCFE6FFD3D8E552E9
:10047000E552F3CF10F0F4CF11F0126A136A105066
:10048000DE261150DE221250DE221350DD22DD5214
:10049000DD52D950040FE96EDACFEAFFEE2A000EE2
:1004A000EE22EE22EE22C9D7DFCF10F0010EDBCF15
:1004B00011F0126A136A080E0B6E0C6A0D6A0E6A4E
:1004C00010C006F011C007F012C008F013C009F008
:1004D000F0EC04F006C010F007C011F008C012F0F4
:1004E00009C013F0FE0EEA6ADB34FE0BEA36E96E51
:1004F000610EE926000EEA2210C0EEFF11C0EDFFEA
:10050000FE0EEA6ADB34FE0BEA36E96E610EE9267E
:10051000000EEA22EECF10F0EFCF11F010C0F3FF83
:1005200011C0F4FF00D0080EE15C02E2E16AE5527E
:10053000E16EE552E7CFD9FF1200D9CFE6FFE1CF58
:10054000D9FFFE0EDB50030801E20AD0F29EFE0E38
:10055000DBCF05FEF28E0E01015102E10400FBD754
:10056000E552E7CFD9FF1200A7D90F01556B900EC6
:10057000546F010E536FFE0EDB500E0A14E0030A97
:100580000DE0010A06E0070A14E180D9EE6AFA0ECE
:100590000ED07CD9670EEE6EF00E09D077D9E80E3A
:1005A000EE6EFD0E04D072D94F0EEE6EF40EED6EAF
:1005B00006D06CD9780EEE6EED687D0E536FFE0E90
:1005C000DB50020806E1020E536F60D9780EEE6E22
:1005D000ED685D819280C08EC70EC0143809C06E70
:1005E000F80EC0140609C06ECF0EC1143009C16EDA
:1005F000C196F80EC1140009C16E830EC214000921
:10060000C26EC2809D8CB190B182B36AB26AF36A45
:10061000F46A57D151D90E0101513CE0B2CFA8F094
:10062000B3CFA9F03F0E0001A815A86FA96BFD0E6E
:10063000DB5005E1A8C0F3FFA9C0F4FF2FD031D9EA
:10064000EECF10F0EFCF11F01050A85D1150A95966
:100650000DE227D9A851EE5C0E01106F0001A951DF
:10066000EE580E011F0E1015106F116B0E01145174
:10067000151107E1FD0EDB5004E010CE14FE11CE83
:1006800015FE10CE12FE11CE13FE10CEF3FF11CECA
:10069000F4FF04D012CEF3FF13CEF4FF12D10CD925
:1006A000FE0EDB50106E116AD890115004E6800ED9
:1006B000105C000E115814E2F29CFE0EDB50060D89
:1006C000F3CFE9FFF4CFEAFF000EE926090EEA2294
:1006D000030EE926000EEA22FD0EDBCFEFFFF28CBF
:1006E000F0D0D9CFE6FFE1CFD9FF060EE126DE6AD2
:1006F000DD6A010EF36E020EF3CFDBFF010EF36E27
:10070000030EF3CFDBFF0F0E926E896A0F010F0EFF
:100710005D6F0F015C6B936A8A68946A8B68956A57
:100720008C6A966A8D6A700ED36EC00E9B6E906A4C
:100730009F0EE66E64EC05F0E552280EE66EA00E04
:10074000E66E48EC05F0E552E552FD0EE66E80ECF3
:1007500005F0E5529F92B80ECC6E810EE66EE66A09
:10076000FC0EE66EB4EC04F0E552E552E552D08E94
:10077000F28EF28C0001606BE66A0D0EE66EF4DE1E
:10078000E552E552010EE66E0D0EE66EEDDEE55227
:10079000E552020EE66E0D0EE66EE6DEE552E5521D
:1007A000030EE66E0D0EE66EDFDEE552E552E66AFA
:1007B00024DEE552F3CFDEFFF4CFDDFF010EE66E5F
:1007C0001CDEE552F3CFDEFFF4CFDDFF020EE66E56
:1007D00014DEE552F3CFDEFFF4CFDDFF030EE66E4D
:1007E0000CDEE552F3CFDEFFF4CFDDFF0001606BDE
:1007F0000001605103083FE360C0E6FF9EDEE55262
:10080000E66A60C0E6FF06DFE552E552040EF3CF6C
:10081000DBFF050EDB6A080EF36E050EDBCFF4FF7F
:10082000F350F45C24E2D950050FE96EDACFEAFF09
:10083000040EDB50EFCFE7FFE75204E0E8427F0B06
:10084000E706FCE1010B08E1E66A050EDBCFE6FFF7
:1008500026DFE552E55208D0010EE66E050EDBCF2D
:10086000E6FF1DDFE552E552050EDB2AD4D7040072
:100870000001602BBDD7BAD7060EE15C02E2E16A47
:10088000E552E16EE552E7CFD9FF1200FD0EEA6AAC
:10089000DB34FE0BEA36E96E810EE926000EEA2211
:1008A0001200FE0EEA6ADB34FE0BEA36E96E610ED8
:1008B000E926000EEA221200D9CFE6FFE1CFD9FFE8
:0A08C0001200E552E7CFD9FF120045
:0608CA001E0EF66E000E8A
:1008D000F76E000EF86E0E010900F5501B6F09004F
:1008E000F5501C6F03E11B6701D03DD00900F550A6
:1008F000166F0900F550176F0900F550186F0900C1
:100900000900F550E96E0900F550EA6E090009008A
:100910000900F550196F0900F5501A6F0900090018
:10092000F6CF1DFEF7CF1EFEF8CF1FFE16CEF6FF48
:1009300017CEF7FF18CEF8FF0E01195302E11A5334
:1009400007E00900F550EE6E1907F8E21A07F9D72B
:100950001DCEF6FF1ECEF7FF1FCEF8FF0E011B07C0
:08096000000E1C5BBFD7120062
:08096800D9CFE6FFDACFE6FF6C
:10097000E1CFD9FFE2CFDAFFBA6AA66AFD0EDBB09B
:10098000BA88DBA202D0BA8CA68CDBB4BA8EDBA606
:1009900002D0A68801D0A68ADBA802D0BA8401D0F2
:1009A000BA94DBBAA686DBAC02D0A38A01D0A39AA4
:1009B000DBAE02D0A38801D0A398FB0EDB507B6E88
:1009C000FC0EDBCF11F011C010F0116A10507C6EDC
:1009D000BA8AA68EE552E5CFDAFFE7CFD9FF12003B
:1009E000006AE86A0EAEFDEF04F00B6C0C1E0D1EE3
:1009F0000E1E0C220D220E22001E09AE08EF05F07D
:100A0000066C071E081E091E072208220922001E66
:100A100024EC05F009BE1FEF05F000AE000C066CDB
:100A2000071E081E091EE86A072208220922026C16
:100A3000031E041E051E032204220522000C00BE14
:080A40000FEF05F00188FF0C27
:080A4800056A046A036A026AF0
:100A5000200EE76ED890063607360836093602367D
:100A60000336043605360B50025C0C5003580D500B
:100A700004580E50055809E30B50025E0C50035AFF
:100A80000D50045A0E50055A062AE72EE4D71200DC
:100A9000D9CFE6FFDACFE6FFE1CFD9FFE2CFDAFF29
:100AA000E652E652FC0EDBCFDEFFDBCFDDFF010EB0
:100AB000DB50D76EDF50D66EE552E552E552E5CFFA
:080AC000DAFFE7CFD9FF1200B5
:080AC800D9CFE6FFDACFE6FF0B
:100AD000E1CFD9FFE2CFDAFFFD0EDB507F0BD56E01
:100AE000D76AD66AF294FD0EDBAE02D0F28A01D04C
:100AF000F29AD58EE552E5CFDAFFE7CFD9FF1200A3
:100B0000D9CFE6FFDACFE6FFE1CFD9FFE2CFDAFFB8
:100B1000FD0EDB50FB0BCA6ECC6A9E92FD0EDBAE67
:100B200002D09D8201D09D92CA84E552E5CFDAFFC2
:060B3000E7CFD9FF12001F
:0A0B3600410EF36E00EE00F00E0E0B
:100B400001D81200EA6002D0EE6AFCD7F350E960E7
:060B50001200EE6AFCD762
:0A0B56001DEE00F02DEE00F0F86A2D
:100B6000019C65EC04F003EC00F071EC03F0FBD7A2
:020B7000120071
:0E0B720001000101000001010100010001026B
:100B8000010102000103010003000104010104004E
:100B90000105010005000106010106000107010031
:100BA0000700060001000800060101000900060216
:100BB00001000A00060301000B0000000000FF0016
:100BC0000000000000000000000000000000000025
:100BD0000000000000000000000000000000000015
:100BE0000000000000000000000000000000000005
:100BF00000000000000000000000000000000000F5
:0E0E70000000467265642042726F6F6B730063
:020E7E00010071
:100E80000000000000000000000C00000000000056
:040E9000000000005E
:020000040030CA
:0100000015EA
:0100010018E6
:0100030028D4
:0100050008F2
:00000001FF
