:020000040000FA
:06000000DBEF11F012001D
:020006001200E6
:0600080087EF00F012007A
:060018001CEF00F01200D5
:02001E000200DE
:10002000DB280000CB0000001D000000D2230000F0
:080030000006000009050000B4
:08003800DACFE4FFE9CFE4FF99
:10004000EACFE4FFF3CFE4FFF4CFE4FFE6528C8085
:100050009EA255D09E92A80ECC6E8A688B6AFBEC4D
:1000600008F0E3EC08F0EF500CE121EC09F008E0B7
:10007000D5EC08F004E6FF0E355C000E3658EFE3D1
:100080002E6AFBEC08F0EFCF35F035342CE2FBECB8
:1000900008F0EE52EFCF36F0363425E2010E316E25
:1000A000326A336E346AFBEC08F0EF5005E0D8900A
:1000B00031363236E804FBE1FBEC08F0EE52EF504B
:1000C00005E0D89033363436E804FBE1FBEC08F069
:1000D000E3EC08F0EF5005E0331C8A6E31508B6E74
:1000E00002D08A688B6A21EC09F008E0D5EC08F0B0
:1000F00004E6FF0E355C000E365801E32E6A8C9044
:10010000E552E5CFF4FFE5CFF3FFCEEF08F0DACF0D
:10011000E4FFE2CFDAFFE9CFE4FFEACFE4FFF6CF76
:10012000E4FFF7CFE4FFF8CFE4FFF5CFE4FFF3CF30
:10013000E4FFF4CFE4FFFACFE4FFFBCFE4FF00EEEF
:1001400019F0140EE80403E3EECFE4FFFBD700EE52
:1001500000F0190EE80403E3EECFE4FFFBD7E6520C
:10016000A350100B1FE0A450100B1CE00001D55150
:10017000D719E8AE02D0D73504D0D651D45DD751C7
:10018000D55905E3BAA20ED0A398CF6B0BD0D2C03D
:10019000E9FFD3C0EAFFEF50796ED42B000ED523D0
:1001A000D22BD323A4AA13D0A6A202D0A698A688A5
:1001B0007ACFA2F0A2C000FB0001000ED26F0B0E9E
:1001C000D36FD46BD56B010ED66FD76BA388F2A417
:1001D0002DD0F2940F0155B313D08D8054910001AE
:1001E000CD6B010ECE6F8D82D0511F0BF36EF34697
:1001F000F346830EC214F310C26EC280C28216D0C0
:100200008D9055930001010ECD6FCE6F0AEC09F071
:10021000800EE926000EEA22EECFE6FFEFCFE6FFE2
:1002200078EC11F0E552E5520F0154819EAC43D0B9
:100230009E9C8D92C3CFA0F0C4CFA1F00001D890B6
:10024000A133A03374EC08F000013750A05D3850A2
:10025000A1590FE20001D05104E1010E2F6E306A66
:100260007968D00504E12F6A306A010E796E8D84B9
:100270000DD074EC08F0100E3726000E3822000165
:10028000A051375CA151385801E28D94A1C0B3FF51
:10029000A0C0B2FF0001010ECC6FCE6B0F01558FD5
:1002A000549154935583380EE66EC70EE66E78EC83
:1002B00011F0E552E552E55200EE18F0190EE8048F
:1002C00003E3E5CFEDFFFBD700EE2CF0140EE804BE
:1002D00003E3E5CFEDFFFBD7E5CFFBFFE5CFFAFF6B
:1002E000E5CFF4FFE5CFF3FFE5CFF5FFE5CFF8FF6E
:1002F000E5CFF7FFE5CFF6FFCEEF08F0D9CFE6FF69
:10030000E1CFD9FF0001D86BD96BDA6BDB6BFE0E46
:10031000DBCFE6FF79D8E5520001CC6B0001CC5170
:1003200002E10400FBD70001A36BA46B080E0001DF
:10033000A4AF02D0D89003D0A35D000EA45922E24E
:100340000001CC6B0001CC5102E10400FBD7E66A4E
:10035000FE0EDBCFE6FFD4D8E552E552F3CF00F036
:10036000F4CF01F0000100500001D8270001015036
:100370000001D923000EDA23DB230001A32B000E9A
:10038000A423D4D7D8C000F0D9C001F0DAC002F05D
:10039000DBC003F0030ED890033202320132003288
:1003A000E806F9E1FE0EEA6ADB34FE0BEA36E96E96
:1003B000600EE926000EEA2200C0EEFF01C0EDFF4C
:1003C000FE0EEA6ADB34FE0BEA36E96E600EE926C1
:1003D000000EEA22EECF00F0EFCF01F0400E005CFD
:1003E000000E01580DE2FE0EEA6ADB34FE0BEA361F
:1003F000E96E600EE926000EEA22500EEE6EED6AFE
:10040000E552E7CFD9FF1200D9CFE6FFE1CFD9FF00
:10041000FE0EDB50010801E211D00001CE5102E0D6
:100420000400FBD7F29EFE0EDBCFD0F00001CC6BB8
:10043000F28E0001CC5102E10400FBD7E552E7CF78
:10044000D9FF1200F6EC08F00F01556B900E546FB7
:10045000010E536FFE0EDB500E0A17E0030A0FE089
:10046000010A07E0070A18E12DEC08F0EE6AFA0E1F
:1004700011D02DEC08F0670EEE6EF00E0BD02DECC7
:1004800008F0E80EEE6EFD0E05D02DEC08F04F0ED4
:10049000EE6EF40EED6E07D02DEC08F0780EEE6ED9
:1004A000ED687D0E536FFE0EDB50020807E1020E71
:1004B000536F2DEC08F0780EEE6EED685D81928042
:1004C000C08EC70EC0143809C06EF80EC0140609DD
:1004D000C06ECF0EC1143009C16EC196F80EC114A2
:1004E0000009C16E830EC2140009C26EC2809D8CC9
:1004F000B190B182B36AB26AF36AF46A70EF08F03D
:10050000F6EC08F00001CC513EE0B2CFA5F0B3CF3D
:10051000A6F03F0E0001A515A56FA66BFD0EDB50E2
:1005200005E1A5C0F3FFA6C0F4FF31D0AAEC08F0A6
:10053000EECF00F0EFCF01F00050A55D0150A659BD
:100540000EE2AAEC08F0A551EE5C0001DC6F0001A0
:10055000A651EE5800011F0EDC15DC6FDD6B0001AB
:10056000E051E11107E1FD0EDB5004E0DCC0E0F0FA
:10057000DDC0E1F0DCC0DEF0DDC0DFF0DCC0F3FFA9
:10058000DDC0F4FF04D0DEC0F3FFDFC0F4FF70EF86
:1005900008F02E6A1200FB0EE66E040EE66EEA0EFE
:1005A000E66E1F0EE66E000EE66E000EE66E060E9E
:1005B000E66E55EC11F0006E070EE15E0050120081
:1005C000F6EC08F0FD0EDB5005E00001E26BEDEC0F
:1005D00008F095D00001E36B050E0001A96FAA6B2E
:1005E000A9C0E6FFAAC0E6FFEA0E036E1F0E046E66
:1005F000000E056EFE0EDB500001E325066E076A55
:10060000086A050E256E266A276A06C020F007C014
:1006100021F008C022F045EC0AF01DC006F01EC013
:1006200007F01FC008F003501D24F36E04501E2075
:10063000F46E0550DCEC08F0F6CF00F0F7CF01F0D7
:10064000F8CF02F000C0E6FF01C0E6FF02C0E6FFFF
:10065000000117EC09F0E9CF09F0EACF0AF0E9CF81
:10066000E6FFEACFE6FF55EC11F00B6E070EE15EF8
:100670000B500001E251E325E66E17EC09F0B5ECF2
:1006800008F0E5EC08F017EC09F026EC09F0E2C000
:10069000EFFFE32BEA0E016E1F0E026E000E036EDB
:1006A000FE0EDB50E325046E056A066A050E256E14
:1006B000266A276A04C020F005C021F006C022F097
:1006C00045EC0AF001501D24F36E02501E20F46E1A
:1006D0000350DCEC08F0040EF626000EF722F82298
:1006E0000800F5CF00F0FE0EDB50005C01E178D78A
:1006F0000001E351E227EDEC08F0E351E25D70EF19
:1007000008F054EC08F002E6B7EC08F007E2E9EC78
:1007100008F0E3EC08F0FD0EDBCFEFFF70EF08F020
:10072000F6EC08F0FA0EDBCF00F0FB0EDBCF01F0A9
:10073000FC0EDBCF02F0FD0EDBCF03F0E4C025F0B2
:10074000E5C026F0E6C027F0E7C028F0FEEC08F090
:10075000B5EC0AF0010A4AE0290E206E5C0E216E0B
:100760008F0E226E3C0E236E96EC08F020C0ABF08C
:1007700021C0ACF022C0ADF023C0AEF020C0E6FF37
:1007800021C0E6FF22C0E6FF23C0E6FF2EEC11F0F9
:10079000E552E552E552E5521FC0BBF020C0BCF067
:1007A00021C0BDF022C0BEF0ABC0E6FFACC0E6FF8A
:1007B000ADC0E6FFAEC0E6FF06EC11F0E552E55233
:1007C000E552E5521FC0B7F020C0B8F021C0B9F023
:1007D00022C0BAF0FA0EDBCFE4F0FB0EDBCFE5F07F
:1007E000FC0EDBCFE6F0FD0EDBCFE7F0E9EC08F026
:1007F000A4EC08F020C0AFF021C0B0F022C0B1F0EE
:1008000023C0B2F0E9EC08F0EE52A4EC08F020C0EE
:10081000B3F021C0B4F022C0B5F023C0B6F0BCECF8
:1008200008F083EC08F0C5EC08F038EC08F041EC77
:1008300009F01BEC09F0E5EC08F0C5EC08F083ECDE
:1008400008F0BCEC08F038EC08F042EC09F028EFB6
:1008500009F0F6EC08F0E9EC08F0FD0EDB50EF26AD
:10086000E9EC08F0EE52FC0EDB50EF2670EF08F0DA
:10087000F6EC08F0E9EC08F0A4EC08F020C0BFF0BA
:1008800021C0C0F022C0C1F023C0C2F0E9EC08F0E2
:10089000EE52A4EC08F020C0C3F021C0C4F022C086
:1008A000C5F023C0C6F0BFC020F0C0C021F0C1C059
:1008B00022F0C2C023F08EEC0AF032EC09F096EC84
:1008C00008F01BEC09F0E5EC08F0C3C020F0C4C050
:1008D00021F0C5C022F0C6C023F08EEC0AF032EC45
:1008E00009F0F60EDBCF25F0F70EDBCF26F0F80E81
:1008F000DBCF27F0F90EDBCF28F0D8EC09F028EF9A
:1009000009F0D2DB02E6B7EC08F017E20001C76B92
:10091000400EC75D12E2FE0EDB50C72507EC09F062
:100920000CE111EC09F0C725E66EFADE006E050E4B
:10093000E15E00500001C72BEBD7D2D3B5DB02E656
:10094000B7EC08F01CE20001C86B400EC85D17E26E
:10095000FE0EDB50C82507EC09F011E1FC0EDBCFE1
:10096000E6FFFD0EDBCFE6FFFE0EDB50C825E66E90
:1009700070DFE552E552E5520001C82BE6D7B0D34F
:1009800093DB01E6F4DB1AE20001C96B400EC95D9E
:1009900015E2FE0EDB50C92507EC09F00FE1D95036
:1009A000F60F91DB11EC09F0C925E66E61DF006EF0
:1009B000090EE15E00500001C92BE8D791D374DB2A
:1009C00001E6D5DB18E20001CA6B400ECA5D13E2F6
:1009D000FE0EDB50CA2507EC09F00DE1FD0EDBCF62
:1009E000E6FFFE0EDB50CA25E66E8BDEE552E552D1
:1009F0000001CA2BEAD774D32E6A8C72F28C1200D3
:100A00008C72F29C8A688B6A1200D9CFE6FFE1CF24
:100A1000D9FF1A0EE126DE6ADD6A010EF36E020EC0
:100A2000F3CFDBFF010EF36E030EF3CFDBFF090EF6
:100A3000F36E060EF3CFDBFF070EDB6A080EDB6AF0
:100A4000090EDB6A0A0EDB6A190EF36E0B0EF3CF8A
:100A5000DBFF0C0EDB6A0D0EDB6A0E0EDB6A100E7E
:100A6000DB6A110EDB6A120EDB6A130EDB6A140EF0
:100A7000DB6A150EDB6A160EDB6A170EDB6A400EA8
:100A8000F36E180EF3CFDBFF400EF36E190EF3CFAB
:100A9000DBFF7FDD2F6A306A0F0E926E896A0F01CD
:100AA0000F0E5D6F0F015C6B936A8A68946A8B68A6
:100AB000956A8C6A966A8D6A700ED36EC00E9B6EB4
:100AC000906A9F0EE66E94EC11F0E552380EE66ED9
:100AD000C70EE66E78EC11F0E552E552FC0EE66EBC
:100AE000B0EC11F0E5529F92A80ECC6E670EE66E48
:100AF000E66AEC0EE66E97EC10F0E552E552E55230
:100B0000D08EF28EF28C2D6AE66A0D0EE66E9ADCBD
:100B1000E552E552010EE66E0D0EE66E93DCE552EF
:100B2000E552020EE66E0D0EE66E8CDCE552E552E5
:100B3000030EE66E0D0EE66E85DCE552E552E66AC2
:100B40007EEC01F0E552F3CFDEFFF4CFDDFF010EC6
:100B5000E66E7EEC01F0E552F3CFDEFFF4CFDDFF71
:100B6000020EE66E7EEC01F0E552F3CFDEFFF4CF2D
:100B7000DDFF030EE66E7EEC01F0E552F3CFDEFF03
:100B8000F4CFDDFF2D6A2D50010801E251D22D5026
:100B9000E66E3ADCE5522D500AE1E66A2D50E66E2B
:100BA000AFDCE552E552040EF3CFDBFF06D0E66A78
:100BB0002D50E66EA5DCE552E5520400D950070F32
:100BC000E96EDACFEAFFEF2AEECF00F0000EEF2257
:100BD000EECF01F0EF22EECF02F0EF22EFCF03F0E5
:100BE000D9500B0FE96EDACFEAFFEE50005CEE5001
:100BF0000158EE500258EE50035801E217D200DFC0
:100C00002F50301061E1190EF36E0B0EF3CFDBFFA6
:100C10000C0EDB6A0D0EDB6A0E0EDB6A010EE66E51
:100C2000E66ACEDCE552E552E66A060EDBCFE6FF69
:100C3000C7DCE552E552E76E0F0EE7CFDBFFD95078
:100C4000160FE96EDACFEAFFEECFE6FFEECFE6FF52
:100C5000EECFE6FFEFCFE6FFD950160FE96EDACF01
:100C6000EAFFEECFE6FFEECFE6FFEECFE6FFEFCFF7
:100C7000E6FF0F0EDBCFE6FF83DE006E090EE15EBE
:100C80000050D950120FE96EDACFEAFFEECFE6FF3F
:100C9000EECFE6FFEECFE6FFEFCFE6FF0F0EDBCFA6
:100CA000E6FF2FDE006E050EE15E0050110EDBCF79
:100CB000E6FF100EDBCFE6FF0F0EDBCFE6FF3EDEDA
:100CC000E552E552E552D3D0230EF36E0B0EF3CF6F
:100CD000DBFF0C0EDB6A0D0EDB6A0E0EDB6A010E0B
:100CE000E66EE66A6DDCE552E552E66A060EDBCF9B
:100CF000E6FF66DCE552E552E76E0F0EE7CFDBFF5D
:100D0000046A056A066A400E076E160EDBCF08F00D
:100D1000170EDBCF09F0180EDBCF0AF0190EDBCF70
:100D20000BF008C025F009C026F00AC027F00BC060
:100D300028F004C020F005C021F006C022F007C052
:100D400023F041EC09F020C000F021C001F022C0E6
:100D500002F023C003F000C0E6FF01C0E6FF02C0BE
:100D6000E6FF03C0E6FF106A116A126A400E136EB6
:100D7000160EDBCF14F0170EDBCF15F0180EDBCFFD
:100D800016F0190EDBCF17F014C025F015C026F0B1
:100D900016C027F017C028F010C020F011C021F0B5
:100DA00012C022F013C023F041EC09F020C00CF077
:100DB00021C00DF022C00EF023C00FF00CC0E6FFE2
:100DC0000DC0E6FF0EC0E6FF0FC0E6FF0F0EDBCF43
:100DD000E6FFD6DD186E090EE15E1850046A056A5A
:100DE000B40E066E430E076E120EDBCF08F0130E24
:100DF000DBCF09F0140EDBCF0AF0150EDBCF0BF0C2
:100E000008C025F009C026F00AC027F00BC028F062
:100E100004C020F005C021F006C022F007C023F076
:100E200041EC09F020C000F021C001F022C002F026
:100E300023C003F000C0E6FF01C0E6FF02C0E6FFEA
:100E400003C0E6FF0F0EDBCFE6FF5BDD0C6E050E89
:100E5000E15E0C50110EDBCFE6FF100EDBCFE6FF9C
:100E60000F0EDBCFE6FF6ADDE552E552E552C4DD49
:100E7000006A016AB40E026E410E036ED950120F61
:100E8000E96EDACFEAFFEECF20F0EECF21F0EECF21
:100E900022F0EFCF23F000C025F001C026F002C001
:100EA00027F003C028F042EC09F023C0EDFF22C078
:100EB000EDFF21C0EDFF20C0EFFF120EDBCF00F0F1
:100EC000130EDBCF01F0140EDBCF02F0150EDBCFDB
:100ED00003F0256A266AB40E276E430E286E00C002
:100EE00020F001C021F002C022F003C023F0BCECCE
:100EF0000AF0010A01E092D0120EDB6A130EDB6ADF
:100F0000140EDB6A150EDB6ACD0E006ECC0E016E80
:100F1000CC0E026E3D0E036ED950160FE96EDACF7D
:100F2000EAFFEECF20F0EECF21F0EECF22F0EFCFB0
:100F300023F000C025F001C026F002C027F003C056
:100F400028F041EC09F023C0EDFF22C0EDFF21C0E5
:100F5000EDFF20C0EFFF160EDBCF00F0170EDBCF4A
:100F600001F0180EDBCF02F0190EDBCF03F00A0EF2
:100F7000256ED70E266E230E276EBC0E286E00C07F
:100F800020F001C021F002C022F003C023F0C5EC24
:100F90000AF0010A43E1160EDB6A170EDB6A400E07
:100FA000F36E180EF3CFDBFF400EF36E190EF3CF86
:100FB000DBFF100EDBCFF3FFDB2AF350006E080ED1
:100FC000E76E0018E8AE02D0003403D0E750D880B6
:100FD000005402E2100EDB68110EDBCFF3FFDB2AB8
:100FE000F350006E080EE76E0018E8AE02D0003431
:100FF00003D0E750D880005402E2110EDB68060EE1
:10100000DB50090806E1140EF36E060EF3CFDBFF8A
:1010100005D0090EF36E060EF3CFDBFF070EDB6A79
:10102000080EDB6A090EDB6A0A0EDB6A2D2AABD5D5
:10103000A9D51A0EE15C02E2E16AE552E16EE552E1
:10104000E7CFD9FF1200050DF3CFE9FFF4CFEAFF98
:10105000000EE926060EEA221200FD0EEA6ADB34D3
:10106000FE0BEA36E96E800EE926000EEA22120037
:10107000B3C020F0B4C021F0B5C022F0B6C023F058
:10108000D8EC09F020C004F021C005F022C006F021
:1010900023C007F020C025F021C026F022C027F091
:1010A00023C028F0FEEF08F0A1D8FE0EDB50006E42
:1010B000016AD89001501200C9D8EFCF00F0FE0E9F
:1010C000DB50005C1200E96EFF0EDA20EA6EEECF14
:1010D000E6FFEECFE6FFEECFE6FFEFCFE6FF120032
:1010E000E552E7CFD9FF1200000194D8600EE9263F
:1010F000000EEA22EECF37F0EFCF38F0400E375E29
:10110000000E385A1200AFC020F0B0C021F0B1C0BC
:1011100022F0B2C023F0D8EC09F020C000F021C0CA
:1011200001F022C002F023C003F01200FA0EDBCF60
:1011300025F0FB0EDBCF26F0FC0EDBCF27F0FD0EFB
:10114000DBCF28F0D8EF09F0EFCF00F000C022F09D
:1011500032EF09F0FE0EEA6ADB34FE0BEA36E96E86
:10116000600EE926000EEA221200030E75D0FF0E73
:10117000005C000E01581200BBC025F0BCC026F078
:10118000BDC027F0BEC028F01200B7C025F0B8C01F
:1011900026F0B9C027F0BAC028F01200E5CFEAFF68
:1011A000E5CFE9FFE5CFDAFF11002E2A2E50356E8C
:1011B000366AD890365012001F20F86EF4CFF7FF31
:1011C000F3CFF6FF1200020E47D0E552E750EF6E64
:1011D0001200FE0EDB5023EF08F0E25134DFC5DFD2
:1011E000EF68E25130DF32D8EF681200D9CFE6FF66
:1011F000E1CFD9FF12002E5023EF08F000C020F0FD
:1012000001C021F002C022F003C023F012001BDF56
:101210005CEF08F0D051E96EEA6AD890E936EA3618
:101220001200D950FA0F4FDFFE0EDB501200E251D0
:10123000E32523EF08F08EEC0AF02250E66EE9EF8A
:1012400008F0D9DF92DFEF50FF081200040E04D03F
:10125000F2DFEE52BADF44D7E926000EEA2212008E
:101260001A9E05D01A9E22AE02D0226C1A8E22C07F
:101270001CF01B6A2C6A2B6A860E1D6E1E6A3FEFDD
:101280000BF0287E1A6A7BEC0BF093EC0BF01AB68D
:1012900023EF0BF01AA20AD01AAA03D01ABE23EF2A
:1012A0000BF01AA42FEF0BF02CEF0BF01AAA05D0BD
:1012B0001AAC2FEF0BF02CEF0BF01AA00AD01AA8E3
:1012C00008D01ABE04D01AA402D038EF0BF03CEFBD
:1012D0000BF02B6A1E6A2850235C2A6E10E320C094
:1012E0002CF021C01BF022C01CF023C029F025C027
:1012F00020F026C021F027C022F01A3A09D025C0DC
:101300002CF026C01BF027C01CF028C029F02A6C46
:101310001A9E1ABC1A8E29C01DF01AB06BEF0BF082
:101320001A0E2A606BEF0BF01D6A236A1AA408D00C
:10133000206C211E221E231EE86A21222222232243
:101340001AAC08D02C6C1B1E1C1E1D1EE86A1B222A
:101350001C221D221F6A2A5207E023342232213226
:1013600020321F322A2EF9D720502C2621501B2242
:1013700022501C2223501D221FC02BF01A9E1DAE8E
:101380000BD02B6C2C1E1B1E1C1E1D1EE86A2C2253
:101390001B221C221D221A8E1DA006D0D8801C32B2
:1013A0001B322C322B32292A29C01DF03FEF0BF0C3
:1013B0001A6A7BEC0BF093EC0BF01AB623EF0BF0F0
:1013C0001AA205D01AB823EF0BF02AEF0BF01AAAD5
:1013D00005D01AB023EF0BF02AEF0BF01AB002D0B1
:1013E0001AA802D036EF0BF01E6A285023241D6E77
:1013F000E86A1E227E0E1D5EE86A1E5A2B6A2C6A5F
:101400001B6A1C6A27502202F4CF1CF0F3CF1BF09A
:1014100026502202F3502C26F4501B22000E1C22D0
:1014200027502102F3502C26F4501B22000E1C22C0
:1014300025502202F3502B26F4502C22000E1B22A2
:101440001C2226502102F3502B26F4502C22000E91
:101450001B221C2227502002F3502B26F4502C2252
:10146000000E1B221C2225502102F4502B26000EB8
:101470002C221B221C2226502002F4502B26000E68
:101480002C221B221C223FEF0BF022C02CF021C08B
:101490002BF020C02AF020502502F4CF1EF0F3CF0D
:1014A0001DF021502602F4CF20F0F3CF1FF02502CB
:1014B000F3501E26F4501F22E86A20222A502602EA
:1014C000F3501E26F4501F22E86A202222502502E3
:1014D000F3501F26F450202222502602216AE86A87
:1014E0002122F3502026F45021222A502702F350C3
:1014F0001F26F4502022226AE86A212222222B5041
:101500002702F3502026F4502122E86A22222C5090
:101510002702F3502126F4502222000C1A6A7BEC99
:101520000BF01AB698EF0AF01AA20AD01AB403D038
:101530007F0E226E19D0800E226E16D0226A14D031
:101540001AB0FCD7870E2360F1D77E0E2364F6D73E
:10155000860E235C04E0D8902232232AF9D71AA4FD
:1015600003D0226C22AEEAD71200CEEC0AF01AB6F3
:10157000000C1AB0010C000CCEEC0AF01AB6000CEC
:101580001AB0000C1AB4000C010CCEEC0AF01AB61A
:10159000000C1AB0000C1AA4000C010C1A6A7BECA7
:1015A0000BF093EC0BF01AB612001AAE08D01AA08A
:1015B00004D01AA802D01A8012001A9012002850E3
:1015C000235C0BE12750225C08E12650215C05E1F9
:1015D0002550205C02E11A801200D8A002D01A8E99
:1015E00010D0235028C023F0286E225027C022F0AC
:1015F000276E215026C021F0266E205025C020F0F5
:10160000256E2850235C10E0FF0F09E01A901AB4F1
:1016100003D01AAE1A8412001AAE1A941200282AA5
:10162000D8902732263225322550205E2650215A66
:101630002750225A22BEEAD7D890203621362236A9
:10164000232EF8D7C8D77F0E236EFF0E226E216E91
:10165000206E12007F0E1ABEFF0E236E02D07F0E88
:10166000236E800E226E216A206AF3D71AAE04D050
:10167000800E236E226AF7D7236A226AF4D71C50A1
:101680001B102C102B10F8E01EBEF0D71CBE0CD087
:101690001D501E10EBE0D8902B362C361B361C3616
:1016A0001D06D8A01E06F2D71E50D4E11D28D2E098
:1016B0002BAE11D07F0E2B1402E12CA00CD02C2AC3
:1016C000E86A1B221C2207E3D8801C321B322C3212
:1016D0001D2A1D28BFE01D50C9E02CC020F01BC0F2
:1016E00021F01C34226E1D30236E2232239E1ABE3E
:1016F000238E29EF0BF02236233602E31A841A7E5A
:1017000006E11A80236A226A216A206A12002328CD
:1017100003E0D88022321200D890223202E11A82ED
:1017200012001A8612002736283602E31A8C1A7E17
:1017300006E11A88286A276A266A256A120028287C
:1017400003E0D88027321200D8902732EAE11A8AC3
:1017500012001A9E08D01A9E22AE05D0216C221EBD
:10176000E86A22221A8E22C01CF021C01BF02C6ACB
:101770002B6A8E0E1D6E1E6A3FEF0BF01A9E0CD068
:101780001A9E22AE09D01F6C201E211E221EE86A5E
:101790002022212222221A8E22C01CF021C01BF0FE
:1017A00020C02CF01FC02BF09E0E1D6E1E6A3FEF56
:1017B0000BF01A6A7BEC0BF093EC0BF01AB623EFEC
:1017C0000BF01AA205D01ABA23EF0BF02AEF0BF098
:1017D0001ABA36EF0BF01AA005D01AB823EF0BF0A7
:1017E00036EF0BF01AB82AEF0BF01E6A7F0E232497
:1017F0001D6EE86A1E2228501D5EE86A1E5A1A0EE7
:10180000296E236A2B6A2C6A1B6A1C6A2550205E8B
:101810002650215A2750225A000E235A09E72550F4
:1018200020262650212227502222000E232201D0DA
:101830002B8AD8902036213622362336D8902B3664
:101840002C361B361C36292EE1D7225021102010B1
:10185000D8A42B8A3FEF0BF01A6A7BEC0BF01AB678
:1018600036EF0CF01AA20ED01AB405D07F0E226EFD
:10187000FF0E216E1FD0800E226E216A1BD0226ABD
:10188000216A18D01AB0FBD78F0E2360EDD77E0ED9
:101890002364F5D78E0E235C05E0D89022322132E6
:1018A000232AF8D71AA406D0216C221EE86A222225
:1018B00022AEE5D712001A6A7BEC0BF01AB665EF80
:1018C0000CF01AA20FD01AB407D07F0E226EFF0EB2
:1018D000216E206E1F6E25D0800E226E01D0226AEE
:1018E000000EF6D71AB0FBD71F6A9F0E2360EBD706
:1018F0007E0E2364F4D79E0E235C07E0D89022323C
:10190000213220321F32232AF6D71AA40AD01F6CA4
:10191000201E211E221EE86A20222122222222AE1F
:04192000DED71200FC
:0C192400D9CFE6FFDACFE6FFE1CFD9FF14
:10193000E2CFDAFF220EE12402E3E168E652E16E33
:10194000D950130FE66E000EDA20E66EA8DA67ECC7
:101950000FF0006E060EE15C02E2E16AE552E16E14
:101960000050E76E0E0EE7CFDBFFDB50840B0CE080
:10197000210E0001F26FF36B0F0EDB68100EDB68B7
:10198000110EDB687F0E6ED08ADA36DA020E1FC0C7
:10199000DBFF030E20C0DBFF040E21C0DBFF050EC2
:1019A00022C0DBFF87DA256A100E266E490E276EED
:1019B000460E14DAC5EC0AF0010A32E07BDA67DA87
:1019C0000DDAD9EC0BF0BFD9060EDBCF20F0070EF5
:1019D000DBCF21F0080EDBCF22F0090EDBCF23F0A6
:1019E0005BEC0CF0C0EC0BF0AED964DA060EDBCF8A
:1019F00008F0070EDBCF09F0080EDBCF0AF0090E66
:101A0000DBCF0BF044DA286E08C020F009C021F0CB
:101A10000AC022F00BC023F048DA41EC09F0C4D927
:101A2000F90EDB5012E00E0EDB040BE1FA0EDBCFF9
:101A300000F0FB0EDBCF01F0FC0EDBCF02F0FD0E61
:101A400052D167D9276AF8D947D00E0EDB0419E1C5
:101A50000F0EDB6A100EDB6A800EF36E110EF3CFF1
:101A6000DBFF3F0EF36E120EF3CFDBFF0F0EDBCF6B
:101A700000F0100EDBCF01F0110EDBCF02F0120EE2
:101A800032D1190EDB6A45D9800E276ED5D9006A8E
:101A9000016A026A3F0E036ED950060FE96E000E0E
:101AA000DA20EA6EEECF20F0EECF21F0EECF22F07A
:101AB000EFCF23F000C025F001C026F002C027F0D0
:101AC00003C028F041EC09F023C0EDFF22C0EDFF78
:101AD00021C0EDFF20C0EFFFDF50010B0AE0190E1F
:101AE000DB5002E0000E01D0010EE76E190EE7CFC9
:101AF000DBFF8CD9060EDBCF0CF0070EDBCF0DF031
:101B0000080EDBCF0EF0090EDBCF0FF0256A266A38
:101B1000490E276E400E286E0CC020F00DC021F03B
:101B20000EC022F00FC023F0D8EC09F05CD9A6D982
:101B300095D941EC09F077D9060EDBCF14F0070EEA
:101B4000DBCF15F0080EDBCF16F0090EDBCF17F058
:101B5000220E256EAA0E266E7D0E276E3A0E286E78
:101B600014C020F015C021F016C022F017C023F0D9
:101B7000D8EC09F020C010F021C011F022C012F002
:101B800023C013F0EDD841EC09F00A0E20C0DBFFB2
:101B90000B0E21C0DBFF0C0E22C0DBFF0D0E23C09D
:101BA000DBFFD9500A0FE96E000EEAD825D91FC015
:101BB00000F020C001F021C002F022C003F0256A2D
:101BC000266A800E276E390E286E1FC020F04FD96E
:101BD000C5EC0AF0010A13E1D9500A0FE96E000EB4
:101BE000DA20EA6E020EEECFDBFF030EEECFDBFF54
:101BF000040EEECFDBFF050EEECFDBFF68D0E1D8A1
:101C00000A0EDBCF25F00B0EDBCF26F00C0EDBCF60
:101C100027F00D0EDBCF28F0D8EC09F01A0E20C00B
:101C2000DBFF1B0E21C0DBFF1C0E22C0DBFF1D0EE5
:101C300023C0DBFF5B0E206E9C0E216E2E0E226EEB
:101C4000360E236E72D8CFD8220E256EB20E266EB7
:101C50004F0E276EB90E32D99ED83E0E256E870ED6
:101C6000266E080E276E3C0E29D9DDD8A40E256EEF
:101C7000AA0E266E2A0E276EBE0E20D91E0E20C07A
:101C8000DBFF1F0E21C0DBFF200E22C0DBFF210E79
:101C900023C0DBFF0A0EDBCF00F00B0EDBCF01F021
:101CA0000C0EDBCF02F00D0EDBCF03F08AD81E0E38
:101CB000DBCF25F01F0EDBCF26F0200EDBCF27F089
:101CC000210EDBCF28F0F1D842EC09F06DD8190EC7
:101CD000DB5008E09BD8256A266A800E276EBF0E6F
:101CE000F0D803D042D8DBCF03F000C01FF001C012
:101CF00020F002C021F003C022F0220EE15C02E2DB
:101D0000E16AE552E16EE552E5CFDAFFE7CFD9FFB0
:101D100012007CD8830E256EF90E266EA20E276E59
:101D20003E0ECFD8256A266A12001A0EDBCF25F0A8
:101D30001B0EDBCF26F01C0EDBCF27F01D0EDBCFFA
:101D400028F0D8EF09F0060E20C0DBFF070E21C0F7
:101D5000DBFF080E22C0DBFF090E23C0DBFF1200F1
:101D60008DD800C020F037EF0FF0020EDBCF00F06F
:101D7000030EDBCF01F0040EDBCF02F0050E1200E4
:101D8000DA20EA6EEECFE6FFEECFE6FFEECFE6FF1B
:101D9000EFCFE6FF120020C004F021C005F022C002
:101DA00006F023C007F01200020E20C0DBFF030E76
:101DB00021C0DBFF040E22C0DBFF050E23C0DBFFCA
:101DC00012000A0EDBCF20F00B0EDBCF21F00C0E41
:101DD000DBCF22F00D0EDBCF23F01200286E00C007
:101DE00020F037EF0FF020C008F021C009F022C02A
:101DF0000AF023C00BF01200D3EC10F0E552E552CC
:101E0000E552E5521200286E42EF09F0020EDBCFD8
:101E100004F0030EDBCF05F0040EDBCF06F0050E59
:101E2000DBCF07F0120020C000F021C001F022C07B
:101E300002F023C003F012003F0EE5DF2CEC0CF0A3
:101E400021C0DEFF22C0DDFF000EDFCF21F0010E3A
:101E5000DBCF22F0ABEC0BF0A3EF0EF004C020F0D0
:101E600005C021F006C022F007C023F0120001C017
:101E700021F002C022F003C023F0120020C025F0A0
:101E800021C026F022C027F023C028F01200DB0E6C
:101E9000256E0F0E266EC90E276E400E1200D95009
:101EA000FA0FE96EFF0EC0EF0EF0D8EC09F073DF09
:101EB000B0EF0EF05ADFDBCF03F01200A4DF95EF96
:0E1EC0000EF0286ECBDFD8EC09F013EF0FF018
:021ECE00D9CF6A
:101ED000E6FFDACFE6FFE1CFD9FFE2CFDAFFE65245
:101EE000006801687F0E026E036AD950FA0FE96E2E
:101EF000FF0EDA20EA6EEE500016EE500116EE509C
:101F00000216EE5003166AD800C0EEFF01C0EEFFC5
:101F100002C0EEFF03C0EEFFFD0EDB50800B02E0BF
:101F2000010E01D0000EE66E59D8060EE926000E0D
:101F3000EA22E552E750EF6EFC0EDBCF00F0FD0E1B
:101F4000DBCF01F0D89000360136FC0E00C0DBFF7D
:101F5000FD0E01C0DBFFDB50E66E40D8040EE92623
:101F6000000EEA22E552E750EE6EED6AFD0EDB5000
:101F7000006E016AFF0E001818E1015016E12ED81C
:101F8000EECF00F0EECF01F0EECF02F0EFCF03F096
:101F9000005001100210031006E0210E0001F26F44
:101FA000F36B800E0BD0040E09D0FD0EDB5008E160
:101FB00015D8EE6AEE6AEE6AEE6A010EDF6E06D0A2
:101FC000020EDF6E0BD8EE52EE52EE8EDF50E5526F
:101FD000E552E5CFDAFFE7CFD9FF1200F80EDBCFED
:0A1FE000E9FFF90EDBCFEAFF120063
:061FEA00FFFD01000000F4
:101FF000FE00010001FF0102000200010300FF00DA
:1020000001040001010105000002010600FF0301B7
:102010000700FE00010800FEFE010909FFFF010A9A
:10202000090101010B090202010C090000000D0960
:102030000300010E0E0003010F0EFD0001100E0043
:102040000000110E030301120E000000130E000326
:1020500001141400020115140001011614020201FA
:102060001714030001181402FE01191400FD011ACF
:1020700014FEFE011B14FD00011C14FE02011D14C0
:0F2080000000001E14000000FFFF000000FFFF23
:102090001E0EF66E000EF76E000EF86E00010900BF
:1020A000F550ED6F0900F550EE6F03E1ED6701D0DB
:1020B0003DD00900F550E86F0900F550E96F0900BF
:1020C000F550EA6F09000900F550E96E0900F55076
:1020D000EA6E090009000900F550EB6F0900F550A0
:1020E000EC6F09000900F6CFEFF0F7CFF0F0F8CF72
:1020F000F1F0E8C0F6FFE9C0F7FFEAC0F8FF000121
:10210000EB5302E1EC5307E00900F550EE6EEB07EC
:10211000F8E2EC07F9D7EFC0F6FFF0C0F7FFF1C027
:0E212000F8FF0001ED07000EEE5BBFD71200C6
:02212E00D9CF07
:10213000E6FFDACFE6FFE1CFD9FFE2CFDAFFBA6AF6
:10214000A66AFD0EDBB0BA88DBA202D0BA8CA68CE0
:10215000DBB4BA8EDBA602D0A68801D0A68ADBA8A3
:1021600002D0BA8401D0BA94DBBAA686DBAC02D026
:10217000A38A01D0A39ADBAE02D0A38801D0A39892
:10218000FB0EDB507B6EFC0EDBCF01F001C000F0DC
:10219000016A00507C6EBA8AA68EE552E5CFDAFF5E
:0621A000E7CFD9FF120099
:0A21A600D9CFE6FFDACFE6FFE1CF64
:1021B000D9FFE2CFDAFFE652E652D950FD0F006EAA
:1021C000FF0EDA2000C0DEFFDD6EDECFE9FFDDCFDF
:1021D000EAFFEF9EFA0EDBCF00F0FB0EDBCF01F043
:1021E000FC0EDBCF02F0FD0EDBCF03F000C01FF0D2
:1021F00001C020F002C021F003C022F0E552E552F8
:0C220000E552E5CFDAFFE7CFD9FF12006E
:04220C00D9CFE6FF41
:10221000DACFE6FFE1CFD9FFE2CFDAFF010EE66EBB
:10222000D950FA0FE96EFF0EDA20EA6EEECFE6FF24
:10223000EECFE6FFEECFE6FFEFCFE6FF92EC0CF03D
:10224000006E050EE15C02E2E16AE552E16E0050CB
:0C225000E552E5CFDAFFE7CFD9FF12001E
:04225C00D9CFE6FFF1
:10226000DACFE6FFE1CFD9FFE2CFDAFFE66AD95055
:10227000FA0FE96EFF0EDA20EA6EEECFE6FFEECF40
:10228000E6FFEECFE6FFEFCFE6FF92EC0CF0006E3C
:10229000050EE15C02E2E16AE552E16E0050E552B2
:0A22A000E5CFDAFFE7CFD9FF120007
:0622AA00FB0EE3CFF6FF7E
:1022B000FC0EE3CFF7FFFD0EE3CFF8FFFE0EE3CFFA
:1022C000E9FFFF0EE3CFEAFFE9CFF3FFEACFF4FF28
:1022D000F90EE35003E1FA0EE35009E0F90EE306CC
:1022E00002E2FA0EE3060900F5CFEEFFF1D7120085
:1022F000D9CFE6FFDACFE6FFE1CFD9FFE2CFDAFFB1
:10230000E652E652FC0EDBCFDEFFDBCFDDFF010E37
:10231000DB50D76EDF50D66EE552E552E552E5CF81
:08232000DAFFE7CFD9FF12003C
:08232800D9CFE6FFDACFE6FF92
:10233000E1CFD9FFE2CFDAFFFD0EDB507F0BD56E88
:10234000D76AD66AF294FD0EDBAE02D0F28A01D0D3
:10235000F29AD58EE552E5CFDAFFE7CFD9FF12002A
:10236000D9CFE6FFDACFE6FFE1CFD9FFE2CFDAFF40
:10237000FD0EDB50FB0BCA6ECC6A9E92FD0EDBAEEF
:1023800002D09D8201D09D92CA84E552E5CFDAFF4A
:06239000E7CFD9FF1200A7
:0A239600410EF36E00EE00F00E0E93
:1023A00001D81200EA6002D0EE6AFCD7F350E9606F
:0623B0001200EE6AFCD7EA
:0A23B6001DEE00F02DEE00F0F86AB5
:1023C0001A9C48EC10F003EC00F005EC05F0FBD78C
:0223D0001200F9
:0E23D200000000FFFF000000000000000000FF
:1023E00000000000000000000000000000000000ED
:1023F00000000000000000000000000000000000DD
:1024000000000000000000000000000000000000CC
:1024100000000000000000000000000000000000BC
:0B28D00000006E736173706F6F6B008F
:0528DB000100000000F7
:1028E0000000000B000000000000000000000000DD
:0828F0000000000066B6F4448C
:020000040030CA
:0100000015EA
:0100010018E6
:010002007F7E
:0100030028D4
:0100050008F2
:010006009168
:010008000FE8
:01000900C036
:01000A000FE6
:01000B00E014
:01000C000FE4
:01000D0040B2
:00000001FF
