:020000040000FA
:0600000049EF0FF01200B1
:020006001200E6
:0600080082EF00F012007F
:060018001CEF00F01200D5
:02001E000200DE
:1000200037250000C600000016000000AE1E0000CC
:08003000000600008906000033
:08003800DACFE4FFE9CFE4FF99
:10004000EACFE4FFF3CFE4FFF4CFE4FFE6529EA251
:1000500052D09E92B80ECC6EF2EC06F0EFCF34F098
:10006000343432E2CE51C4EC05F0EE52EFCF35F02D
:1000700035342AE2010E0001A16FA26BA36FA46BBD
:10008000F2EC06F0EF5006E00001D890A137A2375D
:10009000E804FBE1F2EC06F0EE52EF5006E000015E
:1000A000D890A337A437E804FBE1F2EC06F0020E87
:1000B00059EC06F0EF5006E00001A11D8A6EA3C0C6
:1000C0008BFF02D08A688B6A0001CE2BCE51346E32
:1000D000356AD890355004E6800E345C000E3558F1
:1000E00009E2CE51C4EC05F0030E59EC06F0EF50D6
:1000F000FF0801E1CE6BE552E5CFF4FFE5CFF3FF5A
:10010000A9EF06F0DACFE4FFE2CFDAFFE9CFE4FFB0
:10011000EACFE4FFF6CFE4FFF7CFE4FFF8CFE4FF48
:10012000F5CFE4FFF3CFE4FFF4CFE4FFFACFE4FF31
:10013000FBCFE4FF00EE20F0140EE80403E3EECF63
:10014000E4FFFBD700EE00F0200EE80403E3EECF5F
:10015000E4FFFBD7E652A350100B1FE0A450100B96
:100160001CE00001D351D519E8AE02D0D53504D03A
:10017000D451D25DD551D35905E3BAA20ED0A3987C
:10018000CA6B0BD0D0C0E9FFD1C0EAFFEF50796E47
:10019000D22B000ED323D02BD123A4AA06D0A6A203
:1001A00002D0A698A6887ACFA7F0F2A42DD0F29418
:1001B0000F0155B313D08D8054910001C86B010E0F
:1001C000C96F8D82CB511F0BF36EF346F346830E3E
:1001D000C214F310C26EC280C28216D08D905593A5
:1001E0000001010EC86FC96FFCEC06F0810EE92614
:1001F000000EEA22EECFE6FFEFCFE6FFE6EC0EF0D0
:10020000E552E5520F0154819EAC4ED09E9C8D92DA
:10021000C3CFA5F0C4CFA6F0A5C036F0A6C037F076
:10022000040ED89037323632E804FBE136C0A5F030
:1002300037C0A6F04AEC06F000013650A55D3750F5
:10024000A6590AE2010E0001CC6FCD6B8D84F6EC4D
:1002500006F0010EEF6E13D04AEC06F0080E3626BB
:10026000000E37220001A551365CA651375807E22F
:100270000001CC6BCD6B8D94F6EC06F0EF6AA6C056
:10028000B3FFA5C0B2FF0001010EC76FC96B0F011C
:10029000558F549154935583280EE66EA00EE66E4A
:1002A000E6EC0EF0E552E552E55200EE1FF0200EAE
:1002B000E80403E3E5CFEDFFFBD700EE33F0140EC7
:1002C000E80403E3E5CFEDFFFBD7E5CFFBFFE5CF88
:1002D000FAFFE5CFF4FFE5CFF3FFE5CFF5FFE5CF7C
:1002E000F8FFE5CFF7FFE5CFF6FFA9EF06F0D9CF8E
:1002F000E6FFE1CFD9FF060EE126DE6ADE6ADE6A9E
:10030000DD6ADD52DD52FE0EDBCFE6FF87D8E55217
:100310000001C76B0001C75102E10400FBD7040EC6
:10032000DB6A050EDB6A040EDBCF00F0050EDBCFC7
:1003300001F0D890015004E6080E005C000E015850
:1003400024E20001C76B0001C75102E10400FBD7A2
:10035000E66AFE0EDBCFE6FFD6D8E552E552F3CFD4
:1003600000F0F4CF01F0026A036A0050DE2601506B
:10037000DE220250DE220350DD22DD52DD52040E69
:10038000DB2A050E01E3DB2ACED7DFCF00F0010E1A
:10039000DBCF01F0026A036A080E2B6E2C6A2D6A0D
:1003A0002E6A00C026F001C027F002C028F003C06A
:1003B00029F02AEC08F026C000F027C001F028C080
:1003C00002F029C003F0FE0EEA6ADB34FE0BEA36C7
:1003D000E96E610EE926000EEA2200C0EEFF01C0C0
:1003E000EDFFFE0EEA6ADB34FE0BEA36E96E610EC3
:1003F000E926000EEA22EECF00F0EFCF01F000C0B8
:10040000F3FF01C0F4FF00D0060EE15C02E2E16AF6
:10041000E552E16EE552E7CFD9FF1200D9CFE6FFF2
:10042000E1CFD9FFFE0EDB50030801E211D000013D
:10043000C95102E00400FBD7F29EFE0EDBCFCBF0E9
:100440000001C76BF28E0001C75102E10400FBD727
:10045000E552E7CFD9FF120073EC06F00F01556BA0
:10046000900E546F010E536FFE0EDB500E0A14E017
:10047000030A0DE0010A06E0070A14E1E4DBEE6A74
:10048000FA0E0ED0E0DB670EEE6EF00E09D0DBDB6D
:10049000E80EEE6EFD0E04D0D6DB4F0EEE6EF40EBF
:1004A000ED6E06D0D0DB780EEE6EED687D0E536FEC
:1004B000FE0EDB50020806E1020E536FC4DB780E1D
:1004C000EE6EED685D819280C08EC70EC014380953
:1004D000C06EF80EC0140609C06ECF0EC1143009EC
:1004E000C16EC196F80EC1140009C16E830EC2140C
:1004F0000009C26EC2809D8CB190B182B36AB26AAB
:10050000F36AF46AF5D3EFDB0001C7513CE0B2CFE8
:10051000A8F0B3CFA9F03F0E0001A815A86FA96BF2
:10052000FD0EDB5005E1A8C0F3FFA9C0F4FF2FD0FA
:10053000C4DBEECF00F0EFCF01F00050A85D01501A
:10054000A9590DE2BADBA851EE5C0001D66F00019B
:10055000A951EE5800011F0ED615D66FD76B0001BA
:10056000DA51DB1107E1FD0EDB5004E0D6C0DAF012
:10057000D7C0DBF0D6C0D8F0D7C0D9F0D6C0F3FFD3
:10058000D7C0F4FF04D0D8C0F3FFD9C0F4FFB0D374
:10059000AADB020EE126DE6ADD6ADECF00F0DDCFE7
:1005A00001F0D890015004E6800E005C000E015866
:1005B00015E216DBD5DB6ADB13DB050E7ADB9CDB91
:1005C0000FDBEE52CDDB03EC07F00ADB090E71DB2B
:1005D00093DBDF2A010EE1E3DB2ADFD7020EE15CC9
:1005E00002E2E16AE552E16E83D37DDBFE0EDB5071
:1005F000006E016AD890015004E6800E005C000E87
:10060000015808E2F29CC4DB020E53DBFD0EDBCF87
:10061000EFFFF28C6DD367DB290E276E5C0E286E20
:100620008F0E296E3C0E2A6EFA0EDBCF2CF0FB0EDD
:10063000DBCF2DF0FC0EDBCF2EF0FD0EDBCF2FF04D
:10064000BDEC07F027C0AAF028C0ABF029C0ACF081
:100650002AC0ADF027C0E6FF28C0E6FF29C0E6FFAC
:100660002AC0E6FF9BEC0EF0E552E552E552E5525A
:1006700026C0C2F027C0C3F028C0C4F029C0C5F00E
:10068000AAC0E6FFABC0E6FFACC0E6FFADC0E6FF28
:1006900073EC0EF0E552E552E552E55226C0BEF08D
:1006A00027C0BFF028C0C0F029C0C1F071DB050E23
:1006B00000DBEECFAEF0EECFAFF0EECFB0F0EFCF8D
:1006C000B1F066DB090EF5DAEECFB2F0EECFB3F0A3
:1006D000EECFB4F0EFCFB5F0F90EDB502AE092DAAE
:1006E00066DB5CDA6DDBBADA26EC07F0CFDAF50E02
:1006F000DBCF1CF0F60EDBCF1DF0F70EDBCF1EF0CC
:10070000F80EE6DA27EC07F000DB7CDA59DB46DA94
:100710004EDBA4DA27EC07F0B9DAF10EDBCF1CF0E0
:10072000F20EDBCF1DF0F30EDBCF1EF0F40ED0DAAD
:100730000CD0F4DA6FDBFBDAA5DA02DB26EC07F08B
:10074000E4DAF5DA67DBEADA9DDAFADA27EC07F0C1
:1007500027C0BAF028C0BBF029C0BCF02AC0BDF049
:1007600017DB050EA6DAB6C0EEFFB7C0EEFFB8C0C5
:10077000EEFFB9C0EEFF0CDB090E9BDABAC0EEFF4C
:10078000BBC0EEFFBCC0EEFFBDC0EEFFB6C027F0A1
:10079000B7C028F0B8C029F0B9C02AF040DBE55254
:1007A000E750EF6EBAC027F0BBC028F0BCC029F0FC
:1007B000BDC02AF034DBEE52E552E750EF6E98D21E
:1007C000D9CFE6FFE1CFD9FF0E0EE126DE6ADD6A62
:1007D000010EF36E020EF3CFDBFF010EF36E030E7C
:1007E000F3CFDBFF060EDB6A070EDB6A080EDB6A5F
:1007F000090EDB6A1C0EF36E0A0EF3CFDBFF0B0E45
:10080000DB6A0C0EDB6A0D0EDB6AC2DE0F0E926E27
:10081000896A0F010F0E5D6F0F015C6B936A8A6826
:10082000946A8B68956A8C6A966A8D6A700ED36E2C
:10083000C00E9B6E906A9F0EE66E02EC0FF0E552C2
:10084000280EE66EA00EE66EE6EC0EF0E552E552DE
:10085000FD0EE66E1EEC0FF0E5529F92B80ECC6EC8
:10086000670EE66EE66AEC0EE66E04EC0EF0E552FC
:10087000E552E552D08EF28EF28C0001606BE66A92
:100880000D0EE66EE9DDE552E552010EE66E0D0E47
:10089000E66EE2DDE552E552020EE66E0D0EE66E04
:1008A000DBDDE552E552030EE66E0D0EE66ED4DD9D
:1008B000E552E552E66A1BDDE552F3CFDEFFF4CFE9
:1008C000DDFF010EE66E13DDE552F3CFDEFFF4CF60
:1008D000DDFF020EE66E0BDDE552F3CFDEFFF4CF57
:1008E000DDFF030EE66E03DDE552F3CFDEFFF4CF4E
:1008F000DDFF0001606B00016051030801E239D1A6
:1009000060C0E6FF8BDDE552000160510AE1E66A56
:1009100060C0E6FFF8DDE552E552040EF3CFDBFFE1
:1009200006D0E66A60C0E6FFEEDDE552E55204005F
:10093000D950060FE96EDACFEAFFEF2AEECF00F0CA
:10094000000EEF22EECF01F0EF22EECF02F0EF2209
:10095000EFCF03F0D9500A0FE96EDACFEAFFEE507D
:10096000005CEE500158EE500258EE50035801E280
:10097000FDD0F29C0001CC51CD1101E0E3D01C0E62
:10098000F36E0A0EF3CFDBFF0B0EDB6A0C0EDB6A95
:100990000D0EDB6AE66AE66A600EE66E400EE66EF3
:1009A000E66AE66A600EE66E400EE66E010EE66EE0
:1009B000E66AE66A500EE66E410EE66EE66A2BDEE9
:1009C000006E0E0EE15E0050E66AE66A600EE66EAC
:1009D000400EE66EE66AE66A600EE66E400EE66E71
:1009E000010EE66EE66AE66A500EE66E410EE66EAF
:1009F000010EE66E10DE006E0E0EE15E0050E66A3D
:100A0000E66A600EE66E400EE66EE66AE66A600E24
:100A1000E66E400EE66E010EE66EE66AE66A500E7F
:100A2000E66E410EE66E020EE66EF5DD006E0E0E0F
:100A3000E15E0050E66AE66A600EE66E400EE66E23
:100A4000E66AE66A600EE66E400EE66E010EE66E3F
:100A5000E66AE66A500EE66E410EE66E030EE66E3C
:100A6000DADD006E0E0EE15E0050E66AE66A600EA8
:100A7000E66E400EE66EE66AE66A600EE66E400ED0
:100A8000E66E010EE66EE66AE66A500EE66E410E0E
:100A9000E66E040EE66EBFDD006E0E0EE15E0050E7
:100AA000E66AE66A600EE66E400EE66EE66AE66AA2
:100AB000600EE66E400EE66E010EE66EE66AE66ACF
:100AC000500EE66E410EE66E050EE66EA4DD006E7B
:100AD0000E0EE15E0050E66AE66A600EE66E400EBB
:100AE000E66EE66AE66A600EE66E400EE66E010E9F
:100AF000E66EE66AE66A500EE66E410EE66E060E99
:100B0000E66E89DD006E0E0EE15E0050E66AE66A72
:100B1000600EE66E400EE66EE66AE66A600EE66E0F
:100B2000400EE66E010EE66EE66AE66A500EE66E6E
:100B3000410EE66E070EE66E6EDD006E0E0EE15E95
:100B400000500BD00A0EDB6A010EF36E0B0EF3CFD2
:100B5000DBFF0C0EDB6A0D0EDB6AF28C060EDB6A25
:100B6000070EDB6A080EDB6A090EDB6A0001602BE8
:100B7000C2D6BFD60E0EE15C02E2E16AE552E16E3A
:100B8000E552E7CFD9FF12000D0DF3CFE9FFF4CF07
:100B9000EAFF000EE926060EEA221200FDD8F10E49
:100BA000DBCF18F0F20EDBCF19F0F30EDBCF1AF02B
:100BB000F40EDBCF1BF018C02CF019C02DF01AC0BA
:100BC0002EF01BC02FF005D926EC07F027C014F03B
:100BD00028C015F029C016F02AC017F0B6EF06F0AD
:100BE000DECFE9FFDDCFEAFF0D0EEA02F3CFEAFF29
:100BF000E902F3CFE9FFF450EA26000EE926060EDB
:100C0000EA221200F50EDBCF0CF0F60EDBCF0DF072
:100C1000F70EDBCF0EF0F80EDBCF0FF00CC02CF090
:100C20000DC02DF00EC02EF00FC02FF0A8D826EC6E
:100C300007F027C008F028C009F029C00AF02AC030
:100C40000BF0B6EF06F0FD0EEA6ADB34FE0BEA3677
:100C5000E96E810EE926000EEA221200BDEC07F0D3
:100C600027C010F028C011F029C012F02AC013F0DC
:100C70007DD804C027F005C028F006C029F007C0C1
:100C80002AF01200A6D888D8B6EF06F027C000F0E8
:100C900003EF07F00001B0D8610EE926000EEA224A
:100CA000EECF36F0EFCF37F0200E365E000E375A1B
:100CB0001200E926000EEA221200FE0EEA6ADB3478
:100CC000FE0BEA36E96E610EE926000EEA221200FA
:100CD000DBCF1FF01CC02CF01DC02DF01EC02EF06D
:100CE0001FC02FF01200D9CFE6FFE1CFD9FF1200CD
:100CF000E552E7CFD9FF120027C0EEFF01C0EEFF9B
:100D000002C0EEFF03C0EEFF120027C0B6F028C0FD
:100D1000B7F029C0B8F02AC0B9F01200C2C02CF058
:100D2000C3C02DF0C4C02EF0C5C02FF01200BEC04D
:100D30002CF0BFC02DF0C0C02EF0C1C02FF01200AB
:100D400000C027F001C028F002C029F003C02AF03B
:100D50001200E5CFEAFFE5CFE9FFE5CFDAFF1100AA
:100D6000EFCF04F004C029F017EF07F027C02CF0F4
:100D700028C02DF029C02EF02AC02FF01200AEC0DE
:100D800027F0AFC028F0B0C029F0B1C02AF012009F
:100D9000FE0EDB50C4EF05F0BDEC07F027C004F0F9
:100DA00028C005F029C006F02AC007F01200C2C012
:100DB00027F0C3C028F0C4C029F0C5C02AF0120033
:100DC000BEC027F0BFC028F0C0C029F0C1C02AF0C3
:100DD0001200B2C027F0B3C028F0B4C029F0B5C0EB
:100DE0002AF012000001CE51C4EF05F0080ECB2509
:100DF000CBDE020E59EF06F0CB51E96EEA6AD890CD
:100E0000E936EA36120028C001F029C002F02AC0F3
:100E100003F01200B4DFBDEC07F046EF06F05EEC25
:0A0E200008F02950E66EC8EF06F056
:060E2A00219E05D0219E6F
:100E300029AE02D0296C218E29C023F0226A336AA0
:100E4000326A860E246E256AA1EF08F02F7E216A91
:100E5000DDEC08F0F5EC08F021B685EF08F021A2F2
:100E60000AD021AA03D021BE85EF08F021A491EF7A
:100E700008F08EEF08F021AA05D021AC91EF08F020
:100E80008EEF08F021A00AD021A808D021BE04D0FE
:100E900021A402D09AEF08F09EEF08F0326A256A8A
:100EA0002F502A5C316E10E327C033F028C022F0A7
:100EB00029C023F02AC030F02CC027F02DC028F024
:100EC0002EC029F0213A09D02CC033F02DC022F0D9
:100ED0002EC023F02FC030F0316C219E21BC218E1A
:100EE00030C024F021B0CDEF08F01A0E3160CDEF04
:100EF00008F0246A2A6A21A408D0276C281E291E1B
:100F00002A1EE86A282229222A2221AC08D0336C22
:100F1000221E231E241EE86A222223222422266A5D
:100F2000315207E02A342932283227322632312E34
:100F3000F9D72750332628502222295023222A501D
:100F4000242226C032F0219E24AE0BD0326C331EF8
:100F5000221E231E241EE86A332222222322242258
:100F6000218E24A006D0D88023322232333232326E
:100F7000302A30C024F0A1EF08F0216ADDEC08F03F
:100F8000F5EC08F021B685EF08F021A205D021B8D4
:100F900085EF08F08CEF08F021AA05D021B085EF8D
:100FA00008F08CEF08F021B002D021A802D098EF11
:100FB00008F0256A2F502A24246EE86A25227E0E26
:100FC000245EE86A255A326A336A226A236A2E50FE
:100FD0002902F4CF23F0F3CF22F02D502902F35051
:100FE0003326F4502222000E23222E502802F350E2
:100FF0003326F4502222000E23222C502902F350D3
:101000003226F4503322000E222223222D502802B1
:10101000F3503226F4503322000E222223222E5087
:101020002702F3503226F4503322000E22222322CC
:101030002C502802F4503226000E33222222232282
:101040002D502702F4503226000E33222222232272
:10105000A1EF08F0206AE86A2EAE37EF08F02B6C9B
:101060002C1E2D1E2E1E2C222D222E22201E29AE9D
:1010700042EF08F0266C271E281E291E2722282250
:101080002922201EC2EC0EF029BE59EF08F020AE36
:10109000000C266C271E281E291EE86A27222822FB
:1010A0002922226C231E241E251E232224222522CF
:1010B000000C20BE49EF08F02188FF0C216ADDEC0E
:1010C00008F021B668EF08F021A20AD021B403D0BD
:1010D0007F0E296E19D0800E296E16D0296A14D081
:1010E00021B0FCD7870E2A60F1D77E0E2A64F6D78E
:1010F000860E2A5C04E0D89029322A2AF9D721A446
:1011000003D0296C29AEEAD712007F0E2A6EFF0E9B
:10111000296E286E276E12007F0E21BEFF0E2A6EEA
:1011200002D07F0E2A6E800E296E286A276AF3D7B6
:1011300021AE04D0800E2A6E296AF7D72A6A296A5E
:10114000F4D72350221033103210F8E025BEF0D728
:1011500023BE0CD024502510EBE0D8903236333625
:10116000223623362406D8A02506F2D72550D4E10E
:101170002428D2E032AE11D07F0E321402E133A027
:101180000CD0332AE86A2222232207E3D8802332B4
:1011900022323332242A2428BFE02450C9E033C04D
:1011A00027F022C028F02334296E24302A6E2932F9
:1011B0002A9E21BE2A8E8BEF08F029362A3602E3BA
:1011C0002184217E06E121802A6A296A286A276A09
:1011D00012002A2803E0D88029321200D890293240
:1011E00002E121821200218612002E362F3602E300
:1011F000218C217E06E121882F6A2E6A2D6A2C6AB5
:1012000012002F2803E0D8802E321200D8902E3200
:10121000EAE1218A1200219E08D0219E29AE05D044
:10122000286C291EE86A2922218E29C023F028C0B3
:1012300022F0336A326A8E0E246E256AA1EF08F01E
:10124000219E0CD0219E29AE09D0266C271E281E77
:10125000291EE86A272228222922218E29C023F06C
:1012600028C022F027C033F026C032F09E0E246E34
:10127000256AA1EF08F0216ADDEC08F0F5EC08F032
:1012800021B685EF08F021A205D021BA85EF08F03C
:101290008CEF08F021BA98EF08F021A005D021B812
:1012A00085EF08F098EF08F021B88CEF08F0256A78
:1012B0007F0E2A24246EE86A25222F50245EE86AD5
:1012C000255A1A0E306E2A6A326A336A226A236AF3
:1012D0002C50275E2D50285A2E50295A000E2A5A7B
:1012E00009E72C5027262D5028222E502922000EA7
:1012F0002A2201D0328AD8902736283629362A3633
:10130000D8903236333622362336302EE1D7295064
:1013100028102710D8A4328AA1EF08F0216ADDEC4A
:1013200008F021B698EF09F021A20ED021B405D023
:101330007F0E296EFF0E286E1FD0800E296E286A40
:101340001BD0296A286A18D021B0FBD78F0E2A60DB
:10135000EDD77E0E2A64F5D78E0E2A5C05E0D89074
:10136000293228322A2AF8D721A406D0286C291E2F
:10137000E86A292229AEE5D71200216ADDEC08F0DF
:1013800021B6C7EF09F021A20FD021B407D07F0EFC
:10139000296EFF0E286E276E266E25D0800E296ED0
:1013A00001D0296A000EF6D721B0FBD7266A9F0E1E
:1013B0002A60EBD77E0E2A64F4D79E0E2A5C07E0E3
:1013C000D89029322832273226322A2AF6D721A469
:1013D0000AD0266C271E281E291EE86A27222822EA
:1013E000292229AEDED71200FDEC09F021B6000C4F
:1013F00021B0000C21A4000C010C216ADDEC08F0E6
:10140000F5EC08F021B6120021AE08D021A004D0DE
:1014100021A802D021801200219012002F502A5CB6
:101420000BE12E50295C08E12D50285C05E12C5081
:10143000275C02E121801200D8A002D0218E10D0BA
:101440002A502FC02AF02F6E29502EC029F02E6E60
:1014500028502DC028F02D6E27502CC027F02C6E60
:101460002F502A5C10E0FF0F09E0219021B403D037
:1014700021AE2184120021AE219412002F2AD8908F
:101480002E322D322C322C50275E2D50285A2E50C1
:10149000295A29BEEAD7D8902736283629362A2E47
:0414A000F8D7C8D7DA
:0C14A400D9CFE6FFDACFE6FFE1CFD9FF99
:1014B000E2CFDAFF220EE12402E3E168E652E16EB8
:1014C000D950130FE66E000EDA20E66EA8DA27EC8C
:1014D0000DF0006E060EE15C02E2E16AE552E16E9B
:1014E0000050E76E0E0EE7CFDBFFDB50840B0CE005
:1014F000210E0001E66FE76B0F0EDB68100EDB6854
:10150000110EDB687F0E6ED08ADA36DA020E26C044
:10151000DBFF030E27C0DBFF040E28C0DBFF050E38
:1015200029C0DBFF87DA2C6A100E2D6E490E2E6E55
:10153000460E14DAF4EC09F0010A32E07BDA67DADD
:101540000DDA3BEC09F0BFD9060EDBCF27F0070E12
:10155000DBCF28F0080EDBCF29F0090EDBCF2AF015
:10156000BDEC09F022EC09F0AED964DA060EDBCF4F
:1015700008F0070EDBCF09F0080EDBCF0AF0090EEA
:10158000DBCF0BF044DA2F6E08C027F009C028F03B
:101590000AC029F00BC02AF048DA26EC07F0C4D9BB
:1015A000F90EDB5012E00E0EDB040BE1FA0EDBCF7E
:1015B00000F0FB0EDBCF01F0FC0EDBCF02F0FD0EE6
:1015C00052D167D92E6AF8D947D00E0EDB0419E143
:1015D0000F0EDB6A100EDB6A800EF36E110EF3CF76
:1015E000DBFF3F0EF36E120EF3CFDBFF0F0EDBCFF0
:1015F00000F0100EDBCF01F0110EDBCF02F0120E67
:1016000032D1190EDB6A45D9800E2E6ED5D9006A0B
:10161000016A026A3F0E036ED950060FE96E000E92
:10162000DA20EA6EEECF27F0EECF28F0EECF29F0E9
:10163000EFCF2AF000C02CF001C02DF002C02EF038
:1016400003C02FF026EC07F02AC0EDFF29C0EDFF04
:1016500028C0EDFF27C0EFFFDF50010B0AE0190E95
:10166000DB5002E0000E01D0010EE76E190EE7CF4D
:10167000DBFF8CD9060EDBCF0CF0070EDBCF0DF0B5
:10168000080EDBCF0EF0090EDBCF0FF02C6A2D6AAF
:10169000490E2E6E400E2F6E0CC027F00DC028F0A4
:1016A0000EC029F00FC02AF0BDEC07F05CD9A6D916
:1016B00095D926EC07F077D9060EDBCF14F0070E8C
:1016C000DBCF15F0080EDBCF16F0090EDBCF17F0DD
:1016D000220E2C6EAA0E2D6E7D0E2E6E3A0E2F6EE1
:1016E00014C027F015C028F016C029F017C02AF042
:1016F000BDEC07F027C010F028C011F029C012F08F
:101700002AC013F0EDD826EC07F00A0E27C0DBFF45
:101710000B0E28C0DBFF0C0E29C0DBFF0D0E2AC00C
:10172000DBFFD9500A0FE96E000EEAD825D926C092
:1017300000F027C001F028C002F029C003F02C6A95
:101740002D6A800E2E6E390E2F6E26C027F04FD9CF
:10175000F4EC09F0010A13E1D9500A0FE96E000E0A
:10176000DA20EA6E020EEECFDBFF030EEECFDBFFD8
:10177000040EEECFDBFF050EEECFDBFF68D0E1D825
:101780000A0EDBCF2CF00B0EDBCF2DF00C0EDBCFD7
:101790002EF00D0EDBCF2FF0BDEC07F01A0E27C098
:1017A000DBFF1B0E28C0DBFF1C0E29C0DBFF1D0E5C
:1017B0002AC0DBFF5B0E276E9C0E286E2E0E296E54
:1017C000360E2A6E72D8CFD8220E2C6EB20E2D6E27
:1017D0004F0E2E6EB90E32D99ED83E0E2C6E870E4D
:1017E0002D6E080E2E6E3C0E29D9DDD8A40E2C6E5F
:1017F000AA0E2D6E2A0E2E6EBE0E20D91E0E27C0EA
:10180000DBFF1F0E28C0DBFF200E29C0DBFF210EEF
:101810002AC0DBFF0A0EDBCF00F00B0EDBCF01F09E
:101820000C0EDBCF02F00D0EDBCF03F08AD81E0EBC
:10183000DBCF2CF01F0EDBCF2DF0200EDBCF2EF0F8
:10184000210EDBCF2FF0F1D827EC07F06DD8190E61
:10185000DB5008E09BD82C6A2D6A800E2E6EBF0EDE
:10186000F0D803D042D8DBCF03F000C026F001C08F
:1018700027F002C028F003C029F0220EE15C02E24A
:10188000E16AE552E16EE552E5CFDAFFE7CFD9FF35
:1018900012007CD8830E2C6EF90E2D6EA20E2E6EC9
:1018A0003E0ECFD82C6A2D6A12001A0EDBCF2CF018
:1018B0001B0EDBCF2DF01C0EDBCF2EF01D0EDBCF71
:1018C0002FF0BDEF07F0060E27C0DBFF070E28C084
:1018D000DBFF080E29C0DBFF090E2AC0DBFF120068
:1018E0008DD800C027F0F7EF0CF0020EDBCF00F030
:1018F000030EDBCF01F0040EDBCF02F0050E120069
:10190000DA20EA6EEECFE6FFEECFE6FFEECFE6FF9F
:10191000EFCFE6FF120027C004F028C005F029C071
:1019200006F02AC007F01200020E27C0DBFF030EEC
:1019300028C0DBFF040E29C0DBFF050E2AC0DBFF39
:1019400012000A0EDBCF27F00B0EDBCF28F00C0EB7
:10195000DBCF29F00D0EDBCF2AF012002F6E00C076
:1019600027F0F7EF0CF027C008F028C009F029C0D5
:101970000AF02AC00BF0120040EC0EF0E552E552DE
:10198000E552E55212002F6E27EF07F0020EDBCF73
:1019900004F0030EDBCF05F0040EDBCF06F0050EDE
:1019A000DBCF07F0120027C000F028C001F029C0EB
:1019B00002F02AC003F012003F0EE5DF8EEC09F0C2
:1019C00028C0DEFF29C0DDFF000EDFCF28F0010EAA
:1019D000DBCF29F00DEC09F063EF0CF004C027F029
:1019E00005C028F006C029F007C02AF0120001C087
:1019F00028F002C029F003C02AF0120027C02CF002
:101A000028C02DF029C02EF02AC02FF01200DB0EC6
:101A10002C6E0F0E2D6EC90E2E6E400E1200D95078
:101A2000FA0FE96EFF0E80EF0CF0BDEC07F073DFEC
:101A300070EF0CF05ADFDBCF03F01200A4DF55EF9C
:0E1A40000CF02F6ECBDFBDEC07F0D3EF0CF0F7
:021A4E00D9CFEE
:101A5000E6FFDACFE6FFE1CFD9FFE2CFDAFFE652C9
:101A6000006801687F0E026E036AD950FA0FE96EB2
:101A7000FF0EDA20EA6EEE500016EE500116EE5020
:101A80000216EE5003166AD800C0EEFF01C0EEFF4A
:101A900002C0EEFF03C0EEFFFD0EDB50800B02E044
:101AA000010E01D0000EE66E59D8060EE926000E92
:101AB000EA22E552E750EF6EFC0EDBCF00F0FD0EA0
:101AC000DBCF01F0D89000360136FC0E00C0DBFF02
:101AD000FD0E01C0DBFFDB50E66E40D8040EE926A8
:101AE000000EEA22E552E750EE6EED6AFD0EDB5085
:101AF000006E016AFF0E001818E1015016E12ED8A1
:101B0000EECF00F0EECF01F0EECF02F0EFCF03F01A
:101B1000005001100210031006E0210E0001E66FD4
:101B2000E76B800E0BD0040E09D0FD0EDB5008E1F0
:101B300015D8EE6AEE6AEE6AEE6A010EDF6E06D026
:101B4000020EDF6E0BD8EE52EE52EE8EDF50E552F3
:101B5000E552E5CFDAFFE7CFD9FF1200F80EDBCF71
:0A1B6000E9FFF90EDBCFEAFF1200E7
:061B6A001E0EF66E000ED7
:101B7000F76E000EF86E00010900F550E16F0900E4
:101B8000F550E26F03E1E16701D03DD00900F55067
:101B9000DC6F0900F550DD6F0900F550DE6F0900BC
:101BA0000900F550E96E0900F550EA6E09000900D8
:101BB0000900F550DF6F0900F550E06F09000900DA
:101BC000F6CFE3F0F7CFE4F0F8CFE5F0DCC0F6FFB6
:101BD000DDC0F7FFDEC0F8FF0001DF5302E1E05394
:101BE00007E00900F550EE6EDF07F8E2E007F9D7ED
:101BF000E3C0F6FFE4C0F7FFE5C0F8FF0001E1072E
:081C0000000EE25BBFD71200E9
:081C0800D9CFE6FFDACFE6FFB9
:101C1000E1CFD9FFE2CFDAFFBA6AA66AFD0EDBB0E8
:101C2000BA88DBA202D0BA8CA68CDBB4BA8EDBA653
:101C300002D0A68801D0A68ADBA802D0BA8401D03F
:101C4000BA94DBBAA686DBAC02D0A38A01D0A39AF1
:101C5000DBAE02D0A38801D0A398FB0EDB507B6ED5
:101C6000FC0EDBCF01F001C000F0016A00507C6E79
:101C7000BA8AA68EE552E5CFDAFFE7CFD9FF120088
:101C8000D9CFE6FFDACFE6FFE1CFD9FFE2CFDAFF27
:101C9000E652E652D950FD0F006EFF0EDA2000C06A
:101CA000DEFFDD6EDECFE9FFDDCFEAFFEF9EFA0E4D
:101CB000DBCF00F0FB0EDBCF01F0FC0EDBCF02F040
:101CC000FD0EDBCF03F000C026F001C027F002C0FC
:101CD00028F003C029F0E552E552E552E5CFDAFFDE
:061CE000E7CFD9FF12005E
:0A1CE600D9CFE6FFDACFE6FFE1CF29
:101CF000D9FFE2CFDAFF010EE66ED950FA0FE96E96
:101D0000FF0EDA20EA6EEECFE6FFEECFE6FFEECF73
:101D1000E6FFEFCFE6FF52EC0AF0006E050EE15C45
:101D200002E2E16AE552E16E0050E552E5CFDAFFEA
:061D3000E7CFD9FF12000D
:0A1D3600D9CFE6FFDACFE6FFE1CFD8
:101D4000D9FFE2CFDAFFE66AD950FA0FE96EFF0E4B
:101D5000DA20EA6EEECFE6FFEECFE6FFEECFE6FF4B
:101D6000EFCFE6FF52EC0AF0006E050EE15C02E2F6
:101D7000E16AE552E16E0050E552E5CFDAFFE7CFC8
:041D8000D9FF120075
:0C1D8400256A246A236A226A200EE76E9A
:101D9000D89026362736283629362236233624365A
:101DA00025362B50225C2C5023582D5024582E5071
:101DB000255809E32B50225E2C50235A2D50245ACB
:0C1DC0002E50255A262AE72EE4D71200E8
:041DCC00D9CFE6FF86
:101DD000DACFE6FFE1CFD9FFE2CFDAFFE652E652F3
:101DE000FC0EDBCFDEFFDBCFDDFF010EDB50D76E5D
:101DF000DF50D66EE552E552E552E5CFDAFFE7CF88
:041E0000D9FF1200F4
:0C1E0400D9CFE6FFDACFE6FFE1CFD9FF2F
:101E1000E2CFDAFFFD0EDB507F0BD56ED76AD66AB4
:101E2000F294FD0EDBAE02D0F28A01D0F29AD58E8A
:0C1E3000E552E5CFDAFFE7CFD9FF120042
:041E3C00D9CFE6FF15
:101E4000DACFE6FFE1CFD9FFE2CFDAFFFD0EDB50BC
:101E5000FB0BCA6ECC6A9E92FD0EDBAE02D09D8259
:101E600001D09D92CA84E552E5CFDAFFE7CFD9FFD2
:021E700012005E
:0E1E7200410EF36E00EE00F00E0E01D81200CD
:101E8000EA6002D0EE6AFCD7F350E9601200EE6A15
:021E9000FCD77D
:0E1E92001DEE00F02DEE00F0F86A219CB5EC7C
:0E1EA0000DF003EC00F0E0EC03F0FBD71200B5
:021EAE00000032
:101EB000010000000000000000000001010101001D
:101EC000000000000000000002020102000000000B
:101ED00000000000000303010300000000000000F8
:101EE00000000404010400000000000000000005E0
:101EF00005010500000000000000000006060106C4
:101F000000000000000000000007070107000000BB
:101F100000000000000006040008080000000000A7
:101F20000000000605000908000000000000000095
:101F30000606000A08000000000000000006070076
:101F40000B080000000000000000000000FF00007F
:101F50000000000000000000000000000000000081
:101F60000000000000000000000000000000000071
:101F70000000000000000000000000000000000061
:101F80000000000000000000000000000000000051
:1025200000000000000000000000000000006E73CA
:072530006173706F6F6B0017
:092537000100000000000000009A
:0D25400000800C0000000000000000000002
:020000040030CA
:0100000015EA
:0100010018E6
:010002007F7E
:0100030028D4
:0100050008F2
:010006009168
:010008000FE8
:01000900C036
:01000A000FE6
:01000B00E014
:01000C000FE4
:01000D0040B2
:00000001FF
