:020000040000FA
:0600000020EF13F01200D6
:020006001200E6
:0600080094EF00F012006D
:060018001CEF00F01200D5
:02001E000200DE
:10002000EA280000D2000000200000005C2600004A
:08003000000600008E02000032
:08003800DACFE4FFE9CFE4FF99
:10004000EACFE4FFF3CFE4FFF4CFE4FFE6529EA251
:1000500064D09E92A80ECC6E8A688B6A01EC09F07F
:10006000EDEC08F0EF5011E1DA511BEC08F0BFECB9
:1000700008F0EF50FF0808E0DFEC08F004E6800E1F
:100080002D5C000E2E58EAE3DA6BDA511BEC08F017
:10009000EFCF2DF02D3431E2DA511BEC08F0EE52A7
:1000A000EFCF2EF02E3429E2010E0001A16FA26BDA
:1000B000A36FA46B01EC09F0EF5006E00001D890AB
:1000C000A137A237E804FBE101EC09F0EE52EF5052
:1000D00006E00001D890A337A437E804FBE101EC67
:1000E00009F0EDEC08F0EF5006E00001A11D8A6E6A
:1000F000A3C08BFF02D08A688B6A01EC09F0BFECC9
:1001000008F0EF50FF0808E0DFEC08F004E6800E8E
:100110002D5C000E2E5801E3DA6BE552E5CFF4FFBB
:10012000E5CFF3FFD8EF08F0DACFE4FFE2CFDAFF54
:10013000E9CFE4FFEACFE4FFF6CFE4FFF7CFE4FF37
:10014000F8CFE4FFF5CFE4FFF3CFE4FFF4CFE4FF13
:10015000FACFE4FFFBCFE4FF00EE19F0140EE80441
:1001600003E3EECFE4FFFBD700EE00F0190EE80446
:1001700003E3EECFE4FFFBD7E652A350100B1FE0E2
:10018000A450100B1CE00001DF51E119E8AE02D0D1
:10019000E13504D0E051DE5DE151DF5905E3BAA25B
:1001A0000ED0A398D66B0BD0DCC0E9FFDDC0EAFF10
:1001B000EF50796EDE2B000EDF23DC2BDD23A4AAAB
:1001C00013D0A6A202D0A698A6887ACFA7F0A7C07F
:1001D00085F80001850EDC6F080EDD6FDE6BDF6BCE
:1001E000010EE06FE16BA388F2A42DD0F2940F0111
:1001F00055B313D08D8054910001D46B010ED56F8F
:100200008D82D7511F0BF36EF346F346830EC21453
:10021000F310C26EC280C28216D08D905593000139
:10022000010ED46FD56F11EC09F0810EE926000E96
:10023000EA22EECFE6FFEFCFE6FFBDEC12F0E5528B
:10024000E5520F0154819EAC4AD09E9C8D92C3CF43
:10025000A5F0C4CFA6F0A5C02FF0A6C030F0040EC4
:10026000D89030322F32E804FBE12FC0A5F030C027
:10027000A6F06CEC08F000012F50A55D3050A65997
:100280000CE20001D75103E1010ED86FD96BD705FD
:1002900002E1D86BD96B8D840DD06CEC08F0080EA0
:1002A0002F26000E30220001A5512F5CA651305898
:1002B00001E28D94A6C0B3FFA5C0B2FF0001010EFC
:1002C000D36FD56B0F01558F549154935583380ECE
:1002D000E66EC70EE66EBDEC12F0E552E552E55251
:1002E00000EE18F0190EE80403E3E5CFEDFFFBD7AD
:1002F00000EE2CF0140EE80403E3E5CFEDFFFBD78E
:10030000E5CFFBFFE5CFFAFFE5CFF4FFE5CFF3FF45
:10031000E5CFF5FFE5CFF8FFE5CFF7FFE5CFF6FF37
:10032000D8EF08F0D9CFE6FFE1CFD9FF0001E26BAB
:10033000E36BE46BE56BFE0EDBCFE6FF79D8E552AD
:100340000001D36B0001D35102E10400FBD700018F
:10035000A86BA96B080E0001A9AF02D0D89003D0FA
:10036000A85D000EA95922E20001D36B0001D35110
:1003700002E10400FBD7E66AFE0EDBCFE6FFD4D82D
:10038000E552E552F3CF00F0F4CF01F00001005048
:100390000001E227000101500001E323000EE423E5
:1003A000E5230001A82B000EA923D4D7E2C000F05A
:1003B000E3C001F0026A036A080E246E256A266A09
:1003C000276A00C01FF001C020F002C021F003C066
:1003D00022F045EC0AF01FC000F020C001F021C05F
:1003E00002F022C003F0FE0EEA6ADB34FE0BEA36AE
:1003F000E96E610EE926000EEA2200C0EEFF01C0A0
:10040000EDFFFE0EEA6ADB34FE0BEA36E96E610EA2
:10041000E926000EEA22EECF00F0EFCF01F000C097
:10042000F3FF01C0F4FF00D0E552E7CFD9FF12007F
:10043000D9CFE6FFE1CFD9FFFE0EDB50030801E282
:1004400011D00001D55102E00400FBD7F29EFE0E50
:10045000DBCFD7F00001D36BF28E0001D35102E164
:100460000400FBD7E552E7CFD9FF1200FCEC08F0FF
:100470000F01556B900E546F010E536FFE0EDB5043
:100480000E0A17E0030A0FE0010A07E0070A18E165
:1004900025EC08F0EE6AFA0E11D025EC08F0670E94
:1004A000EE6EF00E0BD025EC08F0E80EEE6EFD0EB1
:1004B00005D025EC08F04F0EEE6EF40EED6E07D071
:1004C00025EC08F0780EEE6EED687D0E536FFE0E93
:1004D000DB50020807E1020E536F25EC08F0780E9E
:1004E000EE6EED685D819280C08EC70EC014380933
:1004F000C06EF80EC0140609C06ECF0EC1143009CC
:10050000C16EC196F80EC1140009C16E830EC214EB
:100510000009C26EC2809D8CB190B182B36AB26A8A
:10052000F36AF46A68EF08F0FCEC08F00001D351BC
:100530003EE0B2CFAAF0B3CFABF03F0E0001AA1558
:10054000AA6FAB6BFD0EDB5005E1AAC0F3FFABC099
:10055000F4FF31D0B4EC08F0EECF00F0EFCF01F0B3
:100560000050AA5D0150AB590EE2B4EC08F0AA515C
:10057000EE5C0001E66F0001AB51EE5800011F0E6A
:10058000E615E66FE76B0001EA51EB1107E1FD0E9E
:10059000DB5004E0E6C0EAF0E7C0EBF0E6C0E8F0CC
:1005A000E7C0E9F0E6C0F3FFE7C0F4FF04D0E8C01D
:1005B000F3FFE9C0F4FF68EF08F0800EE66E020E6C
:1005C000E66E360EE66E1F0EE66E000EE66E000E4E
:1005D000E66E060EE66E9AEC12F0006E070EE15E15
:1005E00000501200FCEC08F0FD0EDB5005E00001AD
:1005F000EC6BF3EC08F0B0D00001ED6B050E0001E0
:10060000B06FB16BB0C0E6FFB1C0E6FF360E036E4F
:100610001F0E046E000E056EFE0EDB500001ED2570
:10062000066E076A086A050E256E266A276A06C0E6
:1006300020F007C021F008C022F079EC0AF01DC0BC
:1006400006F01EC007F01FC008F003501D24F36E13
:1006500004501E20F46E0550E6EC08F0F6CF00F0D2
:10066000F7CF01F0F8CF02F000C0E6FF01C0E6FFCF
:1006700002C0E6FF0001EC51ED251BEC08F0E9CFCC
:1006800009F0EACF0AF0E9CFE6FFEACFE6FF9AECFD
:1006900012F00B6E070EE15E0B500001ED2B360ED3
:1006A000016E1F0E026E000E036EFE0EDB50ED2576
:1006B000046E056A066A050E256E266A276A04C05E
:1006C00020F005C021F006C022F079EC0AF00150BC
:1006D0001D24F36E02501E20F46E0350E6EC08F069
:1006E000040EF626000EF722F8220800F5CF00F0DF
:1006F000FE0EDB50005C01E185D70001EC510001EA
:10070000AE6FAF6B0001EC51ED250001AFAF02D031
:10071000D89003D0AE5D000EAF5917E20001EC5146
:100720000001016AAE25006EAF5101228EEC08F087
:10073000BFEC08F000C0EFFF8EEC08F024EC09F0ED
:10074000ECC0EFFFAE2BAF23DDD70001ED51EC275E
:10075000F3EC08F0ED51EC5D68EF08F04CEC08F0BC
:1007600002E6C1EC08F007E2EFEC08F0EDEC08F06F
:10077000FD0EDBCFEFFF68EF08F0FCEC08F0FA0E9F
:10078000DBCF00F0FB0EDBCF01F0FC0EDBCF02F085
:10079000FD0EDBCF03F0EEC025F0EFC026F0F0C079
:1007A00027F0F1C028F005EC09F0E9EC0AF0010AA5
:1007B0004AE0290E206E5C0E216E8F0E226E3C0EDA
:1007C000236EA0EC08F020C0B2F021C0B3F022C02C
:1007D000B4F023C0B5F020C0E6FF21C0E6FF22C080
:1007E000E6FF23C0E6FF4FEC12F0E552E552E5527A
:1007F000E5521FC0C2F020C0C3F021C0C4F022C027
:10080000C5F0B2C0E6FFB3C0E6FFB4C0E6FFB5C0B6
:10081000E6FF27EC12F0E552E552E552E5521FC023
:10082000BEF020C0BFF021C0C0F022C0C1F0FA0E5F
:10083000DBCFEEF0FB0EDBCFEFF0FC0EDBCFF0F00A
:10084000FD0EDBCFF1F0EFEC08F0AEEC08F020C0CD
:10085000B6F021C0B7F022C0B8F023C0B9F0EFEC79
:1008600008F0EE52AEEC08F020C0BAF021C0BBF0A8
:1008700022C0BCF023C0BDF0C6EC08F07BEC08F051
:10088000CFEC08F0EDDB41EC09F01EEC09F0E5528D
:10089000E750EF6ECFEC08F07BEC08F0C6EC08F008
:1008A000DFDB42EC09F026EF09F0FCEC08F0EFEC9E
:1008B00008F0FD0EDB50EF26EFEC08F0EE52FC0ED8
:1008C000DB50EF2668EF08F0FCEC08F0EFEC08F0E6
:1008D000AEEC08F020C0C6F021C0C7F022C0C8F0BE
:1008E00023C0C9F0EFEC08F0EE52AEEC08F020C0E7
:1008F000CAF021C0CBF022C0CCF023C0CDF0C6C0DE
:1009000020F0C7C021F0C8C022F0C9C023F0C2EC5B
:100910000AF032EC09F0A0EC08F01EEC09F0E55208
:10092000E750EF6ECAC020F0CBC021F0CCC022F05F
:10093000CDC023F0C2EC0AF032EC09F0F60EDBCFAA
:1009400025F0F70EDBCF26F0F80EDBCF27F0F90EFF
:10095000DBCF28F0D8EC09F026EF09F09DDB02E6AA
:10096000C1EC08F017E20001CE6B180ECE5D12E26A
:10097000FE0EDB50CE250EEC09F00CE118EC09F070
:10098000CE25E66EFADE006E050EE15E0050000137
:10099000CE2BEBD79DD380DB01E6F3DB1CE200011D
:1009A000CF6B180ECF5D17E2FE0EDB50CF250EEC9D
:1009B00009F011E1FC0EDBCFE6FFFD0EDBCFE6FF19
:1009C000FE0EDB50CF25E66E70DFE552E552E552B4
:1009D0000001CF2BE6D77CD35FDB01E6D2DB1AE246
:1009E0000001D06B180ED05D15E2FE0EDB50D02555
:1009F0000EEC09F00FE1D950F60F5DDB18EC09F0B1
:100A0000D025E66E61DF006E090EE15E0050000148
:100A1000D02BE8D75DD340DB01E6B3DB17E2000162
:100A2000D16B180ED15D12E2FE0EDB50D125F6DB44
:100A30000DE1FD0EDBCFE6FFFE0EDB50D125E66EAD
:100A40008DDEE552E5520001D12BEBD741D3F28C7C
:100A50001200F29C8A688B6A1200D9CFE6FFE1CFC0
:100A6000D9FF180EE126DE6ADD6A010EF36E020E72
:100A7000F3CFDBFF010EF36E030EF3CFDBFF090EA6
:100A8000F36E060EF3CFDBFF070EDB6A080EDB6AA0
:100A9000090EDB6A0A0EDB6A190EF36E0B0EF3CF3A
:100AA000DBFF0C0EDB6A0D0EDB6A0E0EDB6A100E2E
:100AB000DB6A110EDB6A120EDB6A130EDB6A140EA0
:100AC000DB6A150EDB6A160EDB6A400EF36E170E3C
:100AD000F3CFDBFF72DD0F0E926E896A0F010F0EEE
:100AE0005D6F0F015C6B936A8A68946A8B68956A84
:100AF0008C6A966A8D6A700ED36EC00E9B6E906A79
:100B00009F0EE66ED9EC12F0E552380EE66EC70E77
:100B1000E66EBDEC12F0E552E552FD0EE66EF5EC28
:100B200012F0E5529F92A80ECC6E670EE66EE66A52
:100B3000EC0EE66EB8EC11F0E552E552E552D08EBF
:100B4000F28EF28C0001606BE66A0D0EE66E8EDCB2
:100B5000E552E552010EE66E0D0EE66E87DCE552BB
:100B6000E552020EE66E0D0EE66E80DCE552E552B1
:100B7000030EE66E0D0EE66E79DCE552E552E66A8E
:100B800092EC01F0E552F3CFDEFFF4CFDDFF010E72
:100B9000E66E92EC01F0E552F3CFDEFFF4CFDDFF1D
:100BA000020EE66E92EC01F0E552F3CFDEFFF4CFD9
:100BB000DDFF030EE66E92EC01F0E552F3CFDEFFAF
:100BC000F4CFDDFF0001606B00016051030801E21A
:100BD00027D260C0E6FF2CDCE552000160510AE13B
:100BE000E66A60C0E6FFA0DCE552E552040EF3CFF2
:100BF000DBFF06D0E66A60C0E6FF96DCE552E55210
:100C00000400D950070FE96EDACFEAFFEF2AEECFE2
:100C100000F0000EEF22EECF01F0EF22EECF02F057
:100C2000EF22EFCF03F0D9500B0FE96EDACFEAFFD6
:100C3000EE50005CEE500158EE500258EE50035852
:100C400001E2EBD1F29C0001D851D9115FE1190EFC
:100C5000F36E0B0EF3CFDBFF0C0EDB6A0D0EDB6ABF
:100C60000E0EDB6A010EE66EE66ABCDCE552E5526A
:100C7000E66A060EDBCFE6FFB5DCE552E552E76E2D
:100C80000F0EE7CFDBFFD950140FE96EDACFEAFF82
:100C9000EECFE6FFEECFE6FFEECFE6FFEFCFE6FFCB
:100CA000D950140FE96EDACFEAFFEECFE6FFEECFB0
:100CB000E6FFEECFE6FFEFCFE6FF0F0EDBCFE6FF5E
:100CC0008BDE006E090EE15E0050D950100FE96E08
:100CD000DACFEAFFEECFE6FFEECFE6FFEECFE6FF9C
:100CE000EFCFE6FF0F0EDBCFE6FF38DE006E050E1E
:100CF000E15E0050030EE66E030EE66E0F0EDBCFD4
:100D0000E6FF49DEE552E552E552D1D0190EF36E09
:100D10000B0EF3CFDBFF0C0EDB6A0D0EDB6A0E0E43
:100D2000DB6A010EE66EE66A5DDCE552E552E66AD4
:100D3000060EDBCFE6FF56DCE552E552E76E0F0EFE
:100D4000E7CFDBFF046A056A066A400E076E140EE1
:100D5000DBCF08F0150EDBCF09F0160EDBCF0AF063
:100D6000170EDBCF0BF008C025F009C026F00AC033
:100D700027F00BC028F004C020F005C021F006C009
:100D800022F007C023F041EC09F020C000F021C0A0
:100D900001F022C002F023C003F000C0E6FF01C052
:100DA000E6FF02C0E6FF03C0E6FF106A116A126A9E
:100DB000400E136E140EDBCF14F0150EDBCF15F0C2
:100DC000160EDBCF16F0170EDBCF17F014C025F090
:100DD00015C026F016C027F017C028F010C020F06C
:100DE00011C021F012C022F013C023F041EC09F031
:100DF00020C00CF021C00DF022C00EF023C00FF077
:100E00000CC0E6FF0DC0E6FF0EC0E6FF0FC0E6FF18
:100E10000F0EDBCFE6FFE0DD186E090EE15E185025
:100E2000046A056AB40E066E430E076E100EDBCF21
:100E300008F0110EDBCF09F0120EDBCF0AF0130E13
:100E4000DBCF0BF008C025F009C026F00AC027F060
:100E50000BC028F004C020F005C021F006C022F02D
:100E600007C023F041EC09F020C000F021C001F0E0
:100E700022C002F023C003F000C0E6FF01C0E6FF7D
:100E800002C0E6FF03C0E6FF0F0EDBCFE6FF66DD24
:100E90000C6E050EE15E0C50030EE66E030EE66E60
:100EA0000F0EDBCFE6FF77DDE552E552E552F28C1F
:100EB000CEDD006A016A400E026E410E036ED9500B
:100EC000100FE96EDACFEAFFEECF20F0EECF21F07F
:100ED000EECF22F0EFCF23F000C025F001C026F0C6
:100EE00002C027F003C028F042EC09F023C0EDFF58
:100EF00022C0EDFF21C0EDFF20C0EFFF100EDBCFC1
:100F000000F0110EDBCF01F0120EDBCF02F0130E5A
:100F1000DBCF03F0256A266AB40E276E430E286ED7
:100F200000C020F001C021F002C022F003C023F075
:100F3000F0EC0AF0010A69E1100EDB6A110EDB6ABF
:100F4000120EDB6A130EDB6ACD0E006ECC0E016E44
:100F5000CC0E026E3D0E036ED950140FE96EDACF3F
:100F6000EAFFEECF20F0EECF21F0EECF22F0EFCF70
:100F700023F000C025F001C026F002C027F003C016
:100F800028F041EC09F023C0EDFF22C0EDFF21C0A5
:100F9000EDFF20C0EFFF140EDBCF00F0150EDBCF0E
:100FA00001F0160EDBCF02F0170EDBCF03F00A0EB6
:100FB000256ED70E266E230E276EBC0E286E00C03F
:100FC00020F001C021F002C022F003C023F0F9ECB0
:100FD0000AF0010A1AE1140EDB6A150EDB6A160E1E
:100FE000DB6A400EF36E170EF3CFDBFF060EDB500D
:100FF000090806E10D0EF36E060EF3CFDBFF05D0F8
:10100000090EF36E060EF3CFDBFF070EDB6A080E48
:10101000DB6A090EDB6A0A0EDB6A0001602BD4D59D
:10102000D1D5180EE15C02E2E16AE552E16EE552CB
:10103000E7CFD9FF1200050DF3CFE9FFF4CFEAFFA8
:10104000000EE926060EEA221200FD0EEA6ADB34E3
:10105000FE0BEA36E96E810EE926000EEA22120046
:10106000BAC020F0BBC021F0BCC022F0BDC023F04C
:10107000D8EC09F020C004F021C005F022C006F031
:1010800023C007F020C025F021C026F022C027F0A1
:1010900023C028F005EF09F0AFD8FE0EDB50006E3C
:1010A000016AD89001501200CFD8EFCF00F0FE0EA9
:1010B000DB50005C1200E96EFF0EDA20EA6EEECF24
:1010C000E6FFEECFE6FFEECFE6FFEFCFE6FF120042
:1010D000E552E7CFD9FF12000001A3D8610EE9263F
:1010E000000EEA22EECF2FF0EFCF30F0200E2F5E71
:1010F000000E305A1200B6C020F0B7C021F0B8C0C0
:1011000022F0B9C023F0D8EC09F020C000F021C0D3
:1011100001F022C002F023C003F01200AEC0E9FFCC
:10112000AFC0EAFF050EEA02F3CFEAFFE902F3CF10
:10113000E9FFF450EA26000EE926060EEA22120024
:10114000FA0EDBCF25F0FB0EDBCF26F0FC0EDBCF5B
:1011500027F0FD0EDBCF28F0D8EF09F0EFCF00F03D
:1011600000C022F032EF09F0FE0EEA6ADB34FE0B1B
:10117000EA36E96E610EE926000EEA221200030E3D
:101180006BD0800E005C000E01581200C2C025F02A
:10119000C3C026F0C4C027F0C5C028F01200BEC0EE
:1011A00025F0BFC026F0C0C027F0C1C028F0120053
:1011B000E5CFEAFFE5CFE9FFE5CFDAFF1100DA2B53
:1011C000DA512D6E2E6AD8902E5012001F20F86E24
:1011D000F4CFF7FFF3CFF6FF1200020E3DD0FE0E64
:1011E000DB501BEF08F0EC5126DFC9DFEF68EC5154
:1011F00022DF2AD8EF681200D9CFE6FFE1CFD9FF6E
:1012000012000001DA511BEF08F000C020F001C00D
:1012100021F002C022F003C023F012000CDF54EFD3
:1012200008F0D751E96EEA6AD890E936EA3612003A
:10123000D950FA0F40DFFE0EDB501200C2EC0AF06C
:101240002250E66EEFEF08F0040E06D0F7DFEE5204
:10125000E552E750EF6E3CD7E926000EEA22120075
:101260001A9E05D01A9E22AE02D0226C1A8E22C07F
:101270001CF01B6A2C6A2B6A860E1D6E1E6A73EFA9
:101280000BF0287E1A6AAFEC0BF0C7EC0BF01AB625
:1012900057EF0BF01AA20AD01AAA03D01ABE57EFC2
:1012A0000BF01AA463EF0BF060EF0BF01AAA05D055
:1012B0001AAC63EF0BF060EF0BF01AA00AD01AA87B
:1012C00008D01ABE04D01AA402D06CEF0BF070EF55
:1012D0000BF02B6A1E6A2850235C2A6E10E320C094
:1012E0002CF021C01BF022C01CF023C029F025C027
:1012F00020F026C021F027C022F01A3A09D025C0DC
:101300002CF026C01BF027C01CF028C029F02A6C46
:101310001A9E1ABC1A8E29C01DF01AB09FEF0BF04E
:101320001A0E2A609FEF0BF01D6A236A1AA408D0D8
:10133000206C211E221E231EE86A21222222232243
:101340001AAC08D02C6C1B1E1C1E1D1EE86A1B222A
:101350001C221D221F6A2A5207E023342232213226
:1013600020321F322A2EF9D720502C2621501B2242
:1013700022501C2223501D221FC02BF01A9E1DAE8E
:101380000BD02B6C2C1E1B1E1C1E1D1EE86A2C2253
:101390001B221C221D221A8E1DA006D0D8801C32B2
:1013A0001B322C322B32292A29C01DF073EF0BF08F
:1013B0001A6AAFEC0BF0C7EC0BF01AB657EF0BF054
:1013C0001AA205D01AB857EF0BF05EEF0BF01AAA6D
:1013D00005D01AB057EF0BF05EEF0BF01AB002D049
:1013E0001AA802D06AEF0BF01E6A285023241D6E43
:1013F000E86A1E227E0E1D5EE86A1E5A2B6A2C6A5F
:101400001B6A1C6A27502202F4CF1CF0F3CF1BF09A
:1014100026502202F3502C26F4501B22000E1C22D0
:1014200027502102F3502C26F4501B22000E1C22C0
:1014300025502202F3502B26F4502C22000E1B22A2
:101440001C2226502102F3502B26F4502C22000E91
:101450001B221C2227502002F3502B26F4502C2252
:10146000000E1B221C2225502102F4502B26000EB8
:101470002C221B221C2226502002F4502B26000E68
:101480002C221B221C2273EF0BF0196AE86A27AE8C
:1014900052EF0AF0246C251E261E271E2522262226
:1014A0002722191E22AE5DEF0AF01F6C201E211E9E
:1014B000221E202221222222191E76EC12F022BEA8
:1014C00074EF0AF019AE000C1F6C201E211E221EA4
:1014D000E86A2022212222221B6C1C1E1D1E1E1EB9
:1014E0001C221D221E22000C19BE64EF0AF01A886D
:1014F000FF0C22C02CF021C02BF020C02AF020507D
:101500002502F4CF1EF0F3CF1DF021502602F4CFB8
:1015100020F0F3CF1FF02502F3501E26F4501F22B7
:10152000E86A20222A502602F3501E26F4501F2279
:10153000E86A202222502502F3501F26F450202270
:1015400022502602216AE86A2122F3502026F45014
:1015500021222A502702F3501F26F4502022226A0B
:10156000E86A212222222B502702F3502026F45031
:101570002122E86A22222C502702F3502126F4501F
:101580002222000C1A6AAFEC0BF01AB6CCEF0AF06C
:101590001AA20AD01AB403D07F0E226E19D0800E80
:1015A000226E16D0226A14D01AB0FCD7870E2360A0
:1015B000F1D77E0E2364F6D7860E235C04E0D89024
:1015C0002232232AF9D71AA403D0226C22AEEAD7FA
:1015D000120002EC0BF01AB6000C1AB0010C000C51
:1015E00002EC0BF01AB6000C1AB0000C1AB4000C86
:1015F000010C02EC0BF01AB6000C1AB0000C1AA485
:10160000000C010C1A6AAFEC0BF0C7EC0BF01AB629
:1016100012001AAE08D01AA004D01AA802D01A805C
:1016200012001A9012002850235C0BE12750225C14
:1016300008E12650215C05E12550205C02E11A807A
:101640001200D8A002D01A8E10D0235028C023F048
:10165000286E225027C022F0276E215026C021F08C
:10166000266E205025C020F0256E2850235C10E007
:10167000FF0F09E01A901AB403D01AAE1A841200B0
:101680001AAE1A941200282AD89027322632253210
:101690002550205E2650215A2750225A22BEEAD7D2
:1016A000D890203621362236232EF8D7C8D77F0E81
:1016B000236EFF0E226E216E206E12007F0E1ABE68
:1016C000FF0E236E02D07F0E236E800E226E216AE3
:1016D000206AF3D71AAE04D0800E236E226AF7D7A1
:1016E000236A226AF4D71C501B102C102B10F8E030
:1016F0001EBEF0D71CBE0CD01D501E10EBE0D890C3
:101700002B362C361B361C361D06D8A01E06F2D7EB
:101710001E50D4E11D28D2E02BAE11D07F0E2B1429
:1017200002E12CA00CD02C2AE86A1B221C2207E321
:10173000D8801C321B322C321D2A1D28BFE01D50C0
:10174000C9E02CC020F01BC021F01C34226E1D30DB
:10175000236E2232239E1ABE238E5DEF0BF02236BB
:10176000233602E31A841A7E06E11A80236A226A6B
:10177000216A206A1200232803E0D8802232120056
:10178000D890223202E11A8212001A8612002736FD
:10179000283602E31A8C1A7E06E11A88286A276A1C
:1017A000266A256A1200282803E0D8802732120012
:1017B000D8902732EAE11A8A12001A9E08D01A9E9F
:1017C00022AE05D0216C221EE86A22221A8E22C087
:1017D0001CF021C01BF02C6A2B6A8E0E1D6E1E6A37
:1017E00073EF0BF01A9E0CD01A9E22AE09D01F6C1C
:1017F000201E211E221EE86A2022212222221A8E69
:1018000022C01CF021C01BF020C02CF01FC02BF008
:101810009E0E1D6E1E6A73EF0BF01A6AAFEC0BF092
:10182000C7EC0BF01AB657EF0BF01AA205D01ABA94
:1018300057EF0BF05EEF0BF01ABA6AEF0BF01AA03D
:1018400005D01AB857EF0BF06AEF0BF01AB85EEF3D
:101850000BF01E6A7F0E23241D6EE86A1E2228509C
:101860001D5EE86A1E5A1A0E296E236A2B6A2C6ABC
:101870001B6A1C6A2550205E2650215A2750225A86
:10188000000E235A09E725502026265021222750F2
:101890002222000E232201D02B8AD8902036213616
:1018A00022362336D8902B362C361B361C36292E62
:1018B000E1D7225021102010D8A42B8A73EF0BF00F
:1018C0001A6AAFEC0BF01AB66AEF0CF01AA20ED03F
:1018D0001AB405D07F0E226EFF0E216E1FD0800E2F
:1018E000226E216A1BD0226A216A18D01AB0FBD757
:1018F0008F0E2360EDD77E0E2364F5D78E0E235C0A
:1019000005E0D89022322132232AF8D71AA406D033
:10191000216C221EE86A222222AEE5D712001A6A42
:10192000AFEC0BF01AB699EF0CF01AA20FD01AB464
:1019300007D07F0E226EFF0E216E206E1F6E25D007
:10194000800E226E01D0226A000EF6D71AB0FBD7A5
:101950001F6A9F0E2360EBD77E0E2364F4D79E0E82
:10196000235C07E0D8902232213220321F32232A12
:10197000F6D71AA40AD01F6C201E211E221EE86A68
:0C19800020222122222222AEDED71200FB
:04198C00D9CFE6FFCA
:10199000DACFE6FFE1CFD9FFE2CFDAFF220EE12472
:1019A00002E3E168E652E16ED950130FE66E000ED5
:1019B000DA20E66EA8DADBEC10F0006E060EE15CD1
:1019C00002E2E16AE552E16E0050E76E0E0EE7CFEB
:1019D000DBFFDB50840B0CE0210E0001FC6FFD6B84
:1019E0000F0EDB68100EDB68110EDB687F0E6ED009
:1019F0008ADA36DA020E1FC0DBFF030E20C0DBFFDF
:101A0000040E21C0DBFF050E22C0DBFF87DA256A4A
:101A1000100E266E490E276E460E14DAF9EC0AF007
:101A2000010A32E07BDA67DA0DDA0DEC0CF0BFD98F
:101A3000060EDBCF20F0070EDBCF21F0080EDBCF48
:101A400022F0090EDBCF23F08FEC0CF0F4EC0BF05E
:101A5000AED964DA060EDBCF08F0070EDBCF09F053
:101A6000080EDBCF0AF0090EDBCF0BF044DA286E4C
:101A700008C020F009C021F00AC022F00BC023F0FA
:101A800048DA41EC09F0C4D9F90EDB5012E00E0E31
:101A9000DB040BE1FA0EDBCF00F0FB0EDBCF01F035
:101AA000FC0EDBCF02F0FD0E52D167D9276AF8D9C0
:101AB00047D00E0EDB0419E10F0EDB6A100EDB6A55
:101AC000800EF36E110EF3CFDBFF3F0EF36E120E9E
:101AD000F3CFDBFF0F0EDBCF00F0100EDBCF01F0FA
:101AE000110EDBCF02F0120E32D1190EDB6A45D98E
:101AF000800E276ED5D9006A016A026A3F0E036E16
:101B0000D950060FE96E000EDA20EA6EEECF20F013
:101B1000EECF21F0EECF22F0EFCF23F000C025F082
:101B200001C026F002C027F003C028F041EC09F004
:101B300023C0EDFF22C0EDFF21C0EDFF20C0EFFF6D
:101B4000DF50010B0AE0190EDB5002E0000E01D05D
:101B5000010EE76E190EE7CFDBFF8CD9060EDBCF47
:101B60000CF0070EDBCF0DF0080EDBCF0EF0090EE8
:101B7000DBCF0FF0256A266A490E276E400E286ECD
:101B80000CC020F00DC021F00EC022F00FC023F0D9
:101B9000D8EC09F05CD9A6D995D941EC09F077D9F0
:101BA000060EDBCF14F0070EDBCF15F0080EDBCFEF
:101BB00016F0090EDBCF17F0220E256EAA0E266E48
:101BC0007D0E276E3A0E286E14C020F015C021F04D
:101BD00016C022F017C023F0D8EC09F020C010F096
:101BE00021C011F022C012F023C013F0EDD841EC57
:101BF00009F00A0E20C0DBFF0B0E21C0DBFF0C0E2C
:101C000022C0DBFF0D0E23C0DBFFD9500A0FE96EA7
:101C1000000EEAD825D91FC000F020C001F021C075
:101C200002F022C003F0256A266A800E276E390E64
:101C3000286E1FC020F04FD9F9EC0AF0010A13E119
:101C4000D9500A0FE96E000EDA20EA6E020EEECFCE
:101C5000DBFF030EEECFDBFF040EEECFDBFF050E46
:101C6000EECFDBFF68D0E1D80A0EDBCF25F00B0EFC
:101C7000DBCF26F00C0EDBCF27F00D0EDBCF28F0EC
:101C8000D8EC09F01A0E20C0DBFF1B0E21C0DBFFD1
:101C90001C0E22C0DBFF1D0E23C0DBFF5B0E206E7F
:101CA0009C0E216E2E0E226E360E236E72D8CFD869
:101CB000220E256EB20E266E4F0E276EB90E32D949
:101CC0009ED83E0E256E870E266E080E276E3C0EA1
:101CD00029D9DDD8A40E256EAA0E266E2A0E276EEF
:101CE000BE0E20D91E0E20C0DBFF1F0E21C0DBFF61
:101CF000200E22C0DBFF210E23C0DBFF0A0EDBCF4C
:101D000000F00B0EDBCF01F00C0EDBCF02F00D0E5E
:101D1000DBCF03F08AD81E0EDBCF25F01F0EDBCF02
:101D200026F0200EDBCF27F0210EDBCF28F0F1D8F4
:101D300042EC09F06DD8190EDB5008E09BD8256AFB
:101D4000266A800E276EBF0EF0D803D042D8DBCFB4
:101D500003F000C01FF001C020F002C021F003C05A
:101D600022F0220EE15C02E2E16AE552E16EE55208
:101D7000E5CFDAFFE7CFD9FF12007CD8830E256EBE
:101D8000F90E266EA20E276E3E0ECFD8256A266A61
:101D900012001A0EDBCF25F01B0EDBCF26F01C0E37
:101DA000DBCF27F01D0EDBCF28F0D8EF09F0060EB1
:101DB00020C0DBFF070E21C0DBFF080E22C0DBFFC7
:101DC000090E23C0DBFF12008DD800C020F06BEF9E
:101DD0000FF0020EDBCF00F0030EDBCF01F0040E9C
:101DE000DBCF02F0050E1200DA20EA6EEECFE6FF3E
:101DF000EECFE6FFEECFE6FFEFCFE6FF120020C00A
:101E000004F021C005F022C006F023C007F0120044
:101E1000020E20C0DBFF030E21C0DBFF040E22C038
:101E2000DBFF050E23C0DBFF12000A0EDBCF20F024
:101E30000B0EDBCF21F00C0EDBCF22F00D0EDBCF33
:101E400023F01200286E00C020F06BEF0FF020C0CE
:101E500008F021C009F022C00AF023C00BF01200E4
:101E6000F4EC11F0E552E552E552E5521200286E0D
:101E700042EF09F0020EDBCF04F0030EDBCF05F0DA
:101E8000040EDBCF06F0050EDBCF07F0120020C0FA
:101E900000F021C001F022C002F023C003F01200C4
:101EA0003F0EE5DF60EC0CF021C0DEFF22C0DDFF5D
:101EB000000EDFCF21F0010EDBCF22F0DFEC0BF0C4
:101EC000D7EF0EF004C020F005C021F006C022F0CC
:101ED00007C023F0120001C021F002C022F003C0AD
:101EE00023F0120020C025F021C026F022C027F0E8
:101EF00023C028F01200DB0E256E0F0E266EC90ED1
:101F0000276E400E1200D950FA0FE96EFF0EF4EF63
:101F10000EF0D8EC09F073DFE4EF0EF05ADFDBCF00
:101F200003F01200A4DFC9EF0EF0286ECBDFD8EC6F
:061F300009F047EF0FF07D
:0A1F3600FFFD01000000FE000100A5
:101F400001FF0102000200010300FF000104000183
:101F5000010105000002010600FF03010700FE0069
:101F6000010800FEFE010909FFFF010A0901010144
:101F70000B090202010C0900FD010D0D0300010E09
:101F80000D0003010F0DFD0001100D000000110DEB
:101F9000030301120D000000130D000000FFFF00FD
:101FA0000000FFFF00000000000000000000000033
:101FB0000000000000000000000000000000000021
:101FC0000000000000000000000000000000000011
:101FD0000000000000000000000000000000000001
:101FE00000000000000000000000000000000000F1
:101FF00000000000000000000000000000000000E1
:1020000000000000000000000000000000000000D0
:1020100000000000000000000000000000000000C0
:1020200000000000000000000000000000000000B0
:1020300000000000000000000000000000000000A0
:102040000000000000000000000000000000000090
:102050000000000000000000000000000000000080
:102060000000000000000000000000000000000070
:102070000000000000000000000000000000000060
:102080000000000000000000000000000000000050
:102090000000000000000000000000000000000040
:1020A0000000000000000000000000000000000030
:1020B0000000000000000000000000000000000020
:1020C0000000000000000000000000000000000010
:1020D0000000000000000000000000000000000000
:1020E00000000000000000000000000000000000F0
:1020F00000000000000000000000000000000000E0
:1021000000000000000000000000000000000000CF
:1021100000000000000000000000000000000000BF
:1021200000000000000000000000000000000000AF
:10213000000000000000000000000000000000009F
:10214000000000000000000000000000000000008F
:10215000000000000000000000000000000000007F
:10216000000000000000000000000000000000006F
:10217000000000000000000000000000000000005F
:10218000000000000000000000000000000000004F
:10219000000000000000000000000000000000003F
:1021A000000000000000000000000000000000002F
:0621B00000000000000029
:0A21B600D9CFE6FFDACFE6FFE1CF54
:1021C000D9FFE2CFDAFFE652006801687F0E026EA7
:1021D000036AD950FA0FE96EFF0EDA20EA6EEE506C
:1021E0000016EE500116EE500216EE5003166AD895
:1021F00000C0EEFF01C0EEFF02C0EEFF03C0EEFF25
:10220000FD0EDB50800B02E0010E01D0000EE66EE9
:1022100059D8060EE926000EEA22E552E750EF6E85
:10222000FC0EDBCF00F0FD0EDBCF01F0D8900036C6
:102230000136FC0E00C0DBFFFD0E01C0DBFFDB50F2
:10224000E66E40D8040EE926000EEA22E552E75079
:10225000EE6EED6AFD0EDB50006E016AFF0E001897
:1022600018E1015016E12ED8EECF00F0EECF01F0CC
:10227000EECF02F0EFCF03F0005001100210031078
:1022800006E0210E0001FC6FFD6B800E0BD0040EEA
:1022900009D0FD0EDB5008E115D8EE6AEE6AEE6A51
:1022A000EE6A010EDF6E06D0020EDF6E0BD8EE5224
:1022B000EE52EE8EDF50E552E552E5CFDAFFE7CF82
:1022C000D9FF1200F80EDBCFE9FFF90EDBCFEAFFF2
:0222D0001200FA
:0E22D2001E0EF66E000EF76E000EF86E000186
:1022E0000900F550F76F0900F550F86F03E1F76743
:1022F00001D03DD00900F550F26F0900F550F36FA1
:102300000900F550F46F09000900F550E96E090065
:10231000F550EA6E090009000900F550F56F090053
:10232000F550F66F09000900F6CFF9F0F7CFFAF093
:10233000F8CFFBF0F2C0F6FFF3C0F7FFF4C0F8FFF0
:102340000001F55302E1F65307E00900F550EE6E87
:10235000F507F8E2F607F9D7F9C0F6FFFAC0F7FF7C
:10236000FBC0F8FF0001F707000EF85BBFD71200B3
:10237000D9CFE6FFDACFE6FFE1CFD9FFE2CFDAFF30
:10238000BA6AA66AFD0EDBB0BA88DBA202D0BA8CAC
:10239000A68CDBB4BA8EDBA602D0A68801D0A68AB2
:1023A000DBA802D0BA8401D0BA94DBBAA686DBAC33
:1023B00002D0A38A01D0A39ADBAE02D0A38801D0B9
:1023C000A398FB0EDB507B6EFC0EDBCF01F001C04F
:1023D00000F0016A00507C6EBA8AA68EE552E5CF05
:0823E000DAFFE7CFD9FF12007C
:0823E800D9CFE6FFDACFE6FFD2
:1023F000E1CFD9FFE2CFDAFFE652E652D950FD0F26
:10240000006EFF0EDA2000C0DEFFDD6EDECFE9FFDA
:10241000DDCFEAFFEF9EFA0EDBCF00F0FB0EDBCF45
:1024200001F0FC0EDBCF02F0FD0EDBCF03F000C0AD
:102430001FF001C020F002C021F003C022F0E552DD
:0E244000E552E552E5CFDAFFE7CFD9FF1200F3
:02244E00D9CFE4
:10245000E6FFDACFE6FFE1CFD9FFE2CFDAFF010EE8
:10246000E66ED950FA0FE96EFF0EDA20EA6EEECF73
:10247000E6FFEECFE6FFEECFE6FFEFCFE6FFC6ECDE
:102480000CF0006E050EE15C02E2E16AE552E16EDD
:0E2490000050E552E5CFDAFFE7CFD9FF12008A
:02249E00D9CF94
:1024A000E6FFDACFE6FFE1CFD9FFE2CFDAFFE66A57
:1024B000D950FA0FE96EFF0EDA20EA6EEECFE6FF92
:1024C000EECFE6FFEECFE6FFEFCFE6FFC6EC0CF077
:1024D000006E050EE15C02E2E16AE552E16E005039
:0C24E000E552E5CFDAFFE7CFD9FF12008C
:0424EC001E6A1D6ADD
:1024F0001C6A1B6A200EE76ED8901F3620362136E4
:1025000022361B361C361D361E3624501B5C2550C9
:102510001C5826501D5827501E5809E324501B5E96
:1025200025501C5A26501D5A27501E5A1F2AE72E86
:04253000E4D71200DA
:0C253400FB0EE3CFF6FFFC0EE3CFF7FF39
:10254000FD0EE3CFF8FFFE0EE3CFE9FFFF0EE3CF72
:10255000EAFFE9CFF3FFEACFF4FFF90EE35003E11E
:10256000FA0EE35009E0F90EE30602E2FA0EE30682
:0A2570000900F5CFEEFFF1D71200CD
:06257A00D9CFE6FFDACF25
:10258000E6FFE1CFD9FFE2CFDAFFE652E652FC0EDA
:10259000DBCFDEFFDBCFDDFF010EDB50D76EDF5080
:1025A000D66EE552E552E552E5CFDAFFE7CFD9FF27
:0225B000120017
:0E25B200D9CFE6FFDACFE6FFE1CFD9FFE2CFC7
:1025C000DAFFFD0EDB507F0BD56ED76AD66AF29428
:1025D000FD0EDBAE02D0F28A01D0F29AD58EE55222
:0A25E000E5CFDAFFE7CFD9FF1200C4
:0625EA00D9CFE6FFDACFB5
:1025F000E6FFE1CFD9FFE2CFDAFFFD0EDB50FB0BA8
:10260000CA6ECC6A9E92FD0EDBAE02D09D8201D0D6
:102610009D92CA84E552E5CFDAFFE7CFD9FF1200D9
:10262000410EF36E00EE00F00E0E01D81200EA60CB
:1026300002D0EE6AFCD7F350E9601200EE6AFCD7D4
:102640001DEE00F02DEE00F0F86A1A9C69EC11F016
:0C26500003EC00F02DEC05F0FBD71200AD
:04265C00000000FF7B
:10266000FF0000000000000000000000000000006B
:10267000000000000000000000000000000000005A
:10268000000000000000000000000000000000004A
:10269000000000000000000000000000000000003A
:1026A000000000000000000000000000000000002A
:0A28E000006E736173706F6F6B0080
:0628EA00010000000000E7
:1028F000000000008508000000000000000000004B
:0A29000000000000000066B6F44479
:020000040030CA
:0100000015EA
:0100010018E6
:010002007F7E
:0100030028D4
:0100050008F2
:010006009168
:010008000FE8
:01000900C036
:01000A000FE6
:01000B00E014
:01000C000FE4
:01000D0040B2
:00000001FF
