:020000040000FA
:060000005FEF16F0120094
:020006001200E6
:0600080094EF00F012006D
:060018001CEF00F01200D5
:02001E000200DE
:10002000682F0000CE0000001D000000DA2C000048
:08003000000600008E02000032
:08003800DACFE4FFE9CFE4FF99
:10004000EACFE4FFF3CFE4FFF4CFE4FFE6529EA251
:1000500064D09E92B80ECC6E8A688B6AA9EC09F0C7
:1000600027EC09F0EF5011E1D65132EC08F029EC01
:1000700009F0EF50FF0808E056EC09F004E6800EA6
:10008000345C000E3558EAE3D66BD65132EC08F0FA
:10009000EFCF34F0343431E2D65132EC08F0EE5286
:1000A000EFCF35F0353429E2010E0001A16FA26BCC
:1000B000A36FA46BA9EC09F0EF5006E00001D89003
:1000C000A137A237E804FBE1A9EC09F0EE52EF50AA
:1000D00006E00001D890A337A437E804FBE1A9ECBF
:1000E00009F027EC09F0EF5006E00001A11D8A6E2F
:1000F000A3C08BFF02D08A688B6AA9EC09F029ECB7
:1001000009F0EF50FF0808E056EC09F004E6800E15
:10011000345C000E355801E3D66BE552E5CFF4FFB1
:10012000E5CFF3FF4FEF09F0DACFE4FFE2CFDAFFDC
:10013000E9CFE4FFEACFE4FFF6CFE4FFF7CFE4FF37
:10014000F8CFE4FFF5CFE4FFF3CFE4FFF4CFE4FF13
:10015000FACFE4FFFBCFE4FF00EE20F0140EE8043A
:1001600003E3EECFE4FFFBD700EE00F0200EE8043F
:1001700003E3EECFE4FFFBD7E652A350100B1FE0E2
:10018000A450100B1CE00001DB51DD19E8AE02D0D9
:10019000DD3504D0DC51DA5DDD51DB5905E3BAA26F
:1001A0000ED0A398D26B0BD0D8C0E9FFD9C0EAFF1C
:1001B000EF50796EDA2B000EDB23D82BD923A4AABB
:1001C00013D0A6A202D0A698A6887ACFA7F0A7C07F
:1001D00085F80001850ED86F080ED96FDA6BDB6BDE
:1001E000010EDC6FDD6BA388F2A42DD0F2940F0119
:1001F00055B313D08D8054910001D06B010ED16F97
:100200008D82D3511F0BF36EF346F346830EC21457
:10021000F310C26EC280C28216D08D905593000139
:10022000010ED06FD16FDAEC09F0810EE926000ED5
:10023000EA22EECFE6FFEFCFE6FFFCEC15F0E55249
:10024000E5520F0154819EAC54D09E9C8D92C3CF39
:10025000A5F0C4CFA6F0A5C036F0A6C037F0040EB6
:10026000D89037323632E804FBE136C0A5F037C00B
:10027000A6F0DCEC08F000013650A55D3750A65919
:1002800011E20001D35103E1010ED46FD56BD30508
:1002900002E1D46BD56B8D84780EADEC09F0010EC4
:1002A000EF6E12D0DCEC08F0080E3626000E372276
:1002B0000001A551365CA651375806E28D94780EA0
:1002C0000001ADEC09F0EF6AA6C0B3FFA5C0B2FF14
:1002D0000001010ECF6FD16B0F01558F54915493D4
:1002E0005583280EE66EA00EE66EFCEC15F0E55286
:1002F000E552E55200EE1FF0200EE80403E3E5CFDF
:10030000EDFFFBD700EE33F0140EE80403E3E5CF76
:10031000EDFFFBD7E5CFFBFFE5CFFAFFE5CFF4FF1D
:10032000E5CFF3FFE5CFF5FFE5CFF8FFE5CFF7FF2A
:10033000E5CFF6FF4FEF09F0D9CFE6FFE1CFD9FFC8
:10034000060EE126DE6ADE6ADE6ADD6ADD52DD5215
:10035000FE0EDBCFE6FF87D8E5520001CF6B000130
:10036000CF5102E10400FBD7040EDB6A050EDB6A05
:10037000040EDBCF00F0050EDBCF01F0D89001506A
:1003800004E6080E005C000E015824E20001CF6B69
:100390000001CF5102E10400FBD7E66AFE0EDBCF7D
:1003A000E6FFDDD8E552E552F3CF00F0F4CF01F0DF
:1003B000026A036A0050DE260150DE220250DE226D
:1003C0000350DD22DD52DD52040EDB2A050E01E36F
:1003D000DB2ACED7DFCF00F0010EDBCF01F0026ABF
:1003E000036A080E2B6E2C6A2D6A2E6A00C026F056
:1003F00001C027F002C028F003C029F026EC0BF062
:1004000026C000F027C001F028C002F029C003F088
:10041000FE0EEA6ADB34FE0BEA36E96E610EE9266F
:10042000000EEA2200C0EEFF01C0EDFFFE0EEA6AF8
:10043000DB34FE0BEA36E96E610EE926000EEA2295
:10044000EECF00F0EFCF01F000C0F3FF01C0F4FFEA
:1004500000D0060EE15C02E2E16AE552E16EE5528F
:10046000E7CFD9FF1200D9CFE6FFE1CFD9FFFE0ECB
:10047000DB50030801E211D00001D15102E0040079
:10048000FBD7F29EFE0EDBCFD3F00001CF6BF28ED6
:100490000001CF5102E10400FBD7E552E7CFD9FFBD
:1004A0001200A4EC09F00F01556B900E546F010E71
:1004B000536FFE0EDB500E0A17E0030A0FE0010A2D
:1004C00007E0070A18E18CEC08F0EE6AFA0E11D08A
:1004D0008CEC08F0670EEE6EF00E0BD08CEC08F092
:1004E000E80EEE6EFD0E05D08CEC08F04F0EEE6EB1
:1004F000F40EED6E07D08CEC08F0780EEE6EED6821
:100500007D0E536FFE0EDB50020807E1020E536FA3
:100510008CEC08F0780EEE6EED685D819280C08EF6
:10052000C70EC0143809C06EF80EC0140609C06E9C
:10053000CF0EC1143009C16EC196F80EC114000966
:10054000C16E830EC2140009C26EC2809D8CB19030
:10055000B182B36AB26AF36AF46AC8EF08F0A4EC35
:1005600009F00001CF513EE0B2CFA8F0B3CFA9F01F
:100570003F0E0001A815A86FA96BFD0EDB5005E129
:10058000A8C0F3FFA9C0F4FF31D00DEC09F0EECF05
:1005900000F0EFCF01F00050A85D0150A9590EE224
:1005A0000DEC09F0A851EE5C0001DE6F0001A951CD
:1005B000EE5800011F0EDE15DE6FDF6B0001E25109
:1005C000E31107E1FD0EDB5004E0DEC0E2F0DFC026
:1005D000E3F0DEC0E0F0DFC0E1F0DEC0F3FFDFC03B
:1005E000F4FF04D0E0C0F3FFE1C0F4FFC8EF08F06F
:1005F0005DEC09F0800EE66E020EE66E8A0EE66E87
:10060000230EE66E000EE66E000EE66E060EE66E39
:10061000D9EC15F0006E070EE15E0050020EE15CB1
:1006200002E2E16AE552E16EC8EF08F05DEC09F024
:10063000FD0EDB5005E00001E46B8EEC09F0ABD061
:100640000001E66B050EE66EE66A8A0E036E230E67
:10065000046E000E056EFE0EDB500001E625066EF0
:10066000076A086A050E2C6E2D6A2E6A06C027F0EE
:1006700007C028F008C029F05AEC0BF024C006F09F
:1006800025C007F026C008F003502424F36E045060
:100690002520F46E055061EC09F0F6CF00F0F7CF9D
:1006A00001F0F8CF02F000C0E6FF01C0E6FF02C093
:1006B000E6FF0001E451E62532EC08F0E9CF09F04D
:1006C000EACF0AF0E9CFE6FFEACFE6FFD9EC15F072
:1006D0000B6E070EE15E0B508A0E016E230E026E4A
:1006E000000E036E0001E62BFE0EDB50E625046EC5
:1006F000056A066A050E2C6E2D6A2E6AE1EC09F079
:100700005AEC0BF001502424F36E02502520F46EB5
:10071000035061EC09F0040EF626000EF722F822D1
:100720000800F5CF00F0FE0EDB50005C8BE000010E
:10073000E451DE6EDD6ADECF00F0DDCF01F0E45182
:10074000E625000101AE02D0D89003D0005C000E77
:1007500001581AE20001E451026E036ADE500224DD
:10076000006EDD500320E8EC09F029EC09F000C030
:10077000EFFFE8EC09F007EC0AF0E4C0EFFFDF2A36
:10078000010ED9E3DB2AD7D70001E651E4278EEC2E
:1007900009F0E651E45D006E020EE15C02E2E16AFE
:1007A000E552E16E0050C8EF08F023EC09F0006E4E
:1007B000016AD890015002E62BEC09F007E2F8EC50
:1007C00009F027EC09F0FD0EDBCFEFFFC8EF08F0D2
:1007D000A4EC09F0FA0EDBCF00F0FB0EDBCF01F04A
:1007E000FC0EDBCF02F0FD0EDBCF03F0E7C02CF0F8
:1007F000E8C02DF0E9C02EF0EAC02FF0F4EC09F0CB
:10080000CAEC0BF0010A40E0290E276E5C0E286E40
:100810008F0E296E3C0E2A6EEBEC08F027C0AAF072
:1008200028C0ABF029C0ACF02AC0ADF0F9EC08F05C
:100830008EEC15F008EC09F026C0C2F027C0C3F01A
:1008400028C0C4F029C0C5F0AAC0E6FFABC0E6FFCF
:10085000ACC0E6FFADC0E6FF66EC15F008EC09F0B1
:1008600026C0BEF027C0BFF028C0C0F029C0C1F02C
:10087000FA0EDBCFE7F0FB0EDBCFE8F0FC0EDBCFB0
:10088000E9F0FD0EDBCFEAF0F8EC09F002EC09F03C
:1008900027C0AEF028C0AFF029C0B0F02AC0B1F038
:1008A000D0EC09F027C0B2F028C0B3F029C0B4F0F2
:1008B0002AC0B5F0F90EDB5036E05EEC08F0B5EC7E
:1008C00009F0DADBBEEC09F0AEEC08F022EC0AF03D
:1008D000D3EC08F0F50EDBCF1CF0F60EDBCF1DF0ED
:1008E000F70EDBCF1EF0F80E18EC09F023EC0AF03F
:1008F00034EC09F0E3DBBEEC09F0BEDBB5EC09F04B
:10090000AEEC08F023EC0AF0D3EC08F0F10EDBCFEC
:100910001CF0F20EDBCF1DF0F30EDBCF1EF0F40E59
:1009200018EC09F016D03DEC09F002EC0AF046ECA8
:1009300009F0BDEC08F0F4EC09F022EC0AF034EC1C
:1009400009F046EC09F002EC0AF03DEC09F0BDECD0
:1009500008F0F4EC09F023EC0AF027C0BAF028C044
:10096000BBF029C0BCF02AC0BDF0B6C0E6FFB7C0DE
:10097000E6FFB8C0E6FFB9C0E6FF68EC09F0E55253
:10098000E750EF6EBAC0E6FFBBC0E6FFBCC0E6FFB3
:10099000BDC0E6FFFCEF09F023EC09F063DBFD0EC0
:1009A000DB50EF26F8EC09F0EE52FC0EDB50EF26A0
:1009B000EFD323EC09F056DB02EC09F027C0C6F0B8
:1009C00028C0C7F029C0C8F02AC0C9F0D0EC09F08F
:1009D00027C0CAF028C0CBF029C0CCF02AC0CDF087
:1009E000C6C027F0C7C028F0C8C029F0C9C02AF087
:1009F000F2DB7CEC09F0F9EC08F068EC09F0E55268
:100A0000E750EF6ECAC027F0CBC028F0CCC029F069
:100A1000CDC02AF0F60EDBCF2CF0F70EDBCF2DF099
:100A2000F80EDBCF2EF0F90EDBCF2FF009EC0AF039
:100A3000E0DBFCEF09F089DB02E62BEC09F019E2C0
:100A4000DF6A100EDF5C15E2A0EC09F012E1D9506C
:100A5000F10F55DBD950F50F52DBF90EDBCFE6FF76
:100A6000D4EC09F0B5DE006E0E0EE15E0050DF2A18
:100A7000E8D7E5528DD369DB01E6EDDB12E2DF6AF0
:100A8000100EDF5C0EE2A0EC09F00BE1FC0EDBCFF8
:100A9000E6FFEEEC09F080DFE552E552E552DF2A91
:100AA000EFD7E55275D351DB01E6D5DB13E2DF6A00
:100AB000100EDF5C0FE2A0EC09F00CE1D950F60F4C
:100AC0001EDBD4EC09F075DF006E090EE15E00500C
:100AD000DF2AEED7E5525CD338DB01E6BCDB0EE261
:100AE000DF6A100EDF5C0AE2A0EC09F007E1EEEC31
:100AF00009F05BDEE552E552DF2AF3D7E55248D331
:100B0000D9CFE6FFE1CFD9FF180EE126DE6ADD6A14
:100B1000010EF36E020EF3CFDBFF010EF36E030E38
:100B2000F3CFDBFF060EDB6A070EDB6A080EDB6A1B
:100B3000090EDB6A1E0EF36E0A0EF3CFDBFF0B0EFF
:100B4000DB6A0C0EDB6A0D0EDB6A100EDB6A110E1F
:100B5000DB6A120EDB6A130EDB6A140EDB6A150EFB
:100B6000DB6A800EF36E160EF3CFDBFF3F0EF36EE3
:100B7000170EF3CFDBFF3CDD0F0E926E896A0F017B
:100B80000F0E5D6F0F015C6B936A8A68946A8B68C5
:100B9000956A8C6A966A8D6A700ED36EC00E9B6ED3
:100BA000906A9F0EE66E18EC16F0E552280EE66E7F
:100BB000A00EE66EFCEC15F0E552E552FD0EE66E79
:100BC00034EC16F0E5529F92B80ECC6E670EE66ECE
:100BD000E66AEC0EE66EF7EC14F0E552E552E552EB
:100BE000D08EF28EF28C0001606BE66A0D0EE66E1E
:100BF00058DCE552E552010EE66E0D0EE66E51DC54
:100C0000E552E552020EE66E0D0EE66E4ADCE55246
:100C1000E552030EE66E0D0EE66E43DCE552E5523C
:100C2000E66A9CEC01F0E552F3CFDEFFF4CFDDFF86
:100C3000010EE66E9CEC01F0E552F3CFDEFFF4CF3F
:100C4000DDFF020EE66E9CEC01F0E552F3CFDEFF15
:100C5000F4CFDDFF030EE66E9CEC01F0E552F3CF1E
:100C6000DEFFF4CFDDFF0001606B0001605103087F
:100C700001E2EDD160C0E6FF33EC02F0E552000185
:100C800060510AE1E66A60C0E6FF69DCE552E552C0
:100C9000040EF3CFDBFF06D0E66A60C0E6FF5FDC40
:100CA000E552E5520400D950060FE96EDACFEAFFAB
:100CB000EF2AEECF00F0000EEF22EECF01F0EF2290
:100CC000EECF02F0EF22EFCF03F0D9500A0FE96E1A
:100CD000DACFEAFFEE50005CEE500158EE500258B9
:100CE000EE50035801E2B0D1F29C0001D451D5116D
:100CF00067E11E0EF36E0A0EF3CFDBFF0B0EDB6A0D
:100D00000C0EDB6A0D0EDB6A010EE66EE66A8EDC07
:100D1000E552E552E66AE66A89DCE552E552E76E9D
:100D20000E0EE7CFDBFFD950140FE96EDACFEAFFE2
:100D3000EECFE6FFEECFE6FFEECFE6FFEFCFE6FF2A
:100D4000D950140FE96EDACFEAFFEECFE6FFEECF0F
:100D5000E6FFEECFE6FFEFCFE6FF0E0EDBCFE6FFBE
:100D6000A2DE006E090EE15E0050E66AE66AE66AFF
:100D7000E66AE66AE66AE66AE66A010EE66ED95057
:100D8000100FE96EDACFEAFFEECFE6FFEECFE6FF17
:100D9000EECFE6FFEFCFE6FF0E0EDBCFE6FF4BDE3A
:100DA000006E0E0EE15E0050030EE66E030EE66E60
:100DB0000E0EDBCFE6FF5FDEE552E552E5529BD03B
:100DC0003C0EF36E0A0EF3CFDBFF0B0EDB6A0C0E4C
:100DD000DB6A0D0EDB6A0CDCE66AE66AE66AE66A46
:100DE000E66AE66A400EE66E400EE66E010EE66EBC
:100DF000046A056AB40E066E430E076E100EDBCF52
:100E000008F0110EDBCF09F0120EDBCF0AF0130E43
:100E1000DBCF0BF008C02CF009C02DF00AC02EF07B
:100E20000BC02FF004C027F005C028F006C029F041
:100E300007C02AF022EC0AF027C000F028C001F019
:100E400029C002F02AC003F000C0E6FF01C0E6FF9F
:100E500002C0E6FF03C0E6FFE66AEDDD0C6E0E0E93
:100E6000E15E0C50E66AE66AE00EE66E400EE66E63
:100E7000E66AE66A400EE66E400EE66E010EE66E2B
:100E8000046A056AB40E066E430E076E100EDBCFC1
:100E900008F0110EDBCF09F0120EDBCF0AF0130EB3
:100EA000DBCF0BF008C02CF009C02DF00AC02EF0EB
:100EB0000BC02FF004C027F005C028F006C029F0B1
:100EC00007C02AF022EC0AF027C000F028C001F089
:100ED00029C002F02AC003F000C0E6FF01C0E6FF0F
:100EE00002C0E6FF03C0E6FF0D0EE66EA4DD0C6E49
:100EF0000E0EE15E0C50F28C006A016A400E026E2A
:100F0000410E036ED950100FE96EDACFEAFFEECF33
:100F100027F0EECF28F0EECF29F0EFCF2AF000C077
:100F20002CF001C02DF002C02EF003C02FF023ECF6
:100F30000AF02AC0EDFF29C0EDFF28C0EDFF27C051
:100F4000EFFF100EDBCF00F0110EDBCF01F0120E21
:100F5000DBCF02F0130EDBCF03F02C6A2D6AB40E48
:100F60002E6E430E2F6E00C027F001C028F002C085
:100F700029F003C02AF0D1EC0BF0010A5DE1100E5C
:100F8000DB6A110EDB6A120EDB6A130EDB6ACD0E12
:100F9000006ECC0E016ECC0E026E3D0E036ED9506B
:100FA000140FE96EDACFEAFFEECF27F0EECF28F08C
:100FB000EECF29F0EFCF2AF000C02CF001C02DF0C9
:100FC00002C02EF003C02FF022EC0AF02AC0EDFF81
:100FD00029C0EDFF28C0EDFF27C0EFFF140EDBCFC7
:100FE00000F0150EDBCF01F0160EDBCF02F0170E6E
:100FF000DBCF03F0CD0E2C6ECC0E2D6ECC0E2E6EF4
:101000003D0E2F6E00C027F001C028F002C029F06D
:1010100003C02AF0DAEC0BF0010A0EE1140EDB6AD1
:10102000150EDB6A800EF36E160EF3CFDBFF3F0E5C
:10103000F36E170EF3CFDBFF060EDB6A070EDB6ADB
:10104000080EDB6A090EDB6A0001602B0ED60BD698
:10105000180EE15C02E2E16AE552E16EE552E7CF8B
:10106000D9FF1200050DF3CFE9FFF4CFEAFF000E20
:10107000E926060EEA221200CCD9F10EDBCF18F0D9
:10108000F20EDBCF19F0F30EDBCF1AF0F40EDBCF4C
:101090001BF018C02CF019C02DF01AC02EF01BC088
:1010A0002FF075D922EC0AF027C014F028C015F0F3
:1010B00029C016F02AC017F085EF09F0F50EDBCF36
:1010C0000CF0F60EDBCF0DF0F70EDBCF0EF0F80EC6
:1010D000DBCF0FF00CC02CF00DC02DF00EC02EF0A9
:1010E0000FC02FF024D922EC0AF027C008F028C046
:1010F00009F029C00AF02AC00BF085EF09F0E96E6B
:10110000FF0EDA20EA6EEECFE6FFEECFE6FFEECF7F
:10111000E6FFEFCFE6FF1200FD0EEA6ADB34FE0BBE
:10112000EA36E96E810EE926000EEA221200050E6B
:10113000EA02F3CFEAFFE902F3CFE9FFF450EA262F
:10114000000EE926060EEA221200FED8E652FE0E36
:10115000DB50006E016AD89001501200B9EC0AF021
:1011600027C010F028C011F029C012F02AC013F0D7
:10117000CCD827D907C02AF0120009D94AD985EF5F
:1011800009F001C028F002C029F003C02AF01200C3
:10119000E552E7CFD9FF12003AD9EFCF00F0FE0EAB
:1011A000DB50005C120027C000F028C001F029C00D
:1011B00002F02AC003F012000001FCD8610EE926FB
:1011C000000EEA22EECF36F0EFCF37F0200E365E7B
:1011D000000E375A1200FA0EDBCF2CF0FB0EDBCFDD
:1011E0002DF0FC0EDBCF2EF0FD0EDBCF2FF0B9EF94
:1011F0000AF027C0E6FF28C0E6FF29C0E6FF2AC0A4
:10120000E6FF1200EFCF00F000C029F013EF0AF064
:10121000E552E552E552E5521200FE0EEA6ADB3471
:10122000FE0BEA36E96E610EE926000EEA22120094
:10123000DBCF1FF01CC02CF01DC02DF01EC02EF007
:101240001FC02FF0120080D8FE0EDB501200020EDD
:10125000E4D0030EE2D0800E005C000E01581200B4
:10126000FE0EDB50DF24120027C0B6F028C0B7F016
:1012700029C0B8F02AC0B9F01200C2C02CF0C3C017
:101280002DF0C4C02EF0C5C02FF01200BEC02CF04F
:10129000BFC02DF0C0C02EF0C1C02FF01200E5CFAE
:1012A000EAFFE5CFE9FFE5CFDAFF1100D62BD651F3
:1012B000346E356AD8903550120046D8020EE126B9
:1012C00012002620F86EF4CFF7FFF3CFF6FF1200DE
:1012D00020EC14F09DDF26C000F027C001F028C0EC
:1012E00002F029C003F026C027F04BDFA3EC0BF07F
:1012F0002950E66EF8EF09F027C004F028C005F089
:1013000029C006F02AC007F0120027C02CF028C020
:101310002DF029C02EF02AC02FF01200E451A2DED9
:1013200098DFEF68E4519EDE72D8EF681200AEC01D
:1013300027F0AFC028F0B0C029F0B1C02AF01200E9
:101340008FDF90DECCEF08F0D9CFE6FFE1CFD9FFF9
:1013500012000001D65132EF08F0D325E96EEA6A97
:10136000000EEA22E4DE27EF09F0C2C027F0C3C076
:1013700028F0C4C029F0C5C02AF01200BEC027F072
:10138000BFC028F0C0C029F0C1C02AF01200B2C00E
:1013900027F0B3C028F0B4C029F0B5C02AF012007D
:1013A00027D8EE5202EF09F0D950FA0FA8DE58DF25
:1013B000E66E1200D351E96EEA6AD890E936EA3651
:1013C000120004C027F005C028F006C029F0120062
:1013D000DECFE9FFDDCFEAFF97EF08F0FD0EDBCFB0
:1013E000E6FF3EDFE66E120000C027F0C1EF08F016
:1013F000FE0EDB5032EF08F06BDFEE52E552E750A5
:10140000EF6EC6D694DFB9EC0AF0D3EF08F0040E05
:1014100004D0B9EC0AF07CEF09F0E926000EEA22CC
:021420001200B8
:0E142200219E05D0219E29AE02D0296C218E7C
:1014300029C023F0226A336A326A860E246E256A36
:1014400054EF0CF02F7E216A90EC0CF0A8EC0CF01D
:1014500021B638EF0CF021A20AD021AA03D021BE78
:1014600038EF0CF021A444EF0CF041EF0CF021AA6E
:1014700005D021AC44EF0CF041EF0CF021A00AD0D4
:1014800021A808D021BE04D021A402D04DEF0CF039
:1014900051EF0CF0326A256A2F502A5C316E10E34E
:1014A00027C033F028C022F029C023F02AC030F032
:1014B0002CC027F02DC028F02EC029F0213A09D0E9
:1014C0002CC033F02DC022F02EC023F02FC030F0FE
:1014D000316C219E21BC218E30C024F021B080EFE0
:1014E0000CF01A0E316080EF0CF0246A2A6A21A4F5
:1014F00008D0276C281E291E2A1EE86A28222922C5
:101500002A2221AC08D0336C221E231E241EE86A36
:10151000222223222422266A315207E02A34293249
:10152000283227322632312EF9D727503326285039
:101530002222295023222A50242226C032F0219E22
:1015400024AE0BD0326C331E221E231E241EE86AEA
:101550003322222223222422218E24A006D0D880C6
:101560002332223233323232302A30C024F054EF68
:101570000CF0216A90EC0CF0A8EC0CF021B638EFDE
:101580000CF021A205D021B838EF0CF03FEF0CF0A1
:1015900021AA05D021B038EF0CF03FEF0CF021B0BC
:1015A00002D021A802D04BEF0CF0256A2F502A243C
:1015B000246EE86A25227E0E245EE86A255A326A85
:1015C000336A226A236A2E502902F4CF23F0F3CF24
:1015D00022F02D502902F3503326F4502222000E1F
:1015E00023222E502802F3503326F4502222000EDC
:1015F00023222C502902F3503226F4503322000EBD
:10160000222223222D502802F3503226F450332276
:10161000000E222223222E502702F3503226F450AD
:101620003322000E222223222C502802F45032268C
:10163000000E3322222223222D502702F45032267C
:10164000000E33222222232254EF0CF0206AE86A93
:101650002EAE33EF0BF02B6C2C1E2D1E2E1E2C22CB
:101660002D222E22201E29AE3EEF0BF0266C271EC7
:10167000281E291E272228222922201EB5EC15F01B
:1016800029BE55EF0BF020AE000C266C271E281E3D
:10169000291EE86A272228222922226C231E241EC2
:1016A000251E232224222522000C20BE45EF0BF00C
:1016B0002188FF0C29C033F028C032F027C031F058
:1016C00027502C02F4CF25F0F3CF24F028502D0220
:1016D000F4CF27F0F3CF26F02C02F3502526F45058
:1016E0002622E86A272231502D02F3502526F45095
:1016F0002622E86A272229502C02F3502626F4508D
:10170000272229502D02286AE86A2822F35027262A
:10171000F450282231502E02F3502626F45027226E
:10172000296AE86A2822292232502E02F3502726FD
:10173000F4502822E86A292233502E02F35028263A
:10174000F4502922000C216A90EC0CF021B6ADEF88
:101750000BF021A20AD021B403D07F0E296E19D03C
:10176000800E296E16D0296A14D021B0FCD7870EBE
:101770002A60F1D77E0E2A64F6D7860E2A5C04E032
:10178000D89029322A2AF9D721A403D0296C29AE6E
:10179000EAD71200E3EC0BF021B6000C21B0010CEB
:1017A000000CE3EC0BF021B6000C21B0000C21B4CE
:1017B000000C010CE3EC0BF021B6000C21B0000C86
:1017C00021A4000C010C216A90EC0CF0A8EC0CF0A8
:1017D00021B6120021AE08D021A004D021A802D049
:1017E00021801200219012002F502A5C0BE12E5014
:1017F000295C08E12D50285C05E12C50275C02E1B2
:1018000021801200D8A002D0218E10D02A502FC0E3
:101810002AF02F6E29502EC029F02E6E28502DC090
:1018200028F02D6E27502CC027F02C6E2F502A5CEC
:1018300010E0FF0F09E0219021B403D021AE2184F4
:10184000120021AE219412002F2AD8902E322D3270
:101850002C322C50275E2D50285A2E50295A29BE42
:10186000EAD7D8902736283629362A2EF8D7C8D76F
:101870007F0E2A6EFF0E296E286E276E12007F0ED5
:1018800021BEFF0E2A6E02D07F0E2A6E800E296EB8
:10189000286A276AF3D721AE04D0800E2A6E296AFF
:1018A000F7D72A6A296AF4D723502210331032104E
:1018B000F8E025BEF0D723BE0CD024502510EBE075
:1018C000D89032363336223623362406D8A0250661
:1018D000F2D72550D4E12428D2E032AE11D07F0EC9
:1018E000321402E133A00CD0332AE86A22222322E8
:1018F00007E3D880233222323332242A2428BFE05F
:101900002450C9E033C027F022C028F02334296EC8
:1019100024302A6E29322A9E21BE2A8E3EEF0CF0F8
:1019200029362A3602E32184217E06E121802A6AB3
:10193000296A286A276A12002A2803E0D8802932F7
:101940001200D890293202E1218212002186120071
:101950002E362F3602E3218C217E06E121882F6A64
:101960002E6A2D6A2C6A12002F2803E0D8802E32AE
:101970001200D8902E32EAE1218A1200219E08D06E
:10198000219E29AE05D0286C291EE86A2922218EC5
:1019900029C023F028C022F0336A326A8E0E246EEA
:1019A000256A54EF0CF0219E0CD0219E29AE09D05F
:1019B000266C271E281E291EE86A27222822292293
:1019C000218E29C023F028C022F027C033F026C082
:1019D00032F09E0E246E256A54EF0CF0216A90ECD2
:1019E0000CF0A8EC0CF021B638EF0CF021A205D0D9
:1019F00021BA38EF0CF03FEF0CF021BA4BEF0CF0AE
:101A000021A005D021B838EF0CF04BEF0CF021B835
:101A10003FEF0CF0256A7F0E2A24246EE86A252207
:101A20002F50245EE86A255A1A0E306E2A6A326AEE
:101A3000336A226A236A2C50275E2D50285A2E5072
:101A4000295A000E2A5A09E72C5027262D50282201
:101A50002E502922000E2A2201D0328AD890273611
:101A6000283629362A36D89032363336223623366F
:101A7000302EE1D7295028102710D8A4328A54EFED
:101A80000CF0216A90EC0CF021B64BEF0DF021A286
:101A90000ED021B405D07F0E296EFF0E286E1FD008
:101AA000800E296E286A1BD0296A286A18D021B0B6
:101AB000FBD78F0E2A60EDD77E0E2A64F5D78E0EE7
:101AC0002A5C05E0D890293228322A2AF8D721A4A6
:101AD00006D0286C291EE86A292229AEE5D7120013
:101AE000216A90EC0CF021B67AEF0DF021A20FD014
:101AF00021B407D07F0E296EFF0E286E276E266E4A
:101B000025D0800E296E01D0296A000EF6D721B0AB
:101B1000FBD7266A9F0E2A60EBD77E0E2A64F4D785
:101B20009E0E2A5C07E0D8902932283227322632CE
:101B30002A2AF6D721A40AD0266C271E281E291E81
:0E1B4000E86A27222822292229AEDED71200C9
:021B4E00D9CFED
:101B5000E6FFDACFE6FFE1CFD9FFE2CFDAFF220ED0
:101B6000E12402E3E168E652E16ED950130FE66E1C
:101B7000000EDA20E66EA8DA05EC13F0006E060E11
:101B8000E15C02E2E16AE552E16E0050E76E0E0EA2
:101B9000E7CFDBFFDB50840B0CE0210E0001F56F7B
:101BA000F66B0F0EDB68100EDB68110EDB687F0E24
:101BB0006ED08ADA36DA020E26C0DBFF030E27C0AB
:101BC000DBFF040E28C0DBFF050E29C0DBFF87DA30
:101BD0002C6A100E2D6E490E2E6E460E14DADAECBB
:101BE0000BF0010A32E07BDA67DA0DDAEEEC0CF08A
:101BF000BFD9060EDBCF27F0070EDBCF28F0080E8B
:101C0000DBCF29F0090EDBCF2AF070EC0DF0D5EC1C
:101C10000CF0AED964DA060EDBCF08F0070EDBCF8E
:101C200009F0080EDBCF0AF0090EDBCF0BF044DA27
:101C30002F6E08C027F009C028F00AC029F00BC099
:101C40002AF048DA22EC0AF0C4D9F90EDB5012E08F
:101C50000E0EDB040BE1FA0EDBCF00F0FB0EDBCF48
:101C600001F0FC0EDBCF02F0FD0E52D167D92E6AD7
:101C7000F8D947D00E0EDB0419E10F0EDB6A100E07
:101C8000DB6A800EF36E110EF3CFDBFF3F0EF36EB7
:101C9000120EF3CFDBFF0F0EDBCF00F0100EDBCF09
:101CA00001F0110EDBCF02F0120E32D1190EDB6AF9
:101CB00045D9800E2E6ED5D9006A016A026A3F0EA0
:101CC000036ED950060FE96E000EDA20EA6EEECFF1
:101CD00027F0EECF28F0EECF29F0EFCF2AF000C0AA
:101CE0002CF001C02DF002C02EF003C02FF022EC2A
:101CF0000AF02AC0EDFF29C0EDFF28C0EDFF27C084
:101D0000EFFFDF50010B0AE0190EDB5002E0000E7E
:101D100001D0010EE76E190EE7CFDBFF8CD9060E5E
:101D2000DBCF0CF0070EDBCF0DF0080EDBCF0EF093
:101D3000090EDBCF0FF02C6A2D6A490E2E6E400E75
:101D40002F6E0CC027F00DC028F00EC029F00FC078
:101D50002AF0B9EC0AF05CD9A6D995D922EC0AF0A0
:101D600077D9060EDBCF14F0070EDBCF15F0080E87
:101D7000DBCF16F0090EDBCF17F0220E2C6EAA0E69
:101D80002D6E7D0E2E6E3A0E2F6E14C027F015C0EC
:101D900028F016C029F017C02AF0B9EC0AF027C0C5
:101DA00010F028C011F029C012F02AC013F0EDD8AD
:101DB00022EC0AF00A0E27C0DBFF0B0E28C0DBFF67
:101DC0000C0E29C0DBFF0D0E2AC0DBFFD9500A0F15
:101DD000E96E000EEAD825D926C000F027C001F030
:101DE00028C002F029C003F02C6A2D6A800E2E6EE6
:101DF000390E2F6E26C027F04FD9DAEC0BF0010A0E
:101E000013E1D9500A0FE96E000EDA20EA6E020ED5
:101E1000EECFDBFF030EEECFDBFF040EEECFDBFFDA
:101E2000050EEECFDBFF68D0E1D80A0EDBCF2CF039
:101E30000B0EDBCF2DF00C0EDBCF2EF00D0EDBCF1B
:101E40002FF0B9EC0AF01A0E27C0DBFF1B0E28C0DA
:101E5000DBFF1C0E29C0DBFF1D0E2AC0DBFF5B0E63
:101E6000276E9C0E286E2E0E296E360E2A6E72D8A4
:101E7000CFD8220E2C6EB20E2D6E4F0E2E6EB90ED6
:101E800032D99ED83E0E2C6E870E2D6E080E2E6E09
:101E90003C0E29D9DDD8A40E2C6EAA0E2D6E2A0E6A
:101EA0002E6EBE0E20D91E0E27C0DBFF1F0E28C0CF
:101EB000DBFF200E29C0DBFF210E2AC0DBFF0A0E4C
:101EC000DBCF00F00B0EDBCF01F00C0EDBCF02F00E
:101ED0000D0EDBCF03F08AD81E0EDBCF2CF01F0EC9
:101EE000DBCF2DF0200EDBCF2EF0210EDBCF2FF03D
:101EF000F1D823EC0AF06DD8190EDB5008E09BD81E
:101F00002C6A2D6A800E2E6EBF0EF0D803D042D8F8
:101F1000DBCF03F000C026F001C027F002C028F09C
:101F200003C029F0220EE15C02E2E16AE552E16EB3
:101F3000E552E5CFDAFFE7CFD9FF12007CD8830E58
:101F40002C6EF90E2D6EA20E2E6E3E0ECFD82C6A80
:101F50002D6A12001A0EDBCF2CF01B0EDBCF2DF0FA
:101F60001C0EDBCF2EF01D0EDBCF2FF0B9EF0AF0E9
:101F7000060E27C0DBFF070E28C0DBFF080E29C0B6
:101F8000DBFF090E2AC0DBFF12008DD800C027F04E
:101F90004CEF10F0020EDBCF00F0030EDBCF01F0B0
:101FA000040EDBCF02F0050E1200DA20EA6EEECF4F
:101FB000E6FFEECFE6FFEECFE6FFEFCFE6FF120043
:101FC00027C004F028C005F029C006F02AC007F099
:101FD0001200020E27C0DBFF030E28C0DBFF040E39
:101FE00029C0DBFF050E2AC0DBFF12000A0EDBCF83
:101FF00027F00B0EDBCF28F00C0EDBCF29F00D0EF7
:10200000DBCF2AF012002F6E00C027F04CEF10F04B
:1020100027C008F028C009F029C00AF02AC00BF038
:10202000120033EC15F0E552E552E552E55212008C
:102030002F6E23EF0AF0020EDBCF04F0030EDBCF8E
:1020400005F0040EDBCF06F0050EDBCF07F0120023
:1020500027C000F028C001F029C002F02AC003F018
:1020600012003F0EE5DF41EC0DF028C0DEFF29C075
:10207000DDFF000EDFCF28F0010EDBCF29F0C0EC32
:102080000CF0B8EF0FF004C027F005C028F006C030
:1020900029F007C02AF0120001C028F002C029F080
:1020A00003C02AF0120027C02CF028C02DF029C050
:1020B0002EF02AC02FF01200DB0E2C6E0F0E2D6EAC
:1020C000C90E2E6E400E1200D950FA0FE96EFF0EA7
:1020D000D5EF0FF0B9EC0AF073DFC5EF0FF05ADF60
:1020E000DBCF03F01200A4DFAAEF0FF02F6ECBDFDF
:0820F000B9EC0AF028EF10F032
:0820F800D9CFE6FFDACFE6FFC5
:10210000E1CFD9FFE2CFDAFF130EE12402E3E16869
:10211000E652E16E0C0EDB6AD950FA0FE96EFF0E43
:10212000DA20EA6E080EEECFDBFF090EEECFDBFF02
:102130000A0EEECFDBFF0B0EEECFDBFF1FD9D9501F
:10214000080F17D9EECFE6FFEECFE6FFEECFE6FFA2
:10215000EFCFE6FF05EC13F0006E060EE15C02E245
:10216000E16AE552E16E0050DF6E020EDF5C01E0D5
:10217000BCD0050EDBCF02F0060EDBCF03F0F80E6D
:10218000DB50025C006EF90EDB500358016E7F0ECF
:10219000005E000E015A0D0E00C0DBFF0E0E01C0E6
:1021A000DBFF0D0E0E0EDBCF01F00001800E0114DF
:1021B0000AE0010EF36E0C0EF3CFDBFF070EDB50CF
:1021C00001E098D09DD00D0EDBCF00F00E0EDBCFDE
:1021D00001F0D890015004E6170E005C000E015883
:1021E00001E39ED0046805687F0E066E076A0D0E37
:1021F000DB501F0B04C000F005C001F006C002F068
:1022000007C003F007E0D8900332023201320032F7
:10221000E806F9E10F0E00C0DBFF100E01C0DBFF86
:10222000110E02C0DBFF120E03C0DBFF0F0EDBCF6F
:1022300000F0100EDBCF01F0110EDBCF02F0120E1A
:10224000DBCF03F0D950010F94D8EE500016EE50BA
:102250000116EE500216EE50031600500110021047
:10226000031002E1000E01D0010EE76E0C0EE7CF65
:10227000DBFFDB5055E0046A056A800E066E076AD4
:10228000010E086E096A0A6A0B6AD9500F0F71D8DD
:10229000EE500826EE500922EE500A22EE500B2294
:1022A0000850045C006E09500558016E0A5006582B
:1022B000026E0B500758036ED950010F5AD80050C8
:1022C000EE160150EE160250EE160350EE16D950DF
:1022D000080FE66E000EDA20E66E50D893EC13F08D
:1022E000E552E552E552E5521BD0DF0419E1070E35
:1022F000DB5006E0006A016A026A800E036E04D0B9
:10230000006A016A026A036A080E00C0DBFF090E58
:1023100001C0DBFF0A0E02C0DBFF0B0E03C0DBFFB8
:10232000F60EDBCFE9FFF70EDBCFEAFF0C0EDBCFBB
:10233000EFFF080EDBCF00F0090EDBCF01F00A0E35
:10234000DBCF02F00B0EDBCF03F000C026F001C0A4
:1023500027F002C028F003C029F0130EE15C02E26E
:10236000E16AE552E16EE552E5CFDAFFE7CFD9FF4A
:102370001200E96E000EDA20EA6E1200D950010F49
:0A238000E66E000EDA20E66E120091
:06238A00FFFD0100000050
:10239000FE00010001FF0102000200010300FF0036
:1023A00001040001010105000002010600FF030114
:1023B0000700FE0001080006040009090605000ADE
:1023C000090606000B090607000C090000000D0DA8
:1023D0000101010E0D0202000F0D030301100D0497
:1023E0000400110D050501120D060600130D070767
:1023F00001140D000000FFFF0000000000000000BD
:1024000000000000000000000000000000000000CC
:1024100000000000000000000000000000000000BC
:1024200000000000000000000000000000000000AC
:10243000000000000000000000000000000000009C
:06260A00D9CFE6FFDACF94
:10261000E6FFE1CFD9FFE2CFDAFFE65200680168BA
:102620007F0E026E036AD950FA0FE96EFF0EDA20B0
:10263000EA6EEE500016EE500116EE500216EE5005
:1026400003166AD800C0EEFF01C0EEFF02C0EEFF25
:1026500003C0EEFFFD0EDB50800B02E0010E01D047
:10266000000EE66E59D8060EE926000EEA22E55263
:10267000E750EF6EFC0EDBCF00F0FD0EDBCF01F07C
:10268000D89000360136FC0E00C0DBFFFD0E01C005
:10269000DBFFDB50E66E40D8040EE926000EEA228E
:1026A000E552E750EE6EED6AFD0EDB50006E016AFA
:1026B000FF0E001818E1015016E12ED8EECF00F001
:1026C000EECF01F0EECF02F0EFCF03F0005001109B
:1026D0000210031006E0210E0001F56FF66B800E6C
:1026E0000BD0040E09D0FD0EDB5008E115D8EE6AC0
:1026F000EE6AEE6AEE6A010EDF6E06D0020EDF6E43
:102700000BD8EE52EE52EE8EDF50E552E552E5CF99
:10271000DAFFE7CFD9FF1200F80EDBCFE9FFF90EA1
:06272000DBCFEAFF12000E
:0A272600D9CFE6FFDACFE6FFE1CFDE
:10273000D9FFE2CFDAFF5BD8013411E20050FE0886
:10274000000E01540CE276D805E06CD8800EEE6ED7
:10275000EE6847D067D8800EEE6E7F0E0ED047D859
:10276000D890015004E6010E005C000E01580BE207
:1027700061D805E057D8EE6A800EEE6E32D052D89E
:10278000EE6AEE6A2ED047D8EECF00F0EECF01F021
:10279000EECF02F0EFCF03F032D800C0EEFF01C061
:1027A000EEFF02C0EEFF03C0EEFF21D80050010B88
:1027B00005E025D8020E3AD8EF8E04D020D8020EBC
:1027C00035D8EF9E14D8D8900132003218D8030EB5
:1027D0002DD800C0EFFF1AD804E011D8030E26D878
:1027E000EF8EE552E5CFDAFFE7CFD9FF120013D81D
:1027F000040E1CD8EECF00F0EFCF01F01200FA0E5D
:10280000DBCFE9FFFB0EDBCFEAFF120004D8060E98
:102810000DD8EF501200FC0EDBCFE9FFFD0EDBCF31
:10282000EAFF1200ECDFEE6AEE6A1200E926000E03
:10283000EA221200220E0001F56FF66B06EF14F08B
:10284000D9CFE6FFDACFE6FFE1CFD9FFE2CFDAFF5B
:10285000060EE12402E3E168E652E16ED950050F6D
:10286000E66E000EDA20E66E000EE66EE66AD950DD
:10287000FA0FE96EFF0EDA20EA6EEECFE6FFEECF3A
:10288000E6FFEECFE6FFEFCFE6FF7CEC10F0006E48
:10289000080EE15C02E2E16AE552E16E0050010ED1
:1028A00026C0DBFF020E27C0DBFF030E28C0DBFFC4
:1028B000040E29C0DBFF050EDB502AE0040EDB50BE
:1028C000800B26E1006A016A800E026E3F0E036EE5
:1028D000D950010FE96E000EDA20EA6EEECF27F034
:1028E000EECF28F0EECF29F0EFCF2AF000C02CF089
:1028F00001C02DF002C02EF003C02FF023EC0AF02F
:102900002AC0EDFF29C0EDFF28C0EDFF27C0EFFF73
:10291000010EDBCF00F0020EDBCF01F0030EDBCFA8
:1029200002F0040EDBCF03F000C026F001C027F058
:1029300002C028F003C029F0060EE15C02E2E16A61
:10294000E552E16EE552E5CFDAFFE7CFD9FF12009D
:102950001E0EF66E000EF76E000EF86E00010900F6
:10296000F550F06F0900F550F16F03E1F06701D009
:102970003DD00900F550EB6F0900F550EC6F0900F0
:10298000F550ED6F09000900F550E96E0900F550AA
:10299000EA6E090009000900F550EE6F0900F550D4
:1029A000EF6F09000900F6CFF2F0F7CFF3F0F8CFA0
:1029B000F4F0EBC0F6FFECC0F7FFEDC0F8FF00014C
:1029C000EE5302E1EF5307E00900F550EE6EEE071B
:1029D000F8E2EF07F9D7F2C0F6FFF3C0F7FFF4C053
:0E29E000F8FF0001F007000EF15BBFD71200F8
:0229EE00D9CF3F
:1029F000E6FFDACFE6FFE1CFD9FFE2CFDAFFBA6A2E
:102A0000A66AFD0EDBB0BA88DBA202D0BA8CA68C17
:102A1000DBB4BA8EDBA602D0A68801D0A68ADBA8DA
:102A200002D0BA8401D0BA94DBBAA686DBAC02D05D
:102A3000A38A01D0A39ADBAE02D0A38801D0A398C9
:102A4000FB0EDB507B6EFC0EDBCF01F001C000F013
:102A5000016A00507C6EBA8AA68EE552E5CFDAFF95
:062A6000E7CFD9FF1200D0
:0A2A6600D9CFE6FFDACFE6FFE1CF9B
:102A7000D9FFE2CFDAFFE652E652D950FD0F006EE1
:102A8000FF0EDA2000C0DEFFDD6EDECFE9FFDDCF16
:102A9000EAFFEF9EFA0EDBCF00F0FB0EDBCF01F07A
:102AA000FC0EDBCF02F0FD0EDBCF03F000C026F002
:102AB00001C027F002C028F003C029F0E552E5521A
:0C2AC000E552E5CFDAFFE7CFD9FF1200A6
:042ACC00D9CFE6FF79
:102AD000DACFE6FFE1CFD9FFE2CFDAFF010EE66EF3
:102AE000D950FA0FE96EFF0EDA20EA6EEECFE6FF5C
:102AF000EECFE6FFEECFE6FFEFCFE6FFA7EC0DF05F
:102B0000006E050EE15C02E2E16AE552E16E005002
:0C2B1000E552E5CFDAFFE7CFD9FF120055
:042B1C00D9CFE6FF28
:102B2000DACFE6FFE1CFD9FFE2CFDAFFE66AD9508C
:102B3000FA0FE96EFF0EDA20EA6EEECFE6FFEECF77
:102B4000E6FFEECFE6FFEFCFE6FFA7EC0DF0006E5D
:102B5000050EE15C02E2E16AE552E16E0050E552E9
:0A2B6000E5CFDAFFE7CFD9FF12003E
:062B6A00256A246A236ABB
:102B7000226A200EE76ED890263627362836293668
:102B800022362336243625362B50225C2C502358EF
:102B90002D5024582E50255809E32B50225E2C50DE
:102BA000235A2D50245A2E50255A262AE72EE4D790
:022BB000120011
:0E2BB200FB0EE3CFF6FFFC0EE3CFF7FFFD0EA8
:102BC000E3CFF8FFFE0EE3CFE9FFFF0EE3CFEAFF0E
:102BD000E9CFF3FFEACFF4FFF90EE35003E1FA0E79
:102BE000E35009E0F90EE30602E2FA0EE3060900FB
:082BF000F5CFEEFFF1D7120052
:082BF800D9CFE6FFDACFE6FFBA
:102C0000E1CFD9FFE2CFDAFFE652E652FC0EDBCF8E
:102C1000DEFFDBCFDDFF010EDB50D76EDF50D66E5F
:102C2000E552E552E552E5CFDAFFE7CFD9FF1200D2
:102C3000D9CFE6FFDACFE6FFE1CFD9FFE2CFDAFF67
:102C4000FD0EDB507F0BD56ED76AD66AF294FD0E6F
:102C5000DBAE02D0F28A01D0F29AD58EE552E5CFF2
:082C6000DAFFE7CFD9FF1200F3
:082C6800D9CFE6FFDACFE6FF49
:102C7000E1CFD9FFE2CFDAFFFD0EDB50FB0BCA6ECE
:102C8000CC6A9E92FD0EDBAE02D09D8201D09D9259
:0E2C9000CA84E552E5CFDAFFE7CFD9FF120084
:022C9E00410EE5
:102CA000F36E00EE00F00E0E01D81200EA6002D0C2
:0E2CB000EE6AFCD7F350E9601200EE6AFCD722
:022CBE001DEE09
:102CC00000F02DEE00F0F86A219CA8EC14F003EC63
:0A2CD00000F080EC05F0FBD71200C5
:062CDA00000000FFFF00F6
:102CE00000000000000000000000000000000000E4
:102CF00000000000000000000000000000000000D4
:102D000000000000000000000000000000000000C3
:102D100000000000000000000000000000000000B3
:102F50000000000000000000000000000000006E03
:082F6000736173706F6F6B0069
:082F6800010000000000000060
:102F700000008508000000000000000000000000C4
:052F80000066B6F444F8
:020000040030CA
:0100000015EA
:0100010018E6
:010002007F7E
:0100030028D4
:0100050008F2
:010006009168
:010008000FE8
:01000900C036
:01000A000FE6
:01000B00E014
:01000C000FE4
:01000D0040B2
:00000001FF
