:020000040000FA
:06000000B9EF15F012003B
:020006001200E6
:0600080094EF00F012006D
:060018001CEF00F01200D5
:02001E000200DE
:100020001C2E0000C60000001D0000008E2B0000EA
:08003000000600008E02000032
:08003800DACFE4FFE9CFE4FF99
:10004000EACFE4FFF3CFE4FFF4CFE4FFE6529EA251
:1000500064D09E92B80ECC6E8A688B6A12EC09F05E
:1000600081EC08F0EF5011E1CE51AAEC07F083ECDF
:1000700008F0EF50FF0808E0B1EC08F004E6800E4D
:10008000345C000E3558EAE3CE6BCE51AAEC07F093
:10009000EFCF34F0343431E2CE51AAEC07F0EE5217
:1000A000EFCF35F0353429E2010E0001A16FA26BCC
:1000B000A36FA46B12EC09F0EF5006E00001D8909A
:1000C000A137A237E804FBE112EC09F0EE52EF5041
:1000D00006E00001D890A337A437E804FBE112EC56
:1000E00009F081EC08F0EF5006E00001A11D8A6ED6
:1000F000A3C08BFF02D08A688B6A12EC09F083ECF4
:1001000008F0EF50FF0808E0B1EC08F004E6800EBC
:10011000345C000E355801E3CE6BE552E5CFF4FFB9
:10012000E5CFF3FFAAEF08F0DACFE4FFE2CFDAFF82
:10013000E9CFE4FFEACFE4FFF6CFE4FFF7CFE4FF37
:10014000F8CFE4FFF5CFE4FFF3CFE4FFF4CFE4FF13
:10015000FACFE4FFFBCFE4FF00EE20F0140EE8043A
:1001600003E3EECFE4FFFBD700EE00F0200EE8043F
:1001700003E3EECFE4FFFBD7E652A350100B1FE0E2
:10018000A450100B1CE00001D351D519E8AE02D0E9
:10019000D53504D0D451D25DD551D35905E3BAA297
:1001A0000ED0A398CA6B0BD0D0C0E9FFD1C0EAFF34
:1001B000EF50796ED22B000ED323D02BD123A4AADB
:1001C00013D0A6A202D0A698A6887ACFA7F0A7C07F
:1001D00085F80001850ED06F080ED16FD26BD36BFE
:1001E000010ED46FD56BA388F2A42DD0F2940F0129
:1001F00055B313D08D8054910001C86B010EC96FA7
:100200008D82CB511F0BF36EF346F346830EC2145F
:10021000F310C26EC280C28216D08D905593000139
:10022000010EC86FC96F40EC09F0810EE926000E7F
:10023000EA22EECFE6FFEFCFE6FF56EC15F0E552EF
:10024000E5520F0154819EAC54D09E9C8D92C3CF39
:10025000A5F0C4CFA6F0A5C036F0A6C037F0040EB6
:10026000D89037323632E804FBE136C0A5F037C00B
:10027000A6F04DEC08F000013650A55D3750A659A8
:1002800011E20001CB5103E1010ECC6FCD6BCB0528
:1002900002E1CC6BCD6B8D84780E16EC09F0010E6B
:1002A000EF6E12D04DEC08F0080E3626000E372205
:1002B0000001A551365CA651375806E28D94780EA0
:1002C000000116EC09F0EF6AA6C0B3FFA5C0B2FFAB
:1002D0000001010EC76FC96B0F01558F54915493E4
:1002E0005583280EE66EA00EE66E56EC15F0E5522C
:1002F000E552E55200EE1FF0200EE80403E3E5CFDF
:10030000EDFFFBD700EE33F0140EE80403E3E5CF76
:10031000EDFFFBD7E5CFFBFFE5CFFAFFE5CFF4FF1D
:10032000E5CFF3FFE5CFF5FFE5CFF8FFE5CFF7FF2A
:10033000E5CFF6FFAAEF08F0D9CFE6FFE1CFD9FF6E
:10034000060EE126DE6ADE6ADE6ADD6ADD52DD5215
:10035000FE0EDBCFE6FF87D8E5520001C76B000138
:10036000C75102E10400FBD7040EDB6A050EDB6A0D
:10037000040EDBCF00F0050EDBCF01F0D89001506A
:1003800004E6080E005C000E015824E20001C76B71
:100390000001C75102E10400FBD7E66AFE0EDBCF85
:1003A000E6FFDDD8E552E552F3CF00F0F4CF01F0DF
:1003B000026A036A0050DE260150DE220250DE226D
:1003C0000350DD22DD52DD52040EDB2A050E01E36F
:1003D000DB2ACED7DFCF00F0010EDBCF01F0026ABF
:1003E000036A080E2B6E2C6A2D6A2E6A00C026F056
:1003F00001C027F002C028F003C029F080EC0AF009
:1004000026C000F027C001F028C002F029C003F088
:10041000FE0EEA6ADB34FE0BEA36E96E610EE9266F
:10042000000EEA2200C0EEFF01C0EDFFFE0EEA6AF8
:10043000DB34FE0BEA36E96E610EE926000EEA2295
:10044000EECF00F0EFCF01F000C0F3FF01C0F4FFEA
:1004500000D0060EE15C02E2E16AE552E16EE5528F
:10046000E7CFD9FF1200D9CFE6FFE1CFD9FFFE0ECB
:10047000DB50030801E211D00001C95102E0040081
:10048000FBD7F29EFE0EDBCFCBF00001C76BF28EE6
:100490000001C75102E10400FBD7E552E7CFD9FFC5
:1004A000120002EC09F00F01556B900E546F010E13
:1004B000536FFE0EDB500E0A17E0030A0FE0010A2D
:1004C00007E0070A18E1F7EC07F0EE6AFA0E11D020
:1004D000F7EC07F0670EEE6EF00E0BD0F7EC07F0BE
:1004E000E80EEE6EFD0E05D0F7EC07F04F0EEE6E47
:1004F000F40EED6E07D0F7EC07F0780EEE6EED68B7
:100500007D0E536FFE0EDB50020807E1020E536FA3
:10051000F7EC07F0780EEE6EED685D819280C08E8C
:10052000C70EC0143809C06EF80EC0140609C06E9C
:10053000CF0EC1143009C16EC196F80EC114000966
:10054000C16E830EC2140009C26EC2809D8CB19030
:10055000B182B36AB26AF36AF46A2CEF08F002EC73
:1005600009F00001C7513EE0B2CFA8F0B3CFA9F027
:100570003F0E0001A815A86FA96BFD0EDB5005E129
:10058000A8C0F3FFA9C0F4FF31D06BEC08F0EECFA8
:1005900000F0EFCF01F00050A85D0150A9590EE224
:1005A0006BEC08F0A851EE5C0001D66F0001A95178
:1005B000EE5800011F0ED615D66FD76B0001DA5129
:1005C000DB1107E1FD0EDB5004E0D6C0DAF0D7C046
:1005D000DBF0D6C0D8F0D7C0D9F0D6C0F3FFD7C073
:1005E000F4FF04D0D8C0F3FFD9C0F4FF2CEF08F01B
:1005F000B8EC08F0800EE66E020EE66E3E0EE66E79
:10060000220EE66E000EE66E000EE66E060EE66E3A
:1006100033EC15F0006E070EE15E0050020EE15C57
:1006200002E2E16AE552E16E2CEF08F0B8EC08F066
:10063000FD0EDB5005E00001DC6BF0EC08F0ABD008
:100640000001DE6B050EE66EE66A3E0E036E220EBC
:10065000046E000E056EFE0EDB500001DE25066EF8
:10066000076A086A050E2C6E2D6A2E6A06C027F0EE
:1006700007C028F008C029F0B4EC0AF024C006F046
:1006800025C007F026C008F003502424F36E045060
:100690002520F46E0550BCEC08F0F6CF00F0F7CF43
:1006A00001F0F8CF02F000C0E6FF01C0E6FF02C093
:1006B000E6FF0001DC51DE25AAEC07F0E9CF09F0E6
:1006C000EACF0AF0E9CFE6FFEACFE6FF33EC15F018
:1006D0000B6E070EE15E0B503E0E016E220E026E97
:1006E000000E036E0001DE2BFE0EDB50DE25046ED5
:1006F000056A066A050E2C6E2D6A2E6A47EC09F013
:10070000B4EC0AF001502424F36E02502520F46E5C
:100710000350BCEC08F0040EF626000EF722F82277
:100720000800F5CF00F0FE0EDB50005C8BE000010E
:10073000DC51DE6EDD6ADECF00F0DDCF01F0DC5192
:10074000DE25000101AE02D0D89003D0005C000E7F
:1007500001581AE20001DC51026E036ADE500224E5
:10076000006EDD5003204EEC09F083EC08F000C071
:10077000EFFF4EEC09F065EC09F0DCC0EFFFDF2A7B
:10078000010ED9E3DB2AD7D70001DE51DC27F0ECDC
:1007900008F0DE51DC5D006E020EE15C02E2E16A0F
:1007A000E552E16E00502CEF08F0C3EC08F0006E4B
:1007B000016AD890015002E685EC08F007E25CEC93
:1007C00009F081EC08F0FD0EDBCFEFFF2CEF08F015
:1007D00002EC09F0FA0EDBCF00F0FB0EDBCF01F0EC
:1007E000FC0EDBCF02F0FD0EDBCF03F0DFC02CF000
:1007F000E0C02DF0E1C02EF0E2C02FF058EC09F07F
:1008000024EC0BF0010A52E0290E276E5C0E286ED4
:100810008F0E296E3C0E2A6EFA0EDBCF2CF0FB0EEB
:10082000DBCF2DF0FC0EDBCF2EF0FD0EDBCF2FF05B
:1008300013EC0AF027C0AAF028C0ABF029C0ACF036
:100840002AC0ADF027C0E6FF28C0E6FF29C0E6FFBA
:100850002AC0E6FFE8EC14F0A5EC08F026C0C2F0D0
:1008600027C0C3F028C0C4F029C0C5F0AAC0E6FF65
:10087000ABC0E6FFACC0E6FFADC0E6FFC0EC14F0D5
:10088000A5EC08F026C0BEF027C0BFF028C0C0F01D
:1008900029C0C1F0FA0EDBCFDFF0FB0EDBCFE0F0BA
:1008A000FC0EDBCFE1F0FD0EDBCFE2F05CEC09F0FB
:1008B000C7EC08F027C0AEF028C0AFF029C0B0F0F8
:1008C0002AC0B1F05CEC09F0EE52C7EC08F027C08A
:1008D000B2F028C0B3F029C0B4F02AC0B5F0F90EC8
:1008E000DB502FE063DB25EC09F03EDB2EEC09F05A
:1008F000A0DB7CEC09F0C8DBF50EDBCF1CF0F60EBC
:10090000DBCF1DF0F70EDBCF1EF0F80EEFDB7DEC3A
:1009100009F08AEC08F04ADB2EEC09F025DB25EC27
:1009200009F087DB7DEC09F0AFDBF10EDBCF1CF0CB
:10093000F20EDBCF1DF0F30EDBCF1EF0F40ED6DB94
:100940000FD0F1DB60EC09F0F7DB82DB58EC09F04B
:100950007CEC09F0DFDBF0DB60EC09F0E4DB78DB5A
:1009600058EC09F07DEC09F027C0BAF028C0BBF0C4
:1009700029C0BCF02AC0BDF0B6C0E6FFB7C0E6FF94
:10098000B8C0E6FFB9C0E6FFCDEC08F0E552E7508D
:10099000EF6EBAC0E6FFBBC0E6FFBCC0E6FFBDC05D
:1009A000E6FFCDEC08F0EE52E552E750EF6E54D37F
:1009B000EADBD0DAFD0EDB50EF265CEC09F0EE52FC
:1009C000FC0EDB50EF2648D302EC09F0FD0E54EC90
:1009D00009F01EEC09F0E552E750EF6EFC0E54EC06
:1009E00009F0EE521EEC09F0EE52E552E750EF6EC0
:1009F00033D316DB01E689DB1DE2DF6A100EDF5C14
:100A000019E2E8DB17E1D950F10F31DBD950F50FCE
:100A10002EDBF90EDBCFE6FFD950FA0F28DBFE0EF6
:100A2000DB50DF24E66ED4DE006E0E0EE15E005079
:100A3000DF2AE4D7E55210D3F3DA01E666DB10E2F1
:100A4000DF6A100EDF5C0CE2C5DB0AE1FC0EDBCFD7
:100A5000E6FF39DBADDFE552E552E552DF2AF1D79B
:100A6000E552FAD2DDDA01E650DB10E2DF6A100E61
:100A7000DF5C0CE2AFDB0AE1FC0EDBCFE6FF23DB41
:100A8000A3DFE552E552E552DF2AF1D7E552E4D281
:100A9000C7DA01E63ADB0CE2DF6A100EDF5C08E23F
:100AA00099DB06E110DB81DEE552E552DF2AF5D75E
:100AB000E552D2D2D9CFE6FFE1CFD9FF140EE1261D
:100AC000DE6ADD6A010EF36E020EF3CFDBFF010E6C
:100AD000F36E030EF3CFDBFF060EDB6A070EDB6A55
:100AE000080EDB6A090EDB6A1E0EF36E0A0EF3CFE8
:100AF000DBFF0B0EDB6A0C0EDB6A0D0EDB6A100EE1
:100B0000DB6A110EDB6A120EDB6A130EDB6A70DD24
:100B10000F0E926E896A0F010F0E5D6F0F015C6BF5
:100B2000936A8A68946A8B68956A8C6A966A8D6AF9
:100B3000700ED36EC00E9B6E906A9F0EE66E72ECC6
:100B400015F0E552280EE66EA00EE66E56EC15F096
:100B5000E552E552FD0EE66E8EEC15F0E5529F92E1
:100B6000B80ECC6E670EE66EE66AEC0EE66E51ECE1
:100B700014F0E552E552E552D08EF28EF28C00016F
:100B8000606BE66A0D0EE66E8CDCE552E552010EF6
:100B9000E66E0D0EE66E85DCE552E552020EE66E5F
:100BA0000D0EE66E7EDCE552E552030EE66E0D0E8E
:100BB000E66E77DCE552E552E66A9CEC01F0E55220
:100BC000F3CFDEFFF4CFDDFF010EE66E9CEC01F00B
:100BD000E552F3CFDEFFF4CFDDFF020EE66E9CECB4
:100BE00001F0E552F3CFDEFFF4CFDDFF030EE66E3A
:100BF0009CEC01F0E552F3CFDEFFF4CFDDFF000106
:100C0000606B00016051030801E299D160C0E6FF0A
:100C10002ADCE552000160510AE1E66A60C0E6FFA5
:100C20009EDCE552E552040EF3CFDBFF06D0E66A08
:100C300060C0E6FF94DCE552E5520400D950060F8F
:100C4000E96EDACFEAFFEF2AEECF00F0000EEF22D6
:100C5000EECF01F0EF22EECF02F0EF22EFCF03F064
:100C6000D9500A0FE96EDACFEAFFEE50005CEE5081
:100C70000158EE500258EE50035801E25DD1F29C4B
:100C80000001CC51CD1169E11E0EF36E0A0EF3CFB7
:100C9000DBFF0B0EDB6A0C0EDB6A0D0EDB6A010E4E
:100CA000E66EE66AC3DCE552E552E66AE66ABEDC59
:100CB000E552E552E76E0E0EE7CFDBFFE66A0D0E5A
:100CC000E66EB4DCE552E552E76E0F0EE7CFDBFFD0
:100CD000E66AE66AE66AE66AE66AE66A400EE66E92
:100CE000400EE66E010EE66ED950100FE96EDACFB7
:100CF000EAFFEECFE6FFEECFE6FFEECFE6FFEFCF67
:100D0000E6FF0E0EDBCFE6FF74DE006E0E0EE15E38
:100D10000050E66AE66AE00EE66E400EE66EE66AAF
:100D2000E66A400EE66E400EE66E010EE66ED950A3
:100D3000100FE96EDACFEAFFEECFE6FFEECFE6FF67
:100D4000EECFE6FFEFCFE6FF0F0EDBCFE6FF51DE83
:100D5000006E0E0EE15E00509BD03C0EF36E0A0E4C
:100D6000F3CFDBFF0B0EDB6A0C0EDB6A0D0EDB6ACA
:100D70003FDCE66AE66AE66AE66AE66AE66A400E2A
:100D8000E66E400EE66E010EE66E046A056AB40E6B
:100D9000066E430E076E100EDBCF08F0110EDBCF90
:100DA00009F0120EDBCF0AF0130EDBCF0BF008C0F8
:100DB0002CF009C02DF00AC02EF00BC02FF004C09B
:100DC00027F005C028F006C029F007C02AF07CEC07
:100DD00009F027C000F028C001F029C002F02AC0A5
:100DE00003F000C0E6FF01C0E6FF02C0E6FF03C05B
:100DF000E6FFE66AFEDD0C6E0E0EE15E0C50E66A62
:100E0000E66AE00EE66E400EE66EE66AE66A400EC0
:100E1000E66E400EE66E010EE66E046A056AB40EDA
:100E2000066E430E076E100EDBCF08F0110EDBCFFF
:100E300009F0120EDBCF0AF0130EDBCF0BF008C067
:100E40002CF009C02DF00AC02EF00BC02FF004C00A
:100E500027F005C028F006C029F007C02AF07CEC76
:100E600009F027C000F028C001F029C002F02AC014
:100E700003F000C0E6FF01C0E6FF02C0E6FF03C0CA
:100E8000E6FF0D0EE66EB5DD0C6E0E0EE15E0C504B
:100E9000F28C006A016A400E026E410E036ED95058
:100EA000100FE96EDACFEAFFEECF27F0EECF28F091
:100EB000EECF29F0EFCF2AF000C02CF001C02DF0CA
:100EC00002C02EF003C02FF07DEC09F02AC0EDFF28
:100ED00029C0EDFF28C0EDFF27C0EFFF100EDBCFCC
:100EE00000F0110EDBCF01F0120EDBCF02F0130E7B
:100EF000DBCF03F02C6A2D6AB40E2E6E430E2F6EDC
:100F000000C027F001C028F002C029F003C02AF079
:100F10002BEC0BF0010A08E1100EDB6A110EDB6A04
:100F2000120EDB6A130EDB6A060EDB6A070EDB6A43
:100F3000080EDB6A090EDB6A0001602B62D65FD601
:100F4000140EE15C02E2E16AE552E16EE552E7CFA0
:100F5000D9FF1200050DF3CFE9FFF4CFEAFF000E31
:100F6000E926060EEA22120052D9F10EDBCF18F064
:100F7000F20EDBCF19F0F30EDBCF1AF0F40EDBCF5D
:100F80001BF018C02CF019C02DF01AC02EF01BC099
:100F90002FF06DD97CEC09F027C014F028C015F0B3
:100FA00029C016F02AC017F0E1EF08F0F50EDBCFEC
:100FB0000CF0F60EDBCF0DF0F70EDBCF0EF0F80ED7
:100FC000DBCF0FF00CC02CF00DC02DF00EC02EF0BA
:100FD0000FC02FF00ED97CEC09F027C008F028C014
:100FE00009F029C00AF02AC00BF0E1EF08F0FD0E6D
:100FF000EA6ADB34FE0BEA36E96E810EE926000E62
:10100000EA221200050EEA02F3CFEAFFE902F3CF6B
:10101000E9FFF450EA26000EE926060EEA22120045
:10102000F1D8E652FE0EDB50006E016AD8900150F6
:10103000120013EC0AF027C010F028C011F029C0EC
:1010400012F02AC013F0BDD822D907C02AF012002E
:101050000ED9DDD8E1EF08F0E552E7CFD9FF120055
:1010600034D9EFCF00F0FE0EDB50005C1200E96EC9
:10107000FF0EDA20EA6EEECFE6FFEECFE6FFEECF10
:10108000E6FFEFCFE6FF120027C000F028C001F016
:1010900029C002F02AC003F012000001F1D8610E4D
:1010A000E926000EEA22EECF36F0EFCF37F0200E21
:1010B000365E000E375A120001C028F002C029F037
:1010C00003C02AF01200FD0EDBCFE6FFFE0EDB5060
:1010D000DF24E66E1200FE0EEA6ADB34FE0BEA360F
:1010E000E96E610EE926000EEA221200DBCF1FF046
:1010F0001CC02CF01DC02DF01EC02EF01FC02FF004
:101100001200020EE4D0030EE2D0800E005C000E4E
:101110000158120027C0B6F028C0B7F029C0B8F0B7
:101120002AC0B9F01200C2C02CF0C3C02DF0C4C058
:101130002EF0C5C02FF01200BEC02CF0BFC02DF0A5
:10114000C0C02EF0C1C02FF01200E552E552E552AA
:10115000E5521200E5CFEAFFE5CFE9FFE5CFDAFF80
:101160001100CE2BCE51346E356AD8903550120016
:1011700049D8020EE12612002620F86EF4CFF7FFC0
:10118000F3CFF6FF12003ED8FE0EDB501200EFCF79
:1011900000F000C029F06DEF09F07AEC13F0D5DF14
:1011A00026C000F027C001F028C002F029C003F0DB
:1011B00026C027F081DFFDEC0AF02950E66E5CEFD7
:1011C00009F027C02CF028C02DF029C02EF02AC02D
:1011D0002FF01200FE0EDB50DF24BCDE30EF08F0F3
:1011E000DC51B8DE90DFEF68DC51B4DE6ED8EF681A
:1011F0001200AEC027F0AFC028F0B0C029F0B1C0D7
:101200002AF01200D9CFE6FFE1CFD9FF120013EC8C
:101210000AF027C004F028C005F029C006F02AC053
:1012200007F012000001CE51AAEF07F0CB25E96EBE
:10123000EA6A000EEA22E6DE81EF08F0EF50E5529E
:10124000E702F350E66E5CEF09F0C2C027F0C3C0BE
:1012500028F0C4C029F0C5C02AF01200BEC027F093
:10126000BFC028F0C0C029F0C1C02AF01200B2C02F
:1012700027F0B3C028F0B4C029F0B5C02AF012009E
:10128000CB51E96EEA6AD890E936EA36120004C01A
:1012900027F005C028F006C029F01200DECFE9FFD4
:1012A000DDCFEAFF02EF08F0DBCFE6FF5CEF09F0ED
:1012B00000C027F05CEF08F0FE0EDB50AAEF07F04D
:1012C00098DF13EC0AF044EF08F0040E00D0E92692
:0612D000000EEA221200EC
:0A12D600219E05D0219E29AE02D012
:1012E000296C218E29C023F0226A336A326A860E65
:1012F000246E256AA5EF0BF02F7E216AE1EC0BF03E
:10130000F9EC0BF021B689EF0BF021A20AD021AA4B
:1013100003D021BE89EF0BF021A495EF0BF092EFE3
:101320000BF021AA05D021AC95EF0BF092EF0BF05A
:1013300021A00AD021A808D021BE04D021A402D027
:101340009EEF0BF0A2EF0BF0326A256A2F502A5C59
:10135000316E10E327C033F028C022F029C023F0FB
:101360002AC030F02CC027F02DC028F02EC029F064
:10137000213A09D02CC033F02DC022F02EC023F02A
:101380002FC030F0316C219E21BC218E30C024F062
:1013900021B0D1EF0BF01A0E3160D1EF0BF0246ABF
:1013A0002A6A21A408D0276C281E291E2A1EE86A52
:1013B000282229222A2221AC08D0336C221E231E87
:1013C000241EE86A222223222422266A315207E0C0
:1013D0002A342932283227322632312EF9D72750A3
:1013E000332628502222295023222A50242226C084
:1013F00032F0219E24AE0BD0326C331E221E231EEF
:10140000241EE86A3322222223222422218E24A0B1
:1014100006D0D8802332223233323232302A30C0E2
:1014200024F0A5EF0BF0216AE1EC0BF0F9EC0BF0E6
:1014300021B689EF0BF021A205D021B889EF0BF07E
:1014400090EF0BF021AA05D021B089EF0BF090EFBF
:101450000BF021B002D021A802D09CEF0BF0256A3E
:101460002F502A24246EE86A25227E0E245EE86A24
:10147000255A326A336A226A236A2E502902F4CF2F
:1014800023F0F3CF22F02D502902F3503326F450ED
:101490002222000E23222E502802F3503326F4502D
:1014A0002222000E23222C502902F3503226F4501F
:1014B0003322000E222223222D502802F3503226FE
:1014C000F4503322000E222223222E502702F35002
:1014D0003226F4503322000E222223222C502802DE
:1014E000F4503226000E3322222223222D502702CE
:1014F000F4503226000E332222222322A5EF0BF0D5
:10150000206AE86A2EAE8DEF0AF02B6C2C1E2D1E81
:101510002E1E2C222D222E22201E29AE98EF0AF0FC
:10152000266C271E281E291E272228222922201E3B
:101530000FEC15F029BEAFEF0AF020AE000C266CC0
:10154000271E281E291EE86A272228222922226C0B
:10155000231E241E251E232224222522000C20BE09
:101560009FEF0AF02188FF0C29C033F028C032F029
:1015700027C031F027502C02F4CF25F0F3CF24F010
:1015800028502D02F4CF27F0F3CF26F02C02F35091
:101590002526F4502622E86A272231502D02F350E6
:1015A0002526F4502622E86A272229502C02F350DF
:1015B0002626F450272229502D02286AE86A28227C
:1015C000F3502726F450282231502E02F3502626BD
:1015D000F4502722296AE86A2822292232502E0252
:1015E000F3502726F4502822E86A292233502E028D
:1015F000F3502826F4502922000C216AE1EC0BF06C
:1016000021B607EF0BF021A20AD021B403D07F0E40
:10161000296E19D0800E296E16D0296A14D021B0F7
:10162000FCD7870E2A60F1D77E0E2A64F6D7860E85
:101630002A5C04E0D89029322A2AF9D721A403D0C1
:10164000296C29AEEAD7120034EC0BF021B6000C5D
:1016500021B0010C000C34EC0BF021B6000C21B0D1
:10166000000C21B4000C010C216AE1EC0BF0F9EC48
:101670000BF021B6120021AE08D021A004D021A881
:1016800002D021801200219012002F502A5C0BE121
:101690002E50295C08E12D50285C05E12C50275C78
:1016A00002E121801200D8A002D0218E10D02A5051
:1016B0002FC02AF02F6E29502EC029F02E6E2850F0
:1016C0002DC028F02D6E27502CC027F02C6E2F50E7
:1016D0002A5C10E0FF0F09E0219021B403D021AE75
:1016E0002184120021AE219412002F2AD8902E328C
:1016F0002D322C322C50275E2D50285A2E50295A2C
:1017000029BEEAD7D8902736283629362A2EF8D788
:10171000C8D77F0E2A6EFF0E296E286E276E120024
:101720007F0E21BEFF0E2A6E02D07F0E2A6E800E23
:10173000296E286A276AF3D721AE04D0800E2A6E5C
:10174000296AF7D72A6A296AF4D72350221033105E
:101750003210F8E025BEF0D723BE0CD0245025105F
:10176000EBE0D89032363336223623362406D8A022
:101770002506F2D72550D4E12428D2E032AE11D08C
:101780007F0E321402E133A00CD0332AE86A222201
:10179000232207E3D880233222323332242A24281A
:1017A000BFE02450C9E033C027F022C028F0233422
:1017B000296E24302A6E29322A9E21BE2A8E8FEF6E
:1017C0000BF029362A3602E32184217E06E12180AE
:1017D0002A6A296A286A276A12002A2803E0D88020
:1017E00029321200D890293202E12182120021868A
:1017F00012002E362F3602E3218C217E06E121884D
:101800002F6A2E6A2D6A2C6A12002F2803E0D880D6
:101810002E321200D8902E32EAE1218A1200219E47
:1018200008D0219E29AE05D0286C291EE86A2922FD
:10183000218E29C023F028C022F0336A326A8E0E2E
:10184000246E256AA5EF0BF0219E0CD0219E29AEB7
:1018500009D0266C271E281E291EE86A2722282266
:101860002922218E29C023F028C022F027C033F07E
:1018700026C032F09E0E246E256AA5EF0BF0216A79
:10188000E1EC0BF0F9EC0BF021B689EF0BF021A2A3
:1018900005D021BA89EF0BF090EF0BF021BA9CEF45
:1018A0000BF021A005D021B889EF0BF09CEF0BF0D5
:1018B00021B890EF0BF0256A7F0E2A24246EE86A87
:1018C00025222F50245EE86A255A1A0E306E2A6AA5
:1018D000326A336A226A236A2C50275E2D50285AB6
:1018E0002E50295A000E2A5A09E72C5027262D502F
:1018F00028222E502922000E2A2201D0328AD89086
:101900002736283629362A36D890323633362236CC
:101910002336302EE1D7295028102710D8A4328A38
:10192000A5EF0BF0216AE1EC0BF021B69CEF0CF077
:1019300021A20ED021B405D07F0E296EFF0E286E95
:101940001FD0800E296E286A1BD0296A286A18D0F9
:1019500021B0FBD78F0E2A60EDD77E0E2A64F5D713
:101960008E0E2A5C05E0D890293228322A2AF8D730
:1019700021A406D0286C291EE86A292229AEE5D7C1
:101980001200216AE1EC0BF021B6CBEF0CF021A2A2
:101990000FD021B407D07F0E296EFF0E286E276E60
:1019A000266E25D0800E296E01D0296A000EF6D74A
:1019B00021B0FBD7266A9F0E2A60EBD77E0E2A64E1
:1019C000F4D79E0E2A5C07E0D890293228322732BD
:1019D00026322A2AF6D721A40AD0266C271E281ED2
:1019E000291EE86A27222822292229AEDED71200E2
:1019F00034EC0BF021B6000C21B0000C21A4000C3B
:021A0000010CD7
:0E1A0200D9CFE6FFDACFE6FFE1CFD9FFE2CF82
:101A1000DAFF220EE12402E3E168E652E16ED950DA
:101A2000130FE66E000EDA20E66EA8DA5FEC12F015
:101A3000006E060EE15C02E2E16AE552E16E0050E2
:101A4000E76E0E0EE7CFDBFFDB50840B0CE0210EC0
:101A50000001ED6FEE6B0F0EDB68100EDB68110EF0
:101A6000DB687F0E6ED08ADA36DA020E26C0DBFF24
:101A7000030E27C0DBFF040E28C0DBFF050E29C0C4
:101A8000DBFF87DA2C6A100E2D6E490E2E6E460E85
:101A900014DAF8EC0CF0010A32E07BDA67DA0DDADE
:101AA0003FEC0CF0BFD9060EDBCF27F0070EDBCFE3
:101AB00028F0080EDBCF29F0090EDBCF2AF0C1ECAD
:101AC0000CF026EC0CF0AED964DA060EDBCF08F091
:101AD000070EDBCF09F0080EDBCF0AF0090EDBCFD3
:101AE0000BF044DA2F6E08C027F009C028F00AC0B6
:101AF00029F00BC02AF048DA7CEC09F0C4D9F90EC1
:101B0000DB5012E00E0EDB040BE1FA0EDBCF00F02F
:101B1000FB0EDBCF01F0FC0EDBCF02F0FD0E52D14D
:101B200067D92E6AF8D947D00E0EDB0419E10F0EE3
:101B3000DB6A100EDB6A800EF36E110EF3CFDBFF53
:101B40003F0EF36E120EF3CFDBFF0F0EDBCF00F074
:101B5000100EDBCF01F0110EDBCF02F0120E32D1EE
:101B6000190EDB6A45D9800E2E6ED5D9006A016A3E
:101B7000026A3F0E036ED950060FE96E000EDA209E
:101B8000EA6EEECF27F0EECF28F0EECF29F0EFCFC0
:101B90002AF000C02CF001C02DF002C02EF003C0CE
:101BA0002FF07CEC09F02AC0EDFF29C0EDFF28C022
:101BB000EDFF27C0EFFFDF50010B0AE0190EDB50ED
:101BC00002E0000E01D0010EE76E190EE7CFDBFF39
:101BD0008CD9060EDBCF0CF0070EDBCF0DF0080E14
:101BE000DBCF0EF0090EDBCF0FF02C6A2D6A490E09
:101BF0002E6E400E2F6E0CC027F00DC028F00EC0C8
:101C000029F00FC02AF013EC0AF05CD9A6D995D9B7
:101C10007CEC09F077D9060EDBCF14F0070EDBCF92
:101C200015F0080EDBCF16F0090EDBCF17F0220EF1
:101C30002C6EAA0E2D6E7D0E2E6E3A0E2F6E14C0D7
:101C400027F015C028F016C029F017C02AF013ECB1
:101C50000AF027C010F028C011F029C012F02AC0E5
:101C600013F0EDD87CEC09F00A0E27C0DBFF0B0E59
:101C700028C0DBFF0C0E29C0DBFF0D0E2AC0DBFFE6
:101C8000D9500A0FE96E000EEAD825D926C000F017
:101C900027C001F028C002F029C003F02C6A2D6A89
:101CA000800E2E6E390E2F6E26C027F04FD9F8EC1D
:101CB0000CF0010A13E1D9500A0FE96E000EDA2088
:101CC000EA6E020EEECFDBFF030EEECFDBFF040E5B
:101CD000EECFDBFF050EEECFDBFF68D0E1D80A0EBA
:101CE000DBCF2CF00B0EDBCF2DF00C0EDBCF2EF06C
:101CF0000D0EDBCF2FF013EC0AF01A0E27C0DBFF1E
:101D00001B0E28C0DBFF1C0E29C0DBFF1D0E2AC0E6
:101D1000DBFF5B0E276E9C0E286E2E0E296E360E94
:101D20002A6E72D8CFD8220E2C6EB20E2D6E4F0EA8
:101D30002E6EB90E32D99ED83E0E2C6E870E2D6EA9
:101D4000080E2E6E3C0E29D9DDD8A40E2C6EAA0EDC
:101D50002D6E2A0E2E6EBE0E20D91E0E27C0DBFF62
:101D60001F0E28C0DBFF200E29C0DBFF210E2AC07A
:101D7000DBFF0A0EDBCF00F00B0EDBCF01F00C0E09
:101D8000DBCF02F00D0EDBCF03F08AD81E0EDBCFC7
:101D90002CF01F0EDBCF2DF0200EDBCF2EF0210E0E
:101DA000DBCF2FF0F1D87DEC09F06DD8190EDB50A8
:101DB00008E09BD82C6A2D6A800E2E6EBF0EF0D8DC
:101DC00003D042D8DBCF03F000C026F001C027F0DB
:101DD00002C028F003C029F0220EE15C02E2E16AB1
:101DE000E552E16EE552E5CFDAFFE7CFD9FF120009
:101DF0007CD8830E2C6EF90E2D6EA20E2E6E3E0E2A
:101E0000CFD82C6A2D6A12001A0EDBCF2CF01B0ED5
:101E1000DBCF2DF01C0EDBCF2EF01D0EDBCF2FF015
:101E200013EF0AF0060E27C0DBFF070E28C0DBFF0A
:101E3000080E29C0DBFF090E2AC0DBFF12008DD877
:101E400000C027F0A6EF0FF0020EDBCF00F0030E6C
:101E5000DBCF01F0040EDBCF02F0050E1200DA201A
:101E6000EA6EEECFE6FFEECFE6FFEECFE6FFEFCF76
:101E7000E6FF120027C004F028C005F029C006F0D4
:101E80002AC007F01200020E27C0DBFF030E28C095
:101E9000DBFF040E29C0DBFF050E2AC0DBFF1200AA
:101EA0000A0EDBCF27F00B0EDBCF28F00C0EDBCFBA
:101EB00029F00D0EDBCF2AF012002F6E00C027F0A4
:101EC000A6EF0FF027C008F028C009F029C00AF0DB
:101ED0002AC00BF012008DEC14F0E552E552E552E9
:101EE000E55212002F6E7DEF09F0020EDBCF04F0F9
:101EF000030EDBCF05F0040EDBCF06F0050EDBCFC3
:101F000007F0120027C000F028C001F029C002F03D
:101F10002AC003F012003F0EE5DF92EC0CF028C05F
:101F2000DEFF29C0DDFF000EDFCF28F0010EDBCF82
:101F300029F011EC0CF012EF0FF004C027F005C0EF
:101F400028F006C029F007C02AF0120001C028F0CE
:101F500002C029F003C02AF0120027C02CF028C0CC
:101F60002DF029C02EF02AC02FF01200DB0E2C6EAF
:101F70000F0E2D6EC90E2E6E400E1200D950FA0FA4
:101F8000E96EFF0E2FEF0FF013EC0AF073DF1FEF77
:101F90000FF05ADFDBCF03F01200A4DF04EF0FF0E5
:0C1FA0002F6ECBDF13EC0AF082EF0FF085
:041FAC00D9CFE6FFA4
:101FB000DACFE6FFE1CFD9FFE2CFDAFF130EE1245B
:101FC00002E3E168E652E16E0C0EDB6AD950FA0FCB
:101FD000E96EFF0EDA20EA6E080EEECFDBFF090E87
:101FE000EECFDBFF0A0EEECFDBFF0B0EEECFDBFFFB
:101FF0001FD9D950080F17D9EECFE6FFEECFE6FF75
:10200000EECFE6FFEFCFE6FF5FEC12F0006E060EBC
:10201000E15C02E2E16AE552E16E0050DF6E020E21
:10202000DF5C01E0BCD0050EDBCF02F0060EDBCF9B
:1020300003F0F80EDB50025C006EF90EDB50035823
:10204000016E7F0E005E000E015A0D0E00C0DBFF18
:102050000E0E01C0DBFF0D0E0E0EDBCF01F00001F6
:10206000800E01140AE0010EF36E0C0EF3CFDBFFBD
:10207000070EDB5001E098D09DD00D0EDBCF00F0B5
:102080000E0EDBCF01F0D890015004E6170E005C75
:10209000000E015801E39ED0046805687F0E066EAD
:1020A000076A0D0EDB501F0B04C000F005C001F0E5
:1020B00006C002F007C003F007E0D89003320232F6
:1020C00001320032E806F9E10F0E00C0DBFF100E0E
:1020D00001C0DBFF110E02C0DBFF120E03C0DBFFED
:1020E0000F0EDBCF00F0100EDBCF01F0110EDBCFB7
:1020F00002F0120EDBCF03F0D950010F94D8EE504E
:102100000016EE500116EE500216EE500316005067
:1021100001100210031002E1000E01D0010EE76E63
:102120000C0EE7CFDBFFDB5055E0046A056A800E3A
:10213000066E076A010E086E096A0A6A0B6AD950B0
:102140000F0F71D8EE500826EE500922EE500A22E9
:10215000EE500B220850045C006E09500558016EC9
:102160000A500658026E0B500758036ED950010FE3
:102170005AD80050EE160150EE160250EE160350DB
:10218000EE16D950080FE66E000EDA20E66E50D833
:10219000EDEC12F0E552E552E552E5521BD0DF04BA
:1021A00019E1070EDB5006E0006A016A026A800E40
:1021B000036E04D0006A016A026A036A080E00C056
:1021C000DBFF090E01C0DBFF0A0E02C0DBFF0B0EB6
:1021D00003C0DBFFF60EDBCFE9FFF70EDBCFEAFF34
:1021E0000C0EDBCFEFFF080EDBCF00F0090EDBCFCC
:1021F00001F00A0EDBCF02F00B0EDBCF03F000C0C4
:1022000026F001C027F002C028F003C029F0130E09
:10221000E15C02E2E16AE552E16EE552E5CFDAFF08
:10222000E7CFD9FF1200E96E000EDA20EA6E120045
:0E223000D950010FE66E000EDA20E66E1200A5
:02223E0000009E
:102240000000000007000100010601020002050075
:102250000300030401040004030005000502010655
:102260000006010007000700010800060400090934
:102270000605000A090606000B090607000C0900FE
:1022800000000D0D0101010E0D0202000F0D0303F0
:1022900001100D040400110D050501120D060600C4
:1022A000130D070701140D000000FFFF00000000E0
:1022B000000000000000000000000000000000001E
:1022C000000000000000000000000000000000000E
:1022D00000000000000000000000000000000000FE
:1022E00000000000000000000000000000000000EE
:0224BE00D9CF74
:1024C000E6FFDACFE6FFE1CFD9FFE2CFDAFFE6524F
:1024D000006801687F0E026E036AD950FA0FE96E38
:1024E000FF0EDA20EA6EEE500016EE500116EE50A6
:1024F0000216EE5003166AD800C0EEFF01C0EEFFD0
:1025000002C0EEFF03C0EEFFFD0EDB50800B02E0C9
:10251000010E01D0000EE66E59D8060EE926000E17
:10252000EA22E552E750EF6EFC0EDBCF00F0FD0E25
:10253000DBCF01F0D89000360136FC0E00C0DBFF87
:10254000FD0E01C0DBFFDB50E66E40D8040EE9262D
:10255000000EEA22E552E750EE6EED6AFD0EDB500A
:10256000006E016AFF0E001818E1015016E12ED826
:10257000EECF00F0EECF01F0EECF02F0EFCF03F0A0
:10258000005001100210031006E0210E0001ED6F53
:10259000EE6B800E0BD0040E09D0FD0EDB5008E16F
:1025A00015D8EE6AEE6AEE6AEE6A010EDF6E06D0AC
:1025B000020EDF6E0BD8EE52EE52EE8EDF50E55279
:1025C000E552E5CFDAFFE7CFD9FF1200F80EDBCFF7
:0A25D000E9FFF90EDBCFEAFF12006D
:0625DA00D9CFE6FFDACFC5
:1025E000E6FFE1CFD9FFE2CFDAFF5BD8013411E299
:1025F0000050FE08000E01540CE276D805E06CD8BD
:10260000800EEE6EEE6847D067D8800EEE6E7F0EBD
:102610000ED047D8D890015004E6010E005C000EA1
:1026200001580BE261D805E057D8EE6A800EEE6ED5
:1026300032D052D8EE6AEE6A2ED047D8EECF00F0F4
:10264000EECF01F0EECF02F0EFCF03F032D800C0B2
:10265000EEFF01C0EEFF02C0EEFF03C0EEFF21D887
:102660000050010B05E025D8020E3AD8EF8E04D0B9
:1026700020D8020E35D8EF9E14D8D89001320032FF
:1026800018D8030E2DD800C0EFFF1AD804E011D8D7
:10269000030E26D8EF8EE552E5CFDAFFE7CFD9FF5C
:1026A000120013D8040E1CD8EECF00F0EFCF01F0CB
:1026B0001200FA0EDBCFE9FFFB0EDBCFEAFF1200C0
:1026C00004D8060E0DD8EF501200FC0EDBCFE9FF48
:1026D000FD0EDBCFEAFF1200ECDFEE6AEE6A1200BD
:1026E000E926000EEA221200220E0001ED6FEE6BC9
:0426F00060EF13F094
:0C26F400D9CFE6FFDACFE6FFE1CFD9FF37
:10270000E2CFDAFF060EE12402E3E168E652E16E71
:10271000D950050FE66E000EDA20E66E000EE66E6A
:10272000E66AD950FA0FE96EFF0EDA20EA6EEECFB4
:10273000E6FFEECFE6FFEECFE6FFEFCFE6FFD6EC0B
:102740000FF0006E080EE15C02E2E16AE552E16E14
:102750000050010E26C0DBFF020E27C0DBFF030E78
:1027600028C0DBFF040E29C0DBFF050EDB502AE08A
:10277000040EDB50800B26E1006A016A800E026EB7
:102780003F0E036ED950010FE96E000EDA20EA6E9B
:10279000EECF27F0EECF28F0EECF29F0EFCF2AF0E2
:1027A00000C02CF001C02DF002C02EF003C02FF0AD
:1027B0007DEC09F02AC0EDFF29C0EDFF28C0EDFF38
:1027C00027C0EFFF010EDBCF00F0020EDBCF01F0E0
:1027D000030EDBCF02F0040EDBCF03F000C026F0C7
:1027E00001C027F002C028F003C029F0060EE15C0A
:1027F00002E2E16AE552E16EE552E5CFDAFFE7CFAA
:04280000D9FF1200EA
:0C2804001E0EF66E000EF76E000EF86E51
:1028100000010900F550E86F0900F550E96F03E188
:10282000E86701D03DD00900F550E36F0900F5508D
:10283000E46F0900F550E56F09000900F550E96EF5
:102840000900F550EA6E090009000900F550E66F2D
:102850000900F550E76F09000900F6CFEAF0F7CF5D
:10286000EBF0F8CFECF0E3C0F6FFE4C0F7FFE5C013
:10287000F8FF0001E65302E1E75307E00900F550D5
:10288000EE6EE607F8E2E707F9D7EAC0F6FFEBC01D
:10289000F7FFECC0F8FF0001E807000EE95BBFD7C7
:0228A000120024
:0E28A200D9CFE6FFDACFE6FFE1CFD9FFE2CFD4
:1028B000DAFFBA6AA66AFD0EDBB0BA88DBA202D0E4
:1028C000BA8CA68CDBB4BA8EDBA602D0A68801D067
:1028D000A68ADBA802D0BA8401D0BA94DBBAA68655
:1028E000DBAC02D0A38A01D0A39ADBAE02D0A388CE
:1028F00001D0A398FB0EDB507B6EFC0EDBCF01F00A
:1029000001C000F0016A00507C6EBA8AA68EE552C2
:0A291000E5CFDAFFE7CFD9FF120090
:06291A00D9CFE6FFDACF81
:10292000E6FFE1CFD9FFE2CFDAFFE652E652D95017
:10293000FD0F006EFF0EDA2000C0DEFFDD6EDECF81
:10294000E9FFDDCFEAFFEF9EFA0EDBCF00F0FB0ED2
:10295000DBCF01F0FC0EDBCF02F0FD0EDBCF03F08E
:1029600000C026F001C027F002C028F003C029F003
:10297000E552E552E552E5CFDAFFE7CFD9FF120085
:10298000D9CFE6FFDACFE6FFE1CFD9FFE2CFDAFF1A
:10299000010EE66ED950FA0FE96EFF0EDA20EA6EEC
:1029A000EECFE6FFEECFE6FFEECFE6FFEFCFE6FF9E
:1029B00001EC0DF0006E050EE15C02E2E16AE55209
:1029C000E16E0050E552E5CFDAFFE7CFD9FF120004
:1029D000D9CFE6FFDACFE6FFE1CFD9FFE2CFDAFFCA
:1029E000E66AD950FA0FE96EFF0EDA20EA6EEECFF2
:1029F000E6FFEECFE6FFEECFE6FFEFCFE6FF01EC1E
:102A00000DF0006E050EE15C02E2E16AE552E16E56
:0E2A10000050E552E5CFDAFFE7CFD9FF120004
:022A1E00256A27
:102A2000246A236A226A200EE76ED890263627365B
:102A30002836293622362336243625362B50225C7A
:102A40002C5023582D5024582E50255809E32B5034
:102A5000225E2C50235A2D50245A2E50255A262AB5
:062A6000E72EE4D712008E
:0A2A6600FB0EE3CFF6FFFC0EE3CFFA
:102A7000F7FFFD0EE3CFF8FFFE0EE3CFE9FFFF0EF9
:102A8000E3CFEAFFE9CFF3FFEACFF4FFF90EE3501B
:102A900003E1FA0EE35009E0F90EE30602E2FA0E52
:0C2AA000E3060900F5CFEEFFF1D71200AD
:042AAC00D9CFE6FF99
:102AB000DACFE6FFE1CFD9FFE2CFDAFFE652E65206
:102AC000FC0EDBCFDEFFDBCFDDFF010EDB50D76E70
:102AD000DF50D66EE552E552E552E5CFDAFFE7CF9B
:042AE000D9FF120008
:0C2AE400D9CFE6FFDACFE6FFE1CFD9FF43
:102AF000E2CFDAFFFD0EDB507F0BD56ED76AD66AC8
:102B0000F294FD0EDBAE02D0F28A01D0F29AD58E9D
:0C2B1000E552E5CFDAFFE7CFD9FF120055
:042B1C00D9CFE6FF28
:102B2000DACFE6FFE1CFD9FFE2CFDAFFFD0EDB50CF
:102B3000FB0BCA6ECC6A9E92FD0EDBAE02D09D826C
:102B400001D09D92CA84E552E5CFDAFFE7CFD9FFE5
:022B5000120071
:0E2B5200410EF36E00EE00F00E0E01D81200E0
:102B6000EA6002D0EE6AFCD7F350E9601200EE6A28
:022B7000FCD790
:0E2B72001DEE00F02DEE00F0F86A219C02EC42
:0E2B800014F003EC00F05AEC05F0FBD7120045
:022B8E00000045
:102B900000FFFF0000000000000000000000000037
:102BA0000000000000000000000000000000000025
:102BB0000000000000000000000000000000000015
:102BC0000000000000000000000000000000000005
:102BD00000000000000000000000000000000000F5
:0C2E10000000006E736173706F6F6B0048
:042E1C0001000000B1
:102E20000000000000008508000000000000000015
:092E3000000000000066B6F44445
:020000040030CA
:0100000015EA
:0100010018E6
:010002007F7E
:0100030028D4
:0100050008F2
:010006009168
:010008000FE8
:01000900C036
:01000A000FE6
:01000B00E014
:01000C000FE4
:01000D0040B2
:00000001FF
