:020000040000FA
:060000008CEF15F0120068
:020006001200E6
:0600080081EF00F0120080
:060018001CEF00F01200D5
:02001E000200DE
:10002000BD310000C60000001A000000342B0000A3
:08003000000600008906000033
:08003800DACFE4FFE9CFE4FF99
:10004000EACFE4FFF3CFE4FFF4CFE4FFE6529EA251
:1000500051D09E92B80ECC6E7FEC07F0EFCF34F00B
:10006000343431E2CE5101EC06F0EE52EFCF35F0F0
:10007000353429E2010E0001A16FA26BA36FA46BBE
:100080007FEC07F0EF5006E00001D890A137A237CF
:10009000E804FBE17FEC07F0EE52EF5006E00001D0
:1000A000D890A337A437E804FBE10001CE5134EC2B
:1000B00007F0EF5006E00001A11D8A6EA3C08BFF80
:1000C00002D08A688B6A0001CE2BCE51346E356A1D
:1000D000D890355004E6800E345C000E355809E2A5
:1000E000CE5101EC06F0030EAFEC06F0EF50FF0826
:1000F00001E1CE6BE552E5CFF4FFE5CFF3FFFBEF77
:1001000006F0DACFE4FFE2CFDAFFE9CFE4FFEACF8F
:10011000E4FFF6CFE4FFF7CFE4FFF8CFE4FFF5CF3D
:10012000E4FFF3CFE4FFF4CFE4FFFACFE4FFFBCF2B
:10013000E4FF00EE20F0140EE80403E3EECFE4FF4A
:10014000FBD700EE00F0200EE80403E3EECFE4FF5F
:10015000FBD7E652A350100B1FE0A450100B1CE07D
:100160000001D351D519E8AE02D0D53504D0D45111
:10017000D25DD551D35905E3BAA20ED0A398CA6B6C
:100180000BD0D0C0E9FFD1C0EAFFEF50796ED22B7F
:10019000000ED323D02BD123A4AA06D0A6A202D02E
:1001A000A698A6887ACFA7F0F2A42DD0F2940F01DA
:1001B00055B313D08D8054910001C86B010EC96FE7
:1001C0008D82CB511F0BF36EF346F346830EC214A0
:1001D000F310C26EC280C28216D08D90559300017A
:1001E000010EC86FC96F6FEC07F0810EE926000E93
:1001F000EA22EECFE6FFEFCFE6FF29EC15F0E5525D
:10020000E5520F0154819EAC56D09E9C8D92C3CF77
:10021000A5F0C4CFA6F0A5C036F0A6C037F0040EF6
:10022000D89037323632E804FBE136C0A5F037C04B
:10023000A6F099EC06F000013650A55D3750A6599E
:1002400012E20001CB5103E1010ECC6FCD6BCB0567
:1002500002E1CC6BCD6B8D84090ECB2534EC07F01D
:10026000010EEF6E13D099EC06F0080E3626000E44
:1002700037220001A551365CA651375807E28D940C
:10028000090E0001CB2534EC07F0EF6AA6C0B3FFDE
:10029000A5C0B2FF0001010EC76FC96B0F01558FDA
:1002A000549154935583280EE66EA00EE66E29EC09
:1002B00015F0E552E552E55200EE1FF0200EE8047D
:1002C00003E3E5CFEDFFFBD700EE33F0140EE804B7
:1002D00003E3E5CFEDFFFBD7E5CFFBFFE5CFFAFF6B
:1002E000E5CFF4FFE5CFF3FFE5CFF5FFE5CFF8FF6E
:1002F000E5CFF7FFE5CFF6FFFBEF06F0D9CFE6FF3E
:10030000E1CFD9FF060EE126DE6ADE6ADE6ADD6A2B
:10031000DD52DD52FE0EDBCFE6FF87D8E55200014D
:10032000C76B0001C75102E10400FBD7040EDB6A72
:10033000050EDB6A040EDBCF00F0050EDBCF01F00B
:10034000D890015004E6080E005C000E015824E22B
:100350000001C76B0001C75102E10400FBD7E66A48
:10036000FE0EDBCFE6FFDCD8E552E552F3CF00F01E
:10037000F4CF01F0026A036A0050DE260150DE224B
:100380000250DE220350DD22DD52DD52040EDB2A54
:10039000050E01E3DB2ACED7DFCF00F0010EDBCF65
:1003A00001F0026A036A080E2B6E2C6A2D6A2E6A0F
:1003B00000C026F001C027F002C028F003C029F0D9
:1003C0009CEC08F026C000F027C001F028C002F025
:1003D00029C003F0FE0EEA6ADB34FE0BEA36E96E52
:1003E000610EE926000EEA2200C0EEFF01C0EDFF1B
:1003F000FE0EEA6ADB34FE0BEA36E96E610EE92690
:10040000000EEA22EECF00F0EFCF01F000C0F3FFC4
:1004100001C0F4FF00D0060EE15C02E2E16AE552A1
:10042000E16EE552E7CFD9FF1200D9CFE6FFE1CF69
:10043000D9FFFE0EDB50030801E211D00001C951C3
:1004400002E00400FBD7F29EFE0EDBCFCBF00001F2
:10045000C76BF28E0001C75102E10400FBD7E552E1
:10046000E7CFD9FF1200B3EC06F00F01556B900EE9
:10047000546F010E536FFE0EDB500E0A17E0030A95
:100480000FE0010A07E0070A18E160EC06F0EE6AE7
:10049000FA0E11D060EC06F0670EEE6EF00E0BD087
:1004A00060EC06F0E80EEE6EFD0E05D060EC06F096
:1004B0004F0EEE6EF40EED6E07D060EC06F0780E87
:1004C000EE6EED687D0E536FFE0EDB50020806E106
:1004D000020E536FF5DB780EEE6EED685D81928053
:1004E000C08EC70EC0143809C06EF80EC0140609BD
:1004F000C06ECF0EC1143009C16EC196F80EC11482
:100500000009C16E830EC2140009C26EC2809D8CA8
:10051000B190B182B36AB26AF36AF46AB8EF06F0D6
:10052000B3EC06F00001C7513EE0B2CFA8F0B3CF64
:10053000A9F03F0E0001A815A86FA96BFD0EDB50B6
:1005400005E1A8C0F3FFA9C0F4FF31D0BCEC06F070
:10055000EECF00F0EFCF01F00050A85D0150A95997
:100560000EE2BCEC06F0A851EE5C0001D66F000173
:10057000A951EE5800011F0ED615D66FD76B00019A
:10058000DA51DB1107E1FD0EDB5004E0D6C0DAF0F2
:10059000D7C0DBF0D6C0D8F0D7C0D9F0D6C0F3FFB3
:1005A000D7C0F4FF04D0D8C0F3FFD9C0F4FFE0D324
:1005B000DADB020EE126800EE66E060EE66EA80E6F
:1005C000E66E150EE66E000EE66E000EE66E060E88
:1005D000E66E06EC15F0006E070EE15E0050DE6A76
:1005E000DD6ADECF00F0DDCF01F0D890015002E6E9
:1005F00009EC07F012E231DB38EC07F0050EAFDB57
:10060000D1DB2BDBEE5238EC07F0090EA8DBCADB9E
:10061000DF2A010EE6E3DB2AE4D7020EE15C02E208
:10062000E16AE552E16EA4D39EDBECDB01E6F1DB8F
:1006300009E2F29CFE0EDB5034EC07F0FD0EDBCF3E
:10064000EFFFF28C95D38FDBFA0EDBCF00F0FB0EC1
:10065000DBCF01F0FC0EDBCF02F0FD0EDBCF03F0B1
:10066000DCC02CF0DDC02DF0DEC02EF0DFC02FF09E
:1006700076EC07F0F7EC08F0010A50E0290E276E3F
:100680005C0E286E8F0E296E3C0E2A6EFA0EDBCFA2
:100690002CF0FB0EDBCF2DF0FC0EDBCF2EF0FD0E91
:1006A000DBCF2FF02FEC08F027C0AAF028C0ABF06A
:1006B00029C0ACF02AC0ADF027C0E6FF28C0E6FF95
:1006C00029C0E6FF2AC0E6FFBBEC14F08FDB26C092
:1006D000C2F027C0C3F028C0C4F029C0C5F0AAC02A
:1006E000E6FFABC0E6FFACC0E6FFADC0E6FF93ECB3
:1006F00014F07CDB26C0BEF027C0BFF028C0C0F0DD
:1007000029C0C1F0FA0EDBCFDCF0FB0EDBCFDDF051
:10071000FC0EDBCFDEF0FD0EDBCFDFF0D8DBEECF63
:10072000AEF0EECFAFF0EECFB0F0EFCFB1F0D3DB65
:10073000EECFB2F0EECFB3F0EECFB4F0EFCFB5F036
:10074000F90EDB502AE09BDAA7DB65DAAEDBCCDA08
:1007500098EC07F0C0DAF50EDBCF1CF0F60EDBCF1D
:100760001DF0F70EDBCF1EF0F80E11DB99EC07F051
:1007700022DB85DA9ADB4FDA8FDBB6DA99EC07F009
:10078000AADAF10EDBCF1CF0F20EDBCF1DF0F30E78
:10079000DBCF1EF0F40EFBDA0CD016DBABDB1DDB7F
:1007A000B7DAA4DB98EC07F006DB17DBA3DB0CDB86
:1007B000AFDA9CDB99EC07F027C0BAF028C0BBF099
:1007C00029C0BCF02AC0BDF082DBB6C0EEFFB7C0C6
:1007D000EEFFB8C0EEFFB9C0EEFF7DDBBAC0EEFFA2
:1007E000BBC0EEFFBCC0EEFFBDC0EEFFB6C0E6FF73
:1007F000B7C0E6FFB8C0E6FFB9C0E6FF0FDBE552C1
:10080000E750EF6EBAC0E6FFBBC0E6FFBCC0E6FF34
:10081000BDC0E6FF03DBEE52E552E750EF6EA8D213
:10082000A2DAE652EFDA01E6F4DA27E2DF6A100E26
:10083000DF5C23E2FE0EDB50DF24E3D9040E8FDA07
:10084000EFCF00F0FE0EDB50005C17E1D950F10F46
:1008500063DAD950F50F60DAF90EDBCFE6FFD95035
:10086000FA0F5ADAFE0EDB50DF24E66EECDE006E85
:100870000E0EE15E0050DF2ADAD7E55279D2D9CFE9
:10088000E6FFE1CFD9FF120EE126DE6ADD6A010E36
:10089000F36E020EF3CFDBFF010EF36E030EF3CF08
:1008A000DBFF060EDB6A070EDB6A080EDB6A090E49
:1008B000DB6A140EF36E0A0EF3CFDBFF0B0EDB6A5E
:1008C0000C0EDB6A0D0EDB6A0E0EDB6A0F0EDB6AA6
:1008D000100EDB6A110EDB6A6BDE0F0E926E896AF8
:1008E0000F010F0E5D6F0F015C6B936A8A68946A4B
:1008F0008B68956A8C6A966A8D6A700ED36EC00E8C
:100900009B6E906A9F0EE66E45EC15F0E552280E40
:10091000E66EA00EE66E29EC15F0E552E552FD0EEE
:10092000E66E61EC15F0E5529F92B80ECC6E670E44
:10093000E66EE66AEC0EE66E24EC14F0E552E55243
:10094000E552D08EF28EF28C0001606BE66A0D0EDD
:10095000E66E89DDE552E552010EE66E0D0EE66E9D
:1009600082DDE552E552020EE66E0D0EE66E7BDD8F
:10097000E552E552030EE66E0D0EE66E74DDE552AD
:10098000E552E66ABBDCE552F3CFDEFFF4CFDDFFD4
:10099000010EE66EB3DCE552F3CFDEFFF4CFDDFFF0
:1009A000020EE66EABDCE552F3CFDEFFF4CFDDFFE7
:1009B000030EE66EA3DCE552F3CFDEFFF4CFDDFFDE
:1009C0000001606B00016051030801E20FD160C0BB
:1009D000E6FF2BDDE552000160510AE1E66A60C0E6
:1009E000E6FF9EDDE552E552040EF3CFDBFF06D0B5
:1009F000E66A60C0E6FF94DDE552E5520400D95096
:100A0000060FE96EDACFEAFFEF2AEECF00F0000E14
:100A1000EF22EECF01F0EF22EECF02F0EF22EFCF88
:100A200003F0D9500A0FE96EDACFEAFFEE50005C0E
:100A3000EE500158EE500258EE50035801E2D3D068
:100A4000F29C0001CC51CD112AE1140EF36E0A0E76
:100A5000F3CFDBFF0B0EDB6A0C0EDB6A0D0EDB6ADD
:100A6000A7DDE66AE66AE66AE66AE66AE66AE66AD2
:100A7000E66A010EE66ED9500E0FE96EDACFEAFF94
:100A8000EECFE6FFEECFE6FFEECFE6FFEFCFE6FFDD
:100A9000E66AC6DE006E0E0EE15E005050D0140E07
:100AA000F36E0A0EF3CFDBFF0B0EDB6A0C0EDB6A74
:100AB0000D0EDB6A7DDDE66AE66AE66AE66AE66AEC
:100AC000E66AE66AE66A010EE66E046A056AB40E34
:100AD000066E430E076E0E0EDBCF08F00F0EDBCF57
:100AE00009F0100EDBCF0AF0110EDBCF0BF008C0BF
:100AF0002CF009C02DF00AC02EF00BC02FF004C05E
:100B000027F005C028F006C029F007C02AF098ECAD
:100B100007F027C000F028C001F029C002F02AC069
:100B200003F000C0E6FF01C0E6FF02C0E6FF03C01D
:100B3000E6FFE66A75DE0C6E0E0EE15E0C50F28C7E
:100B4000006A016A400E026E400E036ED9500E0F0D
:100B5000E96EDACFEAFFEECF27F0EECF28F0EECF46
:100B600029F0EFCF2AF000C02CF001C02DF002C018
:100B70002EF003C02FF099EC07F02AC0EDFF29C03A
:100B8000EDFF28C0EDFF27C0EFFF0E0EDBCF00F01A
:100B90000F0EDBCF01F0100EDBCF02F0110EDBCF1A
:100BA00003F02C6A2D6AB40E2E6E430E2F6E00C019
:100BB00027F001C028F002C029F003C02AF0FEECA3
:100BC00008F0010A08E10E0EDB6A0F0EDB6A100E58
:100BD000DB6A110EDB6A060EDB6A070EDB6A080EA3
:100BE000DB6A090EDB6A0001602BECD6E9D6120E37
:100BF000E15C02E2E16AE552E16EE552E7CFD9FF3E
:100C000012000D0DF3CFE9FFF4CFEAFF000EE92645
:100C1000060EEA22120035D9F10EDBCF18F0F20EE3
:100C2000DBCF19F0F30EDBCF1AF0F40EDBCF1BF0A5
:100C300018C02CF019C02DF01AC02EF01BC02FF0D8
:100C40003DD998EC07F027C014F028C015F029C052
:100C500016F02AC017F022EF07F0DECFE9FFDDCF54
:100C6000EAFF0D0EEA02F3CFEAFFE902F3CFE9FF54
:100C7000F450EA26000EE926060EEA221200F50ECE
:100C8000DBCF0CF0F60EDBCF0DF0F70EDBCF0EF066
:100C9000F80EDBCF0FF00CC02CF00DC02DF00EC005
:100CA0002EF00FC02FF0D7D898EC07F027C008F02F
:100CB00028C009F029C00AF02AC00BF022EF07F083
:100CC000FD0EEA6ADB34FE0BEA36E96E810EE92698
:100CD000000EEA22120027C000F028C001F029C04F
:100CE00002F02AC003F012002FEC08F027C010F029
:100CF00028C011F029C012F02AC013F0A3D804C0F4
:100D000027F005C028F006C029F007C02AF012001D
:100D1000D5D8B7D822EF07F0E96EFF0EDA20EA6ED9
:100D2000EECFE6FFEECFE6FFEECFE6FFEFCFE6FF3A
:100D300012000001D4D8610EE926000EEA22EECF9F
:100D400036F0EFCF37F0200E365E000E375A120025
:100D500001C028F002C029F003C02AF01200E926E1
:100D6000000EEA221200D9CFE6FFE1CFD9FF120030
:100D7000E552E7CFD9FF1200FE0EEA6ADB34FE0B24
:100D8000EA36E96E610EE926000EEA221200DBCF98
:100D90001FF01CC02CF01DC02DF01EC02EF01FC077
:100DA0002FF0120027C0EEFF01C0EEFF02C0EEFFE1
:100DB00003C0EEFF120027C0B6F028C0B7F029C06C
:100DC000B8F02AC0B9F01200C2C02CF0C3C02DF098
:100DD000C4C02EF0C5C02FF01200BEC02CF0BFC0A2
:100DE0002DF0C0C02EF0C1C02FF01200E552E55228
:100DF000E552E5521200E5CFEAFFE5CFE9FFE5CF86
:100E0000DAFF1100FE0EDB50006E016AD89001502F
:100E10001200800E005C000E015812004DEC13F021
:100E2000E5DF26C000F027C001F028C002F029C08D
:100E300003F026C027F08CDFD0EC08F02950E66ED6
:100E400083EF07F027C02CF028C02DF029C02EF02A
:100E50002AC02FF01200AEC027F0AFC028F0B0C0FB
:100E600029F0B1C02AF01200CCDE020EAFEF06F07E
:100E7000EFCF04F004C029F089EC07F02CDF2DEF50
:100E800006F02FEC08F027C004F028C005F029C0B8
:100E900006F02AC007F01200C2C027F0C3C028F035
:100EA000C4C029F0C5C02AF01200BEC027F0BFC0E0
:100EB00028F0C0C029F0C1C02AF01200B2C027F04B
:100EC000B3C028F0B4C029F0B5C02AF012001BD876
:100ED000050EAFEF06F017D8090EAFEF06F0CB51B5
:100EE000E96EEA6AD890E936EA36120000C027F0C7
:100EF000A8EF06F0B0DF2FEC08F06BEF06F0000172
:0E0F0000CE5101EF06F0FE0EDB5001EF06F0C1
:020F0E00219E22
:100F100005D0219E29AE02D0296C218E29C023F054
:100F2000226A336A326A860E246E256A78EF09F0E7
:100F30002F7E216AB4EC09F0CCEC09F021B65CEF0D
:100F400009F021A20AD021AA03D021BE5CEF09F04A
:100F500021A468EF09F065EF09F021AA05D021ACC2
:100F600068EF09F065EF09F021A00AD021A808D0A8
:100F700021BE04D021A402D071EF09F075EF09F071
:100F8000326A256A2F502A5C316E10E327C033F095
:100F900028C022F029C023F02AC030F02CC027F04E
:100FA0002DC028F02EC029F0213A09D02CC033F0F2
:100FB0002DC022F02EC023F02FC030F0316C219EC6
:100FC00021BC218E30C024F021B0A4EF09F01A0E0C
:100FD0003160A4EF09F0246A2A6A21A408D0276CA2
:100FE000281E291E2A1EE86A282229222A2221AC2C
:100FF00008D0336C221E231E241EE86A22222322DC
:101000002422266A315207E02A3429322832273234
:101010002632312EF9D72750332628502222295044
:1010200023222A50242226C032F0219E24AE0BD047
:10103000326C331E221E231E241EE86A3322222213
:1010400023222422218E24A006D0D88023322232CB
:1010500033323232302A30C024F078EF09F0216A7E
:10106000B4EC09F0CCEC09F021B65CEF09F021A258
:1010700005D021B85CEF09F063EF09F021AA05D093
:1010800021B05CEF09F063EF09F021B002D021A894
:1010900002D06FEF09F0256A2F502A24246EE86AE7
:1010A00025227E0E245EE86A255A326A336A226A55
:1010B000236A2E502902F4CF23F0F3CF22F02D50D3
:1010C0002902F3503326F4502222000E23222E5000
:1010D0002802F3503326F4502222000E23222C50F3
:1010E0002902F3503226F4503322000E222223220A
:1010F0002D502802F3503226F4503322000E2222C3
:1011000023222E502702F3503226F4503322000EB1
:10111000222223222C502802F4503226000E3322A1
:10112000222223222D502702F4503226000E332291
:101130002222232278EF09F0206AE86A2EAEA9EF76
:1011400008F02B6C2C1E2D1E2E1E2C222D222E2242
:10115000201E29AEB4EF08F0266C271E281E291E7B
:10116000272228222922201EE2EC14F029BECBEFF0
:1011700008F020AE000C266C271E281E291EE86AE7
:10118000272228222922226C231E241E251E2322E8
:1011900024222522000C20BEBBEF08F02188FF0C82
:1011A000216AB4EC09F021B6DAEF08F021A20AD0E6
:1011B00021B403D07F0E296E19D0800E296E16D06F
:1011C000296A14D021B0FCD7870E2A60F1D77E0E91
:1011D0002A64F6D7860E2A5C04E0D89029322A2A9F
:1011E000F9D721A403D0296C29AEEAD7120007EC65
:1011F00009F021B6000C21B0010C000C07EC09F03D
:1012000021B6000C21B0000C21B4000C010C216AA5
:10121000B4EC09F0CCEC09F021B6120021AE08D0F4
:1012200021A004D021A802D0218012002190120018
:101230002F502A5C0BE12E50295C08E12D50285CD0
:1012400005E12C50275C02E121801200D8A002D0D9
:10125000218E10D02A502FC02AF02F6E29502EC078
:1012600029F02E6E28502DC028F02D6E27502CC04E
:1012700027F02C6E2F502A5C10E0FF0F09E0219020
:1012800021B403D021AE2184120021AE219412009A
:101290002F2AD8902E322D322C322C50275E2D50F2
:1012A000285A2E50295A29BEEAD7D89027362836F0
:1012B00029362A2EF8D7C8D77F0E2A6EFF0E296E40
:1012C000286E276E12007F0E21BEFF0E2A6E02D0FE
:1012D0007F0E2A6E800E296E286A276AF3D721AE08
:1012E00004D0800E2A6E296AF7D72A6A296AF4D7B1
:1012F0002350221033103210F8E025BEF0D723BE61
:101300000CD024502510EBE0D890323633362236FC
:1013100023362406D8A02506F2D72550D4E1242868
:10132000D2E032AE11D07F0E321402E133A00CD0E5
:10133000332AE86A2222232207E3D880233222328A
:101340003332242A2428BFE02450C9E033C027F0D8
:1013500022C028F02334296E24302A6E29322A9E96
:1013600021BE2A8E62EF09F029362A3602E3218453
:10137000217E06E121802A6A296A286A276A1200EA
:101380002A2803E0D88029321200D890293202E1BD
:1013900021821200218612002E362F3602E3218C84
:1013A000217E06E121882F6A2E6A2D6A2C6A12009E
:1013B0002F2803E0D8802E321200D8902E32EAE196
:1013C000218A1200219E08D0219E29AE05D0286CCA
:1013D000291EE86A2922218E29C023F028C022F084
:1013E000336A326A8E0E246E256A78EF09F0219EE8
:1013F0000CD0219E29AE09D0266C271E281E291E3E
:10140000E86A272228222922218E29C023F028C019
:1014100022F027C033F026C032F09E0E246E256ADB
:1014200078EF09F0216AB4EC09F0CCEC09F021B6B0
:101430005CEF09F021A205D021BA5CEF09F063EF5F
:1014400009F021BA6FEF09F021A005D021B85CEFB7
:1014500009F06FEF09F021B863EF09F0256A7F0EFC
:101460002A24246EE86A25222F50245EE86A255A31
:101470001A0E306E2A6A326A336A226A236A2C5044
:10148000275E2D50285A2E50295A000E2A5A09E755
:101490002C5027262D5028222E502922000E2A2299
:1014A00001D0328AD8902736283629362A36D89065
:1014B0003236333622362336302EE1D729502810E3
:1014C0002710D8A4328A78EF09F0216AB4EC09F029
:1014D00021B66FEF0AF021A20ED021B405D07F0E05
:1014E000296EFF0E286E1FD0800E296E286A1BD031
:1014F000296A286A18D021B0FBD78F0E2A60EDD751
:101500007E0E2A64F5D78E0E2A5C05E0D89029322B
:1015100028322A2AF8D721A406D0286C291EE86A86
:10152000292229AEE5D71200216AB4EC09F021B6D0
:101530009EEF0AF021A20FD021B407D07F0E296EB2
:10154000FF0E286E276E266E25D0800E296E01D0E4
:10155000296A000EF6D721B0FBD7266A9F0E2A60B3
:10156000EBD77E0E2A64F4D79E0E2A5C07E0D89053
:1015700029322832273226322A2AF6D721A40AD045
:10158000266C271E281E291EE86A272228222922C7
:1015900029AEDED7120007EC09F021B6000C21B00D
:0815A000000C21A4000C010C59
:0815A800010101000000000038
:1015B0000000000000030101010000000000000025
:1015C000000005010102000000000000000000030F
:1015D00003010300000000000000000005050104F5
:1015E00000000000000000000003050105000000ED
:1015F00000000000000001050106000000000000DE
:1016000000000004020107000000000000000000CC
:1016100004040108000000000000000000060400AF
:10162000090900000000000000000605000A09008A
:10163000000000000000000606000B09000000008A
:10164000000000000607000C090000000000000078
:1016500000000000FFFF000000000000000000008C
:10166000000000000000000000000000000000007A
:10167000000000000000000000000000000000006A
:10168000000000000000000000000000000000005A
:10169000000000000000000000000000000000004A
:081C2800D9CFE6FFDACFE6FF99
:101C3000E1CFD9FFE2CFDAFF220EE12402E3E1682F
:101C4000E652E16ED950130FE66E000EDA20E66E12
:101C5000A8DA32EC12F0006E060EE15C02E2E16AF4
:101C6000E552E16E0050E76E0E0EE7CFDBFFDB5072
:101C7000840B0CE0210E0001EA6FEB6B0F0EDB68AA
:101C8000100EDB68110EDB687F0E6ED08ADA36DA52
:101C9000020E26C0DBFF030E27C0DBFF040E28C0A8
:101CA000DBFF050E29C0DBFF87DA2C6A100E2D6ED4
:101CB000490E2E6E460E14DACBEC0AF0010A32E021
:101CC0007BDA67DA0DDA12EC0AF0BFD9060EDBCF49
:101CD00027F0070EDBCF28F0080EDBCF29F0090E26
:101CE000DBCF2AF094EC0AF0F9EC09F0AED964DA13
:101CF000060EDBCF08F0070EDBCF09F0080EDBCFB6
:101D00000AF0090EDBCF0BF044DA2F6E08C027F083
:101D100009C028F00AC029F00BC02AF048DA98EC74
:101D200007F0C4D9F90EDB5012E00E0EDB040BE114
:101D3000FA0EDBCF00F0FB0EDBCF01F0FC0EDBCFA9
:101D400002F0FD0E52D167D92E6AF8D947D00E0E97
:101D5000DB0419E10F0EDB6A100EDB6A800EF36EF6
:101D6000110EF3CFDBFF3F0EF36E120EF3CFDBFF4E
:101D70000F0EDBCF00F0100EDBCF01F0110EDBCF2A
:101D800002F0120E32D1190EDB6A45D9800E2E6E8A
:101D9000D5D9006A016A026A3F0E036ED950060F58
:101DA000E96E000EDA20EA6EEECF27F0EECF28F0D3
:101DB000EECF29F0EFCF2AF000C02CF001C02DF0BB
:101DC00002C02EF003C02FF098EC07F02AC0EDFF00
:101DD00029C0EDFF28C0EDFF27C0EFFFDF50010B4A
:101DE0000AE0190EDB5002E0000E01D0010EE76E92
:101DF000190EE7CFDBFF8CD9060EDBCF0CF0070EF8
:101E0000DBCF0DF0080EDBCF0EF0090EDBCF0FF0AD
:101E10002C6A2D6A490E2E6E400E2F6E0CC027F0D4
:101E20000DC028F00EC029F00FC02AF02FEC08F0EA
:101E30005CD9A6D995D998EC07F077D9060EDBCFF7
:101E400014F0070EDBCF15F0080EDBCF16F0090EED
:101E5000DBCF17F0220E2C6EAA0E2D6E7D0E2E6E8D
:101E60003A0E2F6E14C027F015C028F016C029F0C6
:101E700017C02AF02FEC08F027C010F028C011F08E
:101E800029C012F02AC013F0EDD898EC07F00A0E22
:101E900027C0DBFF0B0E28C0DBFF0C0E29C0DBFFC9
:101EA0000D0E2AC0DBFFD9500A0FE96E000EEAD8EA
:101EB00025D926C000F027C001F028C002F029C0B3
:101EC00003F02C6A2D6A800E2E6E390E2F6E26C0FE
:101ED00027F04FD9CBEC0AF0010A13E1D9500A0FD1
:101EE000E96E000EDA20EA6E020EEECFDBFF030E83
:101EF000EECFDBFF040EEECFDBFF050EEECFDBFFF8
:101F000068D0E1D80A0EDBCF2CF00B0EDBCF2DF022
:101F10000C0EDBCF2EF00D0EDBCF2FF02FEC08F0E8
:101F20001A0E27C0DBFF1B0E28C0DBFF1C0E29C0CA
:101F3000DBFF1D0E2AC0DBFF5B0E276E9C0E286E9A
:101F40002E0E296E360E2A6E72D8CFD8220E2C6E27
:101F5000B20E2D6E4F0E2E6EB90E32D99ED83E0E99
:101F60002C6E870E2D6E080E2E6E3C0E29D9DDD8F4
:101F7000A40E2C6EAA0E2D6E2A0E2E6EBE0E20D929
:101F80001E0E27C0DBFF1F0E28C0DBFF200E29C05E
:101F9000DBFF210E2AC0DBFF0A0EDBCF00F00B0EA9
:101FA000DBCF01F00C0EDBCF02F00D0EDBCF03F028
:101FB0008AD81E0EDBCF2CF01F0EDBCF2DF0200EAB
:101FC000DBCF2EF0210EDBCF2FF0F1D899EC07F00C
:101FD0006DD8190EDB5008E09BD82C6A2D6A800E54
:101FE0002E6EBF0EF0D803D042D8DBCF03F000C076
:101FF00026F001C027F002C028F003C029F0220E0D
:10200000E15C02E2E16AE552E16EE552E5CFDAFF1A
:10201000E7CFD9FF12007CD8830E2C6EF90E2D6EFF
:10202000A20E2E6E3E0ECFD82C6A2D6A12001A0E0A
:10203000DBCF2CF01B0EDBCF2DF01C0EDBCF2EF0F8
:102040001D0EDBCF2FF02FEF08F0060E27C0DBFFB1
:10205000070E28C0DBFF080E29C0DBFF090E2AC0CF
:10206000DBFF12008DD800C027F0B9EF10F0020E90
:10207000DBCF00F0030EDBCF01F0040EDBCF02F06C
:10208000050E1200DA20EA6EEECFE6FFEECFE6FF95
:10209000EECFE6FFEFCFE6FF120027C004F028C026
:1020A00005F029C006F02AC007F01200020E27C072
:1020B000DBFF030E28C0DBFF040E29C0DBFF050E8B
:1020C0002AC0DBFF12000A0EDBCF27F00B0EDBCF9E
:1020D00028F00C0EDBCF29F00D0EDBCF2AF012001A
:1020E0002F6E00C027F0B9EF10F027C008F028C00D
:1020F00009F029C00AF02AC00BF0120060EC14F0BD
:10210000E552E552E552E55212002F6E99EF07F0C5
:10211000020EDBCF04F0030EDBCF05F0040EDBCFA5
:1021200006F0050EDBCF07F0120027C000F028C034
:1021300001F029C002F02AC003F012003F0EE5DFD3
:1021400065EC0AF028C0DEFF29C0DDFF000EDFCFFE
:1021500028F0010EDBCF29F0E4EC09F025EF10F0B8
:1021600004C027F005C028F006C029F007C02AF0F7
:10217000120001C028F002C029F003C02AF01200AA
:1021800027C02CF028C02DF029C02EF02AC02FF037
:102190001200DB0E2C6E0F0E2D6EC90E2E6E400E31
:1021A0001200D950FA0FE96EFF0E42EF10F02FEC3B
:1021B00008F073DF32EF10F05ADFDBCF03F01200CC
:1021C000A4DF17EF10F02F6ECBDF2FEC08F095EFA8
:0221D00010F00D
:0E21D200D9CFE6FFDACFE6FFE1CFD9FFE2CFAB
:1021E000DAFF130EE12402E3E168E652E16E0C0E21
:1021F000DB6AD950FA0FE96EFF0EDA20EA6E080E9C
:10220000EECFDBFF090EEECFDBFF0A0EEECFDBFFDA
:102210000B0EEECFDBFF1FD9D950080F17D9EECF29
:10222000E6FFEECFE6FFEECFE6FFEFCFE6FF32ECC4
:1022300012F0006E060EE15C02E2E16AE552E16E28
:102240000050DF6E020EDF5C01E0BCD0050EDBCF7C
:1022500002F0060EDBCF03F0F80EDB50025C006EDE
:10226000F90EDB500358016E7F0E005E000E015A1E
:102270000D0E00C0DBFF0E0E01C0DBFF0D0E0E0EBB
:10228000DBCF01F00001800E01140AE0010EF36EB5
:102290000C0EF3CFDBFF070EDB5001E098D09DD092
:1022A0000D0EDBCF00F00E0EDBCF01F0D890015009
:1022B00004E6170E005C000E015801E39ED004688E
:1022C00005687F0E066E076A0D0EDB501F0B04C0FB
:1022D00000F005C001F006C002F007C003F007E0FF
:1022E000D8900332023201320032E806F9E10F0ED3
:1022F00000C0DBFF100E01C0DBFF110E02C0DBFFD0
:10230000120E03C0DBFF0F0EDBCF00F0100EDBCF91
:1023100001F0110EDBCF02F0120EDBCF03F0D9502B
:10232000010F94D8EE500016EE500116EE50021632
:10233000EE500316005001100210031002E1000ECF
:1023400001D0010EE76E0C0EE7CFDBFFDB5055E04E
:10235000046A056A800E066E076A010E086E096A35
:102360000A6A0B6AD9500F0F71D8EE500826EE504A
:102370000922EE500A22EE500B220850045C006E37
:1023800009500558016E0A500658026E0B50075846
:10239000036ED950010F5AD80050EE160150EE16B8
:1023A0000250EE160350EE16D950080FE66E000EDE
:1023B000DA20E66E50D8C0EC12F0E552E552E55254
:1023C000E5521BD0DF0419E1070EDB5006E0006A7E
:1023D000016A026A800E036E04D0006A016A026A12
:1023E000036A080E00C0DBFF090E01C0DBFF0A0E06
:1023F00002C0DBFF0B0E03C0DBFFF60EDBCFE9FFF5
:10240000F70EDBCFEAFF0C0EDBCFEFFF080EDBCFC2
:1024100000F0090EDBCF01F00A0EDBCF02F00B0E4D
:10242000DBCF03F000C026F001C027F002C028F087
:1024300003C029F0130EE15C02E2E16AE552E16EAD
:10244000E552E5CFDAFFE7CFD9FF1200E96E000EC3
:10245000DA20EA6E1200D950010FE66E000EDA2083
:04246000E66E120012
:0C246400D9CFE6FFDACFE6FFE1CFD9FFC9
:10247000E2CFDAFFE652006801687F0E026E036A5F
:10248000D950FA0FE96EFF0EDA20EA6EEE50001610
:10249000EE500116EE500216EE5003166AD800C038
:1024A000EEFF01C0EEFF02C0EEFF03C0EEFFFD0E27
:1024B000DB50800B02E0010E01D0000EE66E59D811
:1024C000060EE926000EEA22E552E750EF6EFC0EFA
:1024D000DBCF00F0FD0EDBCF01F0D89000360136E7
:1024E000FC0E00C0DBFFFD0E01C0DBFFDB50E66E23
:1024F00040D8040EE926000EEA22E552E750EE6EBF
:10250000ED6AFD0EDB50006E016AFF0E001818E147
:10251000015016E12ED8EECF00F0EECF01F0EECF55
:1025200002F0EFCF03F0005001100210031006E09C
:10253000210E0001EA6FEB6B800E0BD0040E09D068
:10254000FD0EDB5008E115D8EE6AEE6AEE6AEE6A1F
:10255000010EDF6E06D0020EDF6E0BD8EE52EE5289
:10256000EE8EDF50E552E552E5CFDAFFE7CFD9FF37
:102570001200F80EDBCFE9FFF90EDBCFEAFF120005
:10258000D9CFE6FFDACFE6FFE1CFD9FFE2CFDAFF1E
:102590005BD8013411E20050FE08000E01540CE239
:1025A00076D805E06CD8800EEE6EEE6847D067D81E
:1025B000800EEE6E7F0E0ED047D8D890015004E604
:1025C000010E005C000E01580BE261D805E057D8FF
:1025D000EE6A800EEE6E32D052D8EE6AEE6A2ED0DF
:1025E00047D8EECF00F0EECF01F0EECF02F0EFCF04
:1025F00003F032D800C0EEFF01C0EEFF02C0EEFFD4
:1026000003C0EEFF21D80050010B05E025D8020ED3
:102610003AD8EF8E04D020D8020E35D8EF9E14D8C9
:10262000D8900132003218D8030E2DD800C0EFFF29
:102630001AD804E011D8030E26D8EF8EE552E5CF64
:10264000DAFFE7CFD9FF120013D8040E1CD8EECF63
:1026500000F0EFCF01F01200FA0EDBCFE9FFFB0E26
:10266000DBCFEAFF120004D8060E0DD8EF5012009F
:10267000FC0EDBCFE9FFFD0EDBCFEAFF1200ECDF43
:10268000EE6AEE6A1200E926000EEA221200220E1D
:0A2690000001EA6FEB6B33EF13F06B
:06269A00D9CFE6FFDACF04
:1026A000E6FFE1CFD9FFE2CFDAFF060EE12402E335
:1026B000E168E652E16ED950050FE66E000EDA20B1
:1026C000E66E000EE66EE66AD950FA0FE96EFF0E6E
:1026D000DA20EA6EEECFE6FFEECFE6FFEECFE6FFC2
:1026E000EFCFE6FFE9EC10F0006E080EE15C02E2CD
:1026F000E16AE552E16E0050010E26C0DBFF020EDA
:1027000027C0DBFF030E28C0DBFF040E29C0DBFF60
:10271000050EDB502AE0040EDB50800B26E1006A38
:10272000016A800E026E3F0E036ED950010FE96EF2
:10273000000EDA20EA6EEECF27F0EECF28F0EECFD3
:1027400029F0EFCF2AF000C02CF001C02DF002C01C
:102750002EF003C02FF099EC07F02AC0EDFF29C03E
:10276000EDFF28C0EDFF27C0EFFF010EDBCF00F02B
:10277000020EDBCF01F0030EDBCF02F0040EDBCF45
:1027800003F000C026F001C027F002C028F003C00B
:1027900029F0060EE15C02E2E16AE552E16EE552E3
:0A27A000E5CFDAFFE7CFD9FF120002
:0627AA001E0EF66E000E8B
:1027B000F76E000EF86E00010900F550E56F090094
:1027C000F550E66F03E1E56701D03DD00900F55013
:1027D000E06F0900F550E16F0900F550E26F090064
:1027E0000900F550E96E0900F550EA6E090009008C
:1027F0000900F550E36F0900F550E46F0900090086
:10280000F6CFE7F0F7CFE8F0F8CFE9F0E0C0F6FF59
:10281000E1C0F7FFE2C0F8FF0001E35302E1E45337
:1028200007E00900F550EE6EE307F8E2E407F9D798
:10283000E7C0F6FFE8C0F7FFE9C0F8FF0001E507D1
:08284000000EE65BBFD7120099
:08284800D9CFE6FFDACFE6FF6D
:10285000E1CFD9FFE2CFDAFFBA6AA66AFD0EDBB09C
:10286000BA88DBA202D0BA8CA68CDBB4BA8EDBA607
:1028700002D0A68801D0A68ADBA802D0BA8401D0F3
:10288000BA94DBBAA686DBAC02D0A38A01D0A39AA5
:10289000DBAE02D0A38801D0A398FB0EDB507B6E89
:1028A000FC0EDBCF01F001C000F0016A00507C6E2D
:1028B000BA8AA68EE552E5CFDAFFE7CFD9FF12003C
:1028C000D9CFE6FFDACFE6FFE1CFD9FFE2CFDAFFDB
:1028D000E652E652D950FD0F006EFF0EDA2000C01E
:1028E000DEFFDD6EDECFE9FFDDCFEAFFEF9EFA0E01
:1028F000DBCF00F0FB0EDBCF01F0FC0EDBCF02F0F4
:10290000FD0EDBCF03F000C026F001C027F002C0AF
:1029100028F003C029F0E552E552E552E5CFDAFF91
:06292000E7CFD9FF120011
:0A292600D9CFE6FFDACFE6FFE1CFDC
:10293000D9FFE2CFDAFF010EE66ED950FA0FE96E49
:10294000FF0EDA20EA6EEECFE6FFEECFE6FFEECF27
:10295000E6FFEFCFE6FF14EC0EF0006E050EE15C33
:1029600002E2E16AE552E16E0050E552E5CFDAFF9E
:06297000E7CFD9FF1200C1
:0A297600D9CFE6FFDACFE6FFE1CF8C
:10298000D9FFE2CFDAFFE66AD950FA0FE96EFF0EFF
:10299000DA20EA6EEECFE6FFEECFE6FFEECFE6FFFF
:1029A000EFCFE6FF14EC0EF0006E050EE15C02E2E4
:1029B000E16AE552E16E0050E552E5CFDAFFE7CF7C
:0429C000D9FF120029
:0C29C400256A246A236A226A200EE76E4E
:1029D000D89026362736283629362236233624360E
:1029E00025362B50225C2C5023582D5024582E5025
:1029F000255809E32B50225E2C50235A2D50245A7F
:0C2A00002E50255A262AE72EE4D712009B
:042A0C00FB0EE3CF0B
:102A1000F6FFFC0EE3CFF7FFFD0EE3CFF8FFFE0E4F
:102A2000E3CFE9FFFF0EE3CFEAFFE9CFF3FFEACF01
:102A3000F4FFF90EE35003E1FA0EE35009E0F90E5A
:102A4000E30602E2FA0EE3060900F5CFEEFFF1D746
:022A5000120072
:0E2A5200D9CFE6FFDACFE6FFE1CFD9FFE2CF22
:102A6000DAFFE652E652FC0EDBCFDEFFDBCFDDFF06
:102A7000010EDB50D76EDF50D66EE552E552E552BF
:0A2A8000E5CFDAFFE7CFD9FF12001F
:062A8A00D9CFE6FFDACF10
:102A9000E6FFE1CFD9FFE2CFDAFFFD0EDB507F0B7F
:102AA000D56ED76AD66AF294FD0EDBAE02D0F28AFA
:102AB00001D0F29AD58EE552E5CFDAFFE7CFD9FF04
:022AC000120002
:0E2AC200D9CFE6FFDACFE6FFE1CFD9FFE2CFB2
:102AD000DAFFFD0EDB50FB0BCA6ECC6A9E92FD0E38
:102AE000DBAE02D09D8201D09D92CA84E552E5CF33
:082AF000DAFFE7CFD9FF120065
:082AF800410EF36E00EE00F048
:102B00000E0E01D81200EA6002D0EE6AFCD7F35034
:082B1000E9601200EE6AFCD737
:082B18001DEE00F02DEE00F0AF
:102B2000F86A219CD5EC13F003EC00F03FEC04F0C4
:042B3000FBD71200BD
:0C2B340000000000000000000000000095
:102B400000000000FFFF0000000000000000000087
:102B50000000000000000000000000000000000075
:102B60000000000000000000000000000000000065
:102B70000000000000000000000000000000000055
:102B80000000000000000000000000000000000045
:0D31B000000000006E736173706F6F6B00A4
:0331BD000100000E
:1031C00000000000000000800C0000000000000073
:0731D00000000000A0F44420
:020000040030CA
:0100000015EA
:0100010018E6
:010002007F7E
:0100030028D4
:0100050008F2
:010006009168
:010008000FE8
:01000900C036
:01000A000FE6
:01000B00E014
:01000C000FE4
:01000D0040B2
:00000001FF
