:020000040000FA
:0600000069EF16F012008A
:020006001200E6
:0600080094EF00F012006D
:060018001CEF00F01200D5
:02001E000200DE
:100020007C2F0000DA00000020000000EE2C000011
:08003000000600008E02000032
:08003800DACFE4FFE9CFE4FF99
:10004000EACFE4FFF3CFE4FFF4CFE4FFE6529EA251
:1000500064D09E92A80ECC6E8A688B6AC3EC09F0BD
:1000600085EC09F0EF5011E1E25153EC08F045EC5A
:1000700009F0EF50FF0808E077EC09F004E6800E85
:10008000345C000E3558EAE3E26BE25153EC08F0C1
:10009000EFCF34F0343431E2E25153EC08F0EE5259
:1000A000EFCF35F0353429E2010E0001A16FA26BCC
:1000B000A36FA46BC3EC09F0EF5006E00001D890E9
:1000C000A137A237E804FBE1C3EC09F0EE52EF5090
:1000D00006E00001D890A337A437E804FBE1C3ECA5
:1000E00009F085EC09F0EF5006E00001A11D8A6ED1
:1000F000A3C08BFF02D08A688B6AC3EC09F045EC81
:1001000009F0EF50FF0808E077EC09F004E6800EF4
:10011000345C000E355801E3E26BE552E5CFF4FFA5
:10012000E5CFF3FF70EF09F0DACFE4FFE2CFDAFFBB
:10013000E9CFE4FFEACFE4FFF6CFE4FFF7CFE4FF37
:10014000F8CFE4FFF5CFE4FFF3CFE4FFF4CFE4FF13
:10015000FACFE4FFFBCFE4FF00EE20F0140EE8043A
:1001600003E3EECFE4FFFBD700EE00F0200EE8043F
:1001700003E3EECFE4FFFBD7E652A350100B1FE0E2
:10018000A450100B1CE00001E751E919E8AE02D0C1
:10019000E93504D0E851E65DE951E75905E3BAA233
:1001A0000ED0A398DE6B0BD0E4C0E9FFE5C0EAFFF8
:1001B000EF50796EE62B000EE723E42BE523A4AA8B
:1001C00013D0A6A202D0A698A6887ACFA7F0A7C07F
:1001D00085F80001850EE46F080EE56FE66BE76BAE
:1001E000010EE86FE96BA388F2A42DD0F2940F0101
:1001F00055B313D08D8054910001DC6B010EDD6F7F
:100200008D82DF511F0BF36EF346F346830EC2144B
:10021000F310C26EC280C28216D08D905593000139
:10022000010EDC6FDD6FE9EC09F0810EE926000EAE
:10023000EA22EECFE6FFEFCFE6FF06EC16F0E5523E
:10024000E5520F0154819EAC4AD09E9C8D92C3CF43
:10025000A5F0C4CFA6F0A5C036F0A6C037F0040EB6
:10026000D89037323632E804FBE136C0A5F037C00B
:10027000A6F0F9EC08F000013650A55D3750A659FC
:100280000CE20001DF5103E1010EE06FE16BDF05DD
:1002900002E1E06BE16B8D840DD0F9EC08F0080E03
:1002A0003626000E37220001A551365CA65137587C
:1002B00001E28D94A6C0B3FFA5C0B2FF0001010EFC
:1002C000DB6FDD6B0F01558F549154935583380EBE
:1002D000E66EC70EE66E06EC16F0E552E552E55204
:1002E00000EE1FF0200EE80403E3E5CFEDFFFBD79F
:1002F00000EE33F0140EE80403E3E5CFEDFFFBD787
:10030000E5CFFBFFE5CFFAFFE5CFF4FFE5CFF3FF45
:10031000E5CFF5FFE5CFF8FFE5CFF7FFE5CFF6FF37
:1003200070EF09F0D9CFE6FFE1CFD9FF0001EA6B0A
:10033000EB6BEC6BED6BFE0EDBCFE6FF79D8E55295
:100340000001DB6B0001DB5102E10400FBD700017F
:10035000A86BA96B080E0001A9AF02D0D89003D0FA
:10036000A85D000EA95922E20001DB6B0001DB5100
:1003700002E10400FBD7E66AFE0EDBCFE6FFD4D82D
:10038000E552E552F3CF00F0F4CF01F00001005048
:100390000001EA27000101500001EB23000EEC23CD
:1003A000ED230001A82B000EA923D4D7EAC000F04A
:1003B000EBC001F0026A036A080E2B6E2C6A2D6AEC
:1003C0002E6A00C026F001C027F002C028F003C04A
:1003D00029F030EC0BF026C000F027C001F028C057
:1003E00002F029C003F0FE0EEA6ADB34FE0BEA36A7
:1003F000E96E610EE926000EEA2200C0EEFF01C0A0
:10040000EDFFFE0EEA6ADB34FE0BEA36E96E610EA2
:10041000E926000EEA22EECF00F0EFCF01F000C097
:10042000F3FF01C0F4FF00D0E552E7CFD9FF12007F
:10043000D9CFE6FFE1CFD9FFFE0EDB50030801E282
:1004400011D00001DD5102E00400FBD7F29EFE0E48
:10045000DBCFDFF00001DB6BF28E0001DB5102E14C
:100460000400FBD7E552E7CFD9FF1200ACEC09F04E
:100470000F01556B900E546F010E536FFE0EDB5043
:100480000E0A17E0030A0FE0010A07E0070A18E165
:10049000ADEC08F0EE6AFA0E11D0ADEC08F0670E84
:1004A000EE6EF00E0BD0ADEC08F0E80EEE6EFD0E29
:1004B00005D0ADEC08F04F0EEE6EF40EED6E07D0E9
:1004C000ADEC08F0780EEE6EED687D0E536FFE0E0B
:1004D000DB50020807E1020E536FADEC08F0780E16
:1004E000EE6EED685D819280C08EC70EC014380933
:1004F000C06EF80EC0140609C06ECF0EC1143009CC
:10050000C16EC196F80EC1140009C16E830EC214EB
:100510000009C26EC2809D8CB190B182B36AB26A8A
:10052000F36AF46AECEF08F0ACEC09F00001DB517F
:100530003EE0B2CFAAF0B3CFABF03F0E0001AA1558
:10054000AA6FAB6BFD0EDB5005E1AAC0F3FFABC099
:10055000F4FF31D03AEC09F0EECF00F0EFCF01F02C
:100560000050AA5D0150AB590EE23AEC09F0AA51D5
:10057000EE5C0001EE6F0001AB51EE5800011F0E62
:10058000EE15EE6FEF6B0001F251F31107E1FD0E76
:10059000DB5004E0EEC0F2F0EFC0F3F0EEC0F0F09C
:1005A000EFC0F1F0EEC0F3FFEFC0F4FF04D0F0C0F5
:1005B000F3FFF1C0F4FFECEF08F0800EE66E020EE0
:1005C000E66E9E0EE66E230EE66E000EE66E000EE2
:1005D000E66E060EE66EE3EC15F0006E070EE15EC9
:1005E00000501200ACEC09F0FD0EDB5005E00001FC
:1005F000F46B9AEC09F0ABD00001F56B050E00012D
:10060000B06FB16BB0C0E6FFB1C0E6FF9E0E036EE7
:10061000230E046E000E056EFE0EDB500001F52564
:10062000066E076A086A050E2C6E2D6A2E6A06C0D1
:1006300027F007C028F008C029F064EC0BF024C0B4
:1006400006F025C007F026C008F003502424F36EFE
:1006500004502520F46E05507EEC09F0F6CF00F032
:10066000F7CF01F0F8CF02F000C0E6FF01C0E6FFCF
:1006700002C0E6FF0001F451F52553EC08F0E9CF84
:1006800009F0EACF0AF0E9CFE6FFEACFE6FFE3ECB4
:1006900015F00B6E070EE15E0B500001F52B9E0E60
:1006A000016E230E026E000E036EFE0EDB50F5256A
:1006B000046E056A066A050E2C6E2D6A2E6AF0EC31
:1006C00009F064EC0BF001502424F36E0250252055
:1006D000F46E03507EEC09F0040EF626000EF722AD
:1006E000F8220800F5CF00F0FE0EDB50005C8AE037
:1006F0000001F4510001AE6FAF6B0001F451F5251C
:100700000001AFAF02D0D89003D0AE5D000EAF595C
:1007100017E20001F4510001016AAE25006EAF51ED
:10072000012208EC09F045EC09F000C0EFFF08ECED
:1007300009F012EC0AF0F4C0EFFFAE2BAF23DDD7C7
:100740000001F551F4279AEC09F0F551F45DECEF56
:1007500008F0BFEC08F002E647EC09F007E205EC10
:100760000AF085EC09F0FD0EDBCFEFFFECEF08F0AF
:10077000ACEC09F0FA0EDBCF00F0FB0EDBCF01F0A2
:10078000FC0EDBCF02F0FD0EDBCF03F0F6C02CF049
:10079000F7C02DF0F8C02EF0F9C02FF000C027F000
:1007A000BCEC09F0D4EC0BF0010A46E0290E276EF0
:1007B0005C0E286E8F0E296E3C0E2A6E1AEC09F024
:1007C00027C0B2F028C0B3F029C0B4F02AC0B5F0F9
:1007D00027C0E6FF28C0E6FF29C0E6FF2AC0E6FFE3
:1007E00098EC15F000EC0AF026C0CAF027C0CBF058
:1007F00028C0CCF029C0CDF0B2C0E6FFB3C0E6FF00
:10080000B4C0E6FFB5C0E6FF70EC15F000EC0AF0EE
:1008100026C0C6F027C0C7F028C0C8F029C0C9F05C
:10082000FA0EDBCFF6F0FB0EDBCFF7F0FC0EDBCFE2
:10083000F8F0FD0EDBCFF9F0F7EC09F027C0B6F0C9
:1008400028C0B7F029C0B8F02AC0B9F0E5EC09F02B
:1008500027C0BAF028C0BBF029C0BCF02AC0BDF048
:10086000F90EDB504FE07FEC08F0C7EC09F05DECCF
:1008700008F0D0EC09F0C7EC08F02CEC0AF0F0EC32
:1008800008F0F50EDBCF1CF0F60EDBCF1DF0F70EF7
:10089000DBCF1EF0F80E2EEC09F04CEC09F07FECEB
:1008A00008F0D0EC09F05DEC08F0C7EC09F0C7ECFB
:1008B00008F02DEC0AF0F0EC08F0F10EDBCF1CF0A4
:1008C000F20EDBCF1DF0F30EDBCF1EF0F40E2EEC9C
:1008D00009F055EC09F0BEC0E6FFBFC0E6FFC0C09E
:1008E000E6FFC1C0E6FFDDEC08F014EC0AF0C2C080
:1008F000E6FFC3C0E6FFC4C0E6FFC5C0E6FFDDEC0F
:1009000008F02AD05EEC09F009EC0AF067EC09F077
:10091000B8EC08F02CEC0AF04CEC09F067EC09F0AC
:1009200009EC0AF05EEC09F0B8EC08F02DEC0AF0E6
:1009300055EC09F0BEC027F0BFC028F0C0C029F0B8
:10094000C1C02AF014EC0AF0C2C027F0C3C028F0DE
:10095000C4C029F0C5C02AF00EEF0AF0ACEC09F0D3
:1009600005EC0AF0FD0EDB50EF2605EC0AF0EE5226
:10097000FC0EDB50EF26ECEF08F0ACEC09F0F7ECE6
:1009800009F027C0CEF028C0CFF029C0D0F02AC08F
:10099000D1F0E5EC09F027C0D2F028C0D3F029C08F
:1009A000D4F02AC0D5F0CEC027F0CFC028F0D0C0F8
:1009B00029F0D1C02AF0ADEC0BF01DEC0AF01AECD6
:1009C00009F014EC0AF0D2C027F0D3C028F0D4C04C
:1009D00029F0D5C02AF0ADEC0BF01DEC0AF0F60EB4
:1009E000DBCF2CF0F70EDBCF2DF0F80EDBCF2EF0A7
:1009F000F90EDBCF2FF0C3EC0AF00EEF0AF0BFDBED
:100A000002E647EC09F020E20001D66B100ED65D3D
:100A10001BE2FE0EDB50D625E2EC09F015E1D950C1
:100A2000F10F8EDBD950F50F8BDBF90EDBCFE6FF34
:100A3000FAEC09F0D625E66E9BDE006E0E0EE15E46
:100A400000500001D62BE2D7C7D399DB02E647EC72
:100A500009F01CE20001D76B100ED75D17E2FE0E05
:100A6000DB50D725E2EC09F011E1FC0EDBCFE6FF0D
:100A7000FD0EDBCFE6FFFE0EDB50D725E66E6EDF08
:100A8000E552E552E5520001D72BE6D7A5D377DB37
:100A900002E647EC09F01AE20001D86B100ED85DAF
:100AA00015E2FE0EDB50D825E2EC09F00FE1D9503B
:100AB000F60F46DBFAEC09F0D825E66E5EDF006E35
:100AC000090EE15E00500001D82BE8D785D357DB33
:100AD00001E6DDDB18E20001D96B100ED95D13E2EF
:100AE000FE0EDB50D925E2EC09F00DE1FD0EDBCF67
:100AF000E6FFFE0EDB50D925E66E2BDEE552E55211
:100B00000001D92BEAD768D3F28C1200F29C8A68D4
:100B10008B6A1200D9CFE6FFE1CFD9FF190EE1268B
:100B2000DE6ADD6A010EF36E020EF3CFDBFF010E0B
:100B3000F36E030EF3CFDBFF090EF36E060EF3CF59
:100B4000DBFF070EDB6A080EDB6A090EDB6A0A0EA2
:100B5000DB6A1E0EF36E0B0EF3CFDBFF0C0EDB6AAF
:100B60000D0EDB6A0E0EDB6A110EDB6A120EDB6AFB
:100B7000130EDB6A140EDB6A150EDB6A160EDB6AD7
:100B8000800EF36E170EF3CFDBFF3F0EF36E180EE1
:100B9000F3CFDBFF12DD0F0E926E896A0F010F0E8D
:100BA0005D6F0F015C6B936A8A68946A8B68956AC3
:100BB0008C6A966A8D6A700ED36EC00E9B6E906AB8
:100BC0009F0EE66E22EC16F0E552380EE66EC70E6A
:100BD000E66E06EC16F0E552E552FD0EE66E3EECD2
:100BE00016F0E5529F92A80ECC6E670EE66EE66A8E
:100BF000EC0EE66E01EC15F0E552E552E552D08EB2
:100C0000F28EF28C0001606BE66A0D0EE66E2EDC51
:100C1000E552E552010EE66E0D0EE66E27DCE5525A
:100C2000E552020EE66E0D0EE66E20DCE552E55250
:100C3000030EE66E0D0EE66E19DCE552E552E66A2D
:100C400092EC01F0E552F3CFDEFFF4CFDDFF010EB1
:100C5000E66E92EC01F0E552F3CFDEFFF4CFDDFF5C
:100C6000020EE66E92EC01F0E552F3CFDEFFF4CF18
:100C7000DDFF030EE66E92EC01F0E552F3CFDEFFEE
:100C8000F4CFDDFF0001606B00016051030801E259
:100C9000FFD160C0E6FF18EC02F0E55200016051A0
:100CA0000AE1E66A60C0E6FF3FDCE552E552040E69
:100CB000F3CFDBFF06D0E66A60C0E6FF35DCE55225
:100CC000E5520400D950070FE96EDACFEAFFEF2AA8
:100CD000EECF00F0000EEF22EECF01F0EF22EECFCC
:100CE00002F0EF22EFCF03F0D9500B0FE96EDACF0D
:100CF000EAFFEE50005CEE500158EE500258EE5004
:100D0000035801E2C2D1F29C0001E051E11168E117
:100D10001E0EF36E0B0EF3CFDBFF0C0EDB6A0D0E17
:100D2000DB6A0E0EDB6A010EE66EE66A5BDCE552FC
:100D3000E552E66A060EDBCFE6FF54DCE552E552EB
:100D4000E76E0F0EE7CFDBFFD950150FE96EDACF54
:100D5000EAFFEECFE6FFEECFE6FFEECFE6FFEFCF06
:100D6000E6FFD950150FE96EDACFEAFFEECFE6FFC6
:100D7000EECFE6FFEECFE6FFEFCFE6FF0F0EDBCFC5
:100D8000E6FF85DE006E090EE15E0050E66AE66A67
:100D9000E66AE66AE66AE66AE66AE66AE66AD950FA
:100DA000110FE96EDACFEAFFEECFE6FFEECFE6FFF6
:100DB000EECFE6FFEFCFE6FF0F0EDBCFE6FF1FDE45
:100DC000006E0E0EE15E0050030EE66E030EE66E40
:100DD0000F0EDBCFE6FF39DEE552E552E5529CD03F
:100DE0003C0EF36E0B0EF3CFDBFF0C0EDB6A0D0E29
:100DF000DB6A0E0EDB6ADDEC02F0E66AE66AE66AA2
:100E0000E66AE66AE66A400EE66E400EE66E010E9F
:100E1000E66E046A056AB40E066E430E076E110E86
:100E2000DBCF08F0120EDBCF09F0130EDBCF0AF098
:100E3000140EDBCF0BF008C02CF009C02DF00AC057
:100E40002EF00BC02FF004C027F005C028F006C01C
:100E500029F007C02AF02CEC0AF027C000F028C0C7
:100E600001F029C002F02AC003F000C0E6FF01C073
:100E7000E6FF02C0E6FF03C0E6FFE66AC0DD0C6ED7
:100E80000E0EE15E0C50E66AE66AE00EE66E400E7B
:100E9000E66EE66AE66A400EE66E400EE66E010E0B
:100EA000E66E046A056AB40E066E430E076E110EF6
:100EB000DBCF08F0120EDBCF09F0130EDBCF0AF008
:100EC000140EDBCF0BF008C02CF009C02DF00AC0C7
:100ED0002EF00BC02FF004C027F005C028F006C08C
:100EE00029F007C02AF02CEC0AF027C000F028C037
:100EF00001F029C002F02AC003F000C0E6FF01C0E3
:100F0000E6FF02C0E6FF03C0E6FF0D0EE66E77DDEA
:100F10000C6E0E0EE15E0C50F28CF6DD006A016A7A
:100F2000400E026E410E036ED950110FE96EDACFFA
:100F3000EAFFEECF27F0EECF28F0EECF29F0EFCF8B
:100F40002AF000C02CF001C02DF002C02EF003C02A
:100F50002FF02DEC0AF02AC0EDFF29C0EDFF28C0CC
:100F6000EDFF27C0EFFF110EDBCF00F0120EDBCF3D
:100F700001F0130EDBCF02F0140EDBCF03F02C6A6E
:100F80002D6AB40E2E6E430E2F6E00C027F001C0E6
:100F900028F002C029F003C02AF0DBEC0BF0010AB4
:100FA0006CE1110EDB6A120EDB6A130EDB6A140EA3
:100FB000DB6ACD0E006ECC0E016ECC0E026E3D0EC5
:100FC000036ED950150FE96EDACFEAFFEECF27F0A6
:100FD000EECF28F0EECF29F0EFCF2AF000C02CF0B2
:100FE00001C02DF002C02EF003C02FF02CEC0AF04F
:100FF0002AC0EDFF29C0EDFF28C0EDFF27C0EFFF9D
:10100000150EDBCF00F0160EDBCF01F0170EDBCF95
:1010100002F0180EDBCF03F0CD0E2C6ECC0E2D6E31
:10102000CC0E2E6E3D0E2F6E00C027F001C028F0B2
:1010300002C029F003C02AF0E4EC0BF0010A1DE124
:10104000150EDB6A160EDB6A800EF36E170EF3CFF9
:10105000DBFF3F0EF36E180EF3CFDBFF060EDB5007
:10106000090806E10D0EF36E060EF3CFDBFF05D087
:10107000090EF36E060EF3CFDBFF070EDB6A080ED8
:10108000DB6A090EDB6A0A0EDB6A0001602BFCD505
:10109000F9D5190EE15C02E2E16AE552E16EE55232
:1010A000E7CFD9FF1200050DF3CFE9FFF4CFEAFF38
:1010B000000EE926060EEA22120053D9F10EDBCF0C
:1010C00018F0F20EDBCF19F0F30EDBCF1AF0F40EAE
:1010D000DBCF1BF018C02CF019C02DF01AC02EF079
:1010E0001BC02FF066D92CEC0AF027C014F028C0E2
:1010F00015F029C016F02AC017F091EF09F0F50E8F
:10110000DBCF0CF0F60EDBCF0DF0F70EDBCF0EF0E1
:10111000F80EDBCF0FF00CC02CF00DC02DF00EC080
:101120002EF00FC02FF00FD92CEC0AF027C008F0DA
:1011300028C009F029C00AF02AC00BF091EF09F08D
:10114000E96EFF0EDA20EA6EEECFE6FFEECFE6FFA5
:10115000EECFE6FFEFCFE6FF1200FD0EEA6ADB34CA
:10116000FE0BEA36E96E810EE926000EEA22120035
:1011700020D9F7D8D6D800C027F0BCEF09F0ECD8BA
:10118000FE0EDB50006E016AD89001501200C3ECD5
:101190000AF027C010F028C011F029C012F02AC0B0
:1011A00013F0BFD81DD907C02AF012003BD9EFCFEA
:1011B00000F0FE0EDB50005C12002AEC14F020D987
:1011C00026C000F027C001F028C002F029C003F0BB
:1011D00026C027F0BCEF09F0E552E7CFD9FF120097
:1011E00027C000F028C001F029C002F02AC003F097
:1011F00012000001EED8610EE926000EEA22EECFC1
:1012000036F0EFCF37F0200E365E000E375A120060
:10121000AEC0E9FFAFC0EAFF050EEA02F3CFEAFF76
:10122000E902F3CFE9FFF450EA26000EE926060EA4
:10123000EA221200FA0EDBCF2CF0FB0EDBCF2DF0F2
:10124000FC0EDBCF2EF0FD0EDBCF2FF0C3EF0AF04C
:10125000EFCF00F000C029F01DEF0AF0DBCF1FF048
:101260001CC02CF01DC02DF01EC02EF01FC02FF092
:101270002DEF0AF0FE0EEA6ADB34FE0BEA36E96E69
:10128000610EE926000EEA221200030ED0D0800E75
:10129000005C000E0158120027C0BEF028C0BFF04D
:1012A00029C0C0F02AC0C1F0120027C0C2F028C077
:1012B000C3F029C0C4F02AC0C5F01200CAC02CF087
:1012C000CBC02DF0CCC02EF0CDC02FF01200C6C088
:1012D0002CF0C7C02DF0C8C02EF0C9C02FF01200EE
:1012E000E5CFEAFFE5CFE9FFE5CFDAFF1100E22B1A
:1012F000E251346E356AD890355012002620F86ECF
:10130000F4CFF7FFF3CFF6FF1200020E90D0E552B4
:10131000E750EF6E1200ADEC0BF02950E66E05EFD2
:101320000AF027C02CF028C02DF029C02EF02AC0CA
:101330002FF01200F451B7DEA8DFEF68F451B3DEEE
:1013400071D8EF681200B6C027F0B7C028F0B8C057
:1013500029F0B9C02AF01200D9CFE6FFE1CFD9FFBA
:101360001200C3EC0AF027C004F028C005F029C021
:1013700006F02AC007F0120001C028F002C029F0D0
:1013800003C02AF012000001E25153EF08F0CAC076
:1013900027F0CBC028F0CCC029F0CDC02AF0120035
:1013A000C6C027F0C7C028F0C8C029F0C9C02AF0BD
:1013B0001200BAC027F0BBC028F0BCC029F0BDC0E5
:1013C0002AF0120070DED6EF08F01FD8EE5228EF98
:1013D00009F0DF51E96EEA6AD890E936EA36120080
:1013E00004C027F005C028F006C029F012000DD86F
:1013F00028EF09F0D950FA0FA3DEFE0EDB501200E1
:10140000E552E552E552E5521200FE0EDB5053EF75
:1014100008F099DFC3EC0AF0F0EF08F07CDFEE5241
:1014200076DFDAD6040E03D076DF87EF09F0E926FF
:06143000000EEA2212008A
:0A143600219E05D0219E29AE02D0B0
:10144000296C218E29C023F0226A336A326A860E03
:10145000246E256A5EEF0CF02F7E216A9AEC0CF068
:10146000B2EC0CF021B642EF0CF021A20AD021AA76
:1014700003D021BE42EF0CF021A44EEF0CF04BEF55
:101480000CF021AA05D021AC4EEF0CF04BEF0CF084
:1014900021A00AD021A808D021BE04D021A402D0C6
:1014A00057EF0CF05BEF0CF0326A256A2F502A5C84
:1014B000316E10E327C033F028C022F029C023F09A
:1014C0002AC030F02CC027F02DC028F02EC029F003
:1014D000213A09D02CC033F02DC022F02EC023F0C9
:1014E0002FC030F0316C219E21BC218E30C024F001
:1014F00021B08AEF0CF01A0E31608AEF0CF0246AEA
:101500002A6A21A408D0276C281E291E2A1EE86AF0
:10151000282229222A2221AC08D0336C221E231E25
:10152000241EE86A222223222422266A315207E05E
:101530002A342932283227322632312EF9D7275041
:10154000332628502222295023222A50242226C022
:1015500032F0219E24AE0BD0326C331E221E231E8D
:10156000241EE86A3322222223222422218E24A050
:1015700006D0D8802332223233323232302A30C081
:1015800024F05EEF0CF0216A9AEC0CF0B2EC0CF057
:1015900021B642EF0CF021A205D021B842EF0CF0A9
:1015A00049EF0CF021AA05D021B042EF0CF049EF31
:1015B0000CF021B002D021A802D055EF0CF0256A22
:1015C0002F502A24246EE86A25227E0E245EE86AC3
:1015D000255A326A336A226A236A2E502902F4CFCE
:1015E00023F0F3CF22F02D502902F3503326F4508C
:1015F0002222000E23222E502802F3503326F450CC
:101600002222000E23222C502902F3503226F450BD
:101610003322000E222223222D502802F35032269C
:10162000F4503322000E222223222E502702F350A0
:101630003226F4503322000E222223222C5028027C
:10164000F4503226000E3322222223222D5027026C
:10165000F4503226000E3322222223225EEF0CF0B9
:10166000206AE86A2EAE3DEF0BF02B6C2C1E2D1E6F
:101670002E1E2C222D222E22201E29AE48EF0BF0EA
:10168000266C271E281E291E272228222922201EDA
:10169000BFEC15F029BE5FEF0BF020AE000C266CFE
:1016A000271E281E291EE86A272228222922226CAA
:1016B000231E241E251E232224222522000C20BEA8
:1016C0004FEF0BF02188FF0C29C033F028C032F017
:1016D00027C031F027502C02F4CF25F0F3CF24F0AF
:1016E00028502D02F4CF27F0F3CF26F02C02F35030
:1016F0002526F4502622E86A272231502D02F35085
:101700002526F4502622E86A272229502C02F3507D
:101710002626F450272229502D02286AE86A28221A
:10172000F3502726F450282231502E02F35026265B
:10173000F4502722296AE86A2822292232502E02F0
:10174000F3502726F4502822E86A292233502E022B
:10175000F3502826F4502922000C216A9AEC0CF050
:1017600021B6B7EF0BF021A20AD021B403D07F0E2F
:10177000296E19D0800E296E16D0296A14D021B096
:10178000FCD7870E2A60F1D77E0E2A64F6D7860E24
:101790002A5C04E0D89029322A2AF9D721A403D060
:1017A000296C29AEEAD71200EDEC0BF021B6000C43
:1017B00021B0010C000CEDEC0BF021B6000C21B0B7
:1017C000000C21B4000C010CEDEC0BF021B6000C68
:1017D00021B0000C21A4000C010C216A9AEC0CF041
:1017E000B2EC0CF021B6120021AE08D021A004D03A
:1017F00021A802D021801200219012002F502A5CD3
:101800000BE12E50295C08E12D50285C05E12C509D
:10181000275C02E121801200D8A002D0218E10D0D6
:101820002A502FC02AF02F6E29502EC029F02E6E7C
:1018300028502DC028F02D6E27502CC027F02C6E7C
:101840002F502A5C10E0FF0F09E0219021B403D053
:1018500021AE2184120021AE219412002F2AD890AB
:101860002E322D322C322C50275E2D50285A2E50DD
:10187000295A29BEEAD7D8902736283629362A2E63
:10188000F8D7C8D77F0E2A6EFF0E296E286E276EF6
:1018900012007F0E21BEFF0E2A6E02D07F0E2A6E2E
:1018A000800E296E286A276AF3D721AE04D0800EF5
:1018B0002A6E296AF7D72A6A296AF4D72350221098
:1018C00033103210F8E025BEF0D723BE0CD02450E0
:1018D0002510EBE0D89032363336223623362406F4
:1018E000D8A02506F2D72550D4E12428D2E032AE84
:1018F00011D07F0E321402E133A00CD0332AE86AF3
:101900002222232207E3D880233222323332242AB0
:101910002428BFE02450C9E033C027F022C028F0BB
:101920002334296E24302A6E29322A9E21BE2A8E23
:1019300048EF0CF029362A3602E32184217E06E1A5
:1019400021802A6A296A286A276A12002A2803E065
:10195000D88029321200D890293202E12182120067
:10196000218612002E362F3602E3218C217E06E1DD
:1019700021882F6A2E6A2D6A2C6A12002F2803E014
:10198000D8802E321200D8902E32EAE1218A12003D
:10199000219E08D0219E29AE05D0286C291EE86A18
:1019A0002922218E29C023F028C022F0336A326A0E
:1019B0008E0E246E256A5EEF0CF0219E0CD0219EC7
:1019C00029AE09D0266C271E281E291EE86A272268
:1019D00028222922218E29C023F028C022F027C0E6
:1019E00033F026C032F09E0E246E256A5EEF0CF0B6
:1019F000216A9AEC0CF0B2EC0CF021B642EF0CF03C
:101A000021A205D021BA42EF0CF049EF0CF021BA27
:101A100055EF0CF021A005D021B842EF0CF055EFA6
:101A20000CF021B849EF0CF0256A7F0E2A24246EB1
:101A3000E86A25222F50245EE86A255A1A0E306E75
:101A40002A6A326A336A226A236A2C50275E2D5032
:101A5000285A2E50295A000E2A5A09E72C502726B8
:101A60002D5028222E502922000E2A2201D0328AFF
:101A7000D8902736283629362A36D890323633364B
:101A800022362336302EE1D7295028102710D8A42B
:101A9000328A5EEF0CF0216A9AEC0CF021B655EF19
:101AA0000DF021A20ED021B405D07F0E296EFF0EBD
:101AB000286E1FD0800E296E286A1BD0296A286ADA
:101AC00018D021B0FBD78F0E2A60EDD77E0E2A6486
:101AD000F5D78E0E2A5C05E0D890293228322A2AC2
:101AE000F8D721A406D0286C291EE86A292229AE3D
:101AF000E5D71200216A9AEC0CF021B684EF0DF0C4
:101B000021A20FD021B407D07F0E296EFF0E286EC0
:101B1000276E266E25D0800E296E01D0296A000E10
:101B2000F6D721B0FBD7266A9F0E2A60EBD77E0E30
:101B30002A64F4D79E0E2A5C07E0D8902932283216
:101B4000273226322A2AF6D721A40AD0266C271E4D
:101B5000281E291EE86A27222822292229AEDED73C
:021B6000120071
:0E1B6200D9CFE6FFDACFE6FFE1CFD9FFE2CF21
:101B7000DAFF220EE12402E3E168E652E16ED95079
:101B8000130FE66E000EDA20E66EA8DA0FEC13F003
:101B9000006E060EE15C02E2E16AE552E16E005081
:101BA000E76E0E0EE7CFDBFFDB50840B0CE0210E5F
:101BB0000001FA6FFB6B0F0EDB68100EDB68110E75
:101BC000DB687F0E6ED08ADA36DA020E26C0DBFFC3
:101BD000030E27C0DBFF040E28C0DBFF050E29C063
:101BE000DBFF87DA2C6A100E2D6E490E2E6E460E24
:101BF00014DAE4EC0BF0010A32E07BDA67DA0DDA92
:101C0000F8EC0CF0BFD9060EDBCF27F0070EDBCFC8
:101C100028F0080EDBCF29F0090EDBCF2AF07AEC92
:101C20000DF0DFEC0CF0AED964DA060EDBCF08F075
:101C3000070EDBCF09F0080EDBCF0AF0090EDBCF71
:101C40000BF044DA2F6E08C027F009C028F00AC054
:101C500029F00BC02AF048DA2CEC0AF0C4D9F90EAE
:101C6000DB5012E00E0EDB040BE1FA0EDBCF00F0CE
:101C7000FB0EDBCF01F0FC0EDBCF02F0FD0E52D1EC
:101C800067D92E6AF8D947D00E0EDB0419E10F0E82
:101C9000DB6A100EDB6A800EF36E110EF3CFDBFFF2
:101CA0003F0EF36E120EF3CFDBFF0F0EDBCF00F013
:101CB000100EDBCF01F0110EDBCF02F0120E32D18D
:101CC000190EDB6A45D9800E2E6ED5D9006A016ADD
:101CD000026A3F0E036ED950060FE96E000EDA203D
:101CE000EA6EEECF27F0EECF28F0EECF29F0EFCF5F
:101CF0002AF000C02CF001C02DF002C02EF003C06D
:101D00002FF02CEC0AF02AC0EDFF29C0EDFF28C00F
:101D1000EDFF27C0EFFFDF50010B0AE0190EDB508B
:101D200002E0000E01D0010EE76E190EE7CFDBFFD7
:101D30008CD9060EDBCF0CF0070EDBCF0DF0080EB2
:101D4000DBCF0EF0090EDBCF0FF02C6A2D6A490EA7
:101D50002E6E400E2F6E0CC027F00DC028F00EC066
:101D600029F00FC02AF0C3EC0AF05CD9A6D995D9A6
:101D70002CEC0AF077D9060EDBCF14F0070EDBCF80
:101D800015F0080EDBCF16F0090EDBCF17F0220E90
:101D90002C6EAA0E2D6E7D0E2E6E3A0E2F6E14C076
:101DA00027F015C028F016C029F017C02AF0C3ECA0
:101DB0000AF027C010F028C011F029C012F02AC084
:101DC00013F0EDD82CEC0AF00A0E27C0DBFF0B0E47
:101DD00028C0DBFF0C0E29C0DBFF0D0E2AC0DBFF85
:101DE000D9500A0FE96E000EEAD825D926C000F0B6
:101DF00027C001F028C002F029C003F02C6A2D6A28
:101E0000800E2E6E390E2F6E26C027F04FD9E4ECCF
:101E10000BF0010A13E1D9500A0FE96E000EDA2027
:101E2000EA6E020EEECFDBFF030EEECFDBFF040EF9
:101E3000EECFDBFF050EEECFDBFF68D0E1D80A0E58
:101E4000DBCF2CF00B0EDBCF2DF00C0EDBCF2EF00A
:101E50000D0EDBCF2FF0C3EC0AF01A0E27C0DBFF0C
:101E60001B0E28C0DBFF1C0E29C0DBFF1D0E2AC085
:101E7000DBFF5B0E276E9C0E286E2E0E296E360E33
:101E80002A6E72D8CFD8220E2C6EB20E2D6E4F0E47
:101E90002E6EB90E32D99ED83E0E2C6E870E2D6E48
:101EA000080E2E6E3C0E29D9DDD8A40E2C6EAA0E7B
:101EB0002D6E2A0E2E6EBE0E20D91E0E27C0DBFF01
:101EC0001F0E28C0DBFF200E29C0DBFF210E2AC019
:101ED000DBFF0A0EDBCF00F00B0EDBCF01F00C0EA8
:101EE000DBCF02F00D0EDBCF03F08AD81E0EDBCF66
:101EF0002CF01F0EDBCF2DF0200EDBCF2EF0210EAD
:101F0000DBCF2FF0F1D82DEC0AF06DD8190EDB5095
:101F100008E09BD82C6A2D6A800E2E6EBF0EF0D87A
:101F200003D042D8DBCF03F000C026F001C027F079
:101F300002C028F003C029F0220EE15C02E2E16A4F
:101F4000E552E16EE552E5CFDAFFE7CFD9FF1200A7
:101F50007CD8830E2C6EF90E2D6EA20E2E6E3E0EC8
:101F6000CFD82C6A2D6A12001A0EDBCF2CF01B0E74
:101F7000DBCF2DF01C0EDBCF2EF01D0EDBCF2FF0B4
:101F8000C3EF0AF0060E27C0DBFF070E28C0DBFFF9
:101F9000080E29C0DBFF090E2AC0DBFF12008DD816
:101FA00000C027F056EF10F0020EDBCF00F0030E5A
:101FB000DBCF01F0040EDBCF02F0050E1200DA20B9
:101FC000EA6EEECFE6FFEECFE6FFEECFE6FFEFCF15
:101FD000E6FF120027C004F028C005F029C006F073
:101FE0002AC007F01200020E27C0DBFF030E28C034
:101FF000DBFF040E29C0DBFF050E2AC0DBFF120049
:102000000A0EDBCF27F00B0EDBCF28F00C0EDBCF58
:1020100029F00D0EDBCF2AF012002F6E00C027F042
:1020200056EF10F027C008F028C009F029C00AF0C8
:102030002AC00BF012003DEC15F0E552E552E552D6
:10204000E55212002F6E2DEF0AF0020EDBCF04F0E6
:10205000030EDBCF05F0040EDBCF06F0050EDBCF61
:1020600007F0120027C000F028C001F029C002F0DC
:102070002AC003F012003F0EE5DF4BEC0DF028C044
:10208000DEFF29C0DDFF000EDFCF28F0010EDBCF21
:1020900029F0CAEC0CF0C2EF0FF004C027F005C025
:1020A00028F006C029F007C02AF0120001C028F06D
:1020B00002C029F003C02AF0120027C02CF028C06B
:1020C0002DF029C02EF02AC02FF01200DB0E2C6E4E
:1020D0000F0E2D6EC90E2E6E400E1200D950FA0F43
:1020E000E96EFF0EDFEF0FF0C3EC0AF073DFCFEF06
:1020F0000FF05ADFDBCF03F01200A4DFB4EF0FF0D4
:0C2100002F6ECBDFC3EC0AF032EF10F0C2
:04210C00D9CFE6FF42
:10211000DACFE6FFE1CFD9FFE2CFDAFF130EE124F9
:1021200002E3E168E652E16E0C0EDB6AD950FA0F69
:10213000E96EFF0EDA20EA6E080EEECFDBFF090E25
:10214000EECFDBFF0A0EEECFDBFF0B0EEECFDBFF99
:102150001FD9D950080F17D9EECFE6FFEECFE6FF13
:10216000EECFE6FFEFCFE6FF0FEC13F0006E060EAA
:10217000E15C02E2E16AE552E16E0050DF6E020EC0
:10218000DF5C01E0BCD0050EDBCF02F0060EDBCF3A
:1021900003F0F80EDB50025C006EF90EDB500358C2
:1021A000016E7F0E005E000E015A0D0E00C0DBFFB7
:1021B0000E0E01C0DBFF0D0E0E0EDBCF01F0000195
:1021C000800E01140AE0010EF36E0C0EF3CFDBFF5C
:1021D000070EDB5001E098D09DD00D0EDBCF00F054
:1021E0000E0EDBCF01F0D890015004E6170E005C14
:1021F000000E015801E39ED0046805687F0E066E4C
:10220000076A0D0EDB501F0B04C000F005C001F083
:1022100006C002F007C003F007E0D8900332023294
:1022200001320032E806F9E10F0E00C0DBFF100EAC
:1022300001C0DBFF110E02C0DBFF120E03C0DBFF8B
:102240000F0EDBCF00F0100EDBCF01F0110EDBCF55
:1022500002F0120EDBCF03F0D950010F94D8EE50EC
:102260000016EE500116EE500216EE500316005006
:1022700001100210031002E1000E01D0010EE76E02
:102280000C0EE7CFDBFFDB5055E0046A056A800ED9
:10229000066E076A010E086E096A0A6A0B6AD9504F
:1022A0000F0F71D8EE500826EE500922EE500A2288
:1022B000EE500B220850045C006E09500558016E68
:1022C0000A500658026E0B500758036ED950010F82
:1022D0005AD80050EE160150EE160250EE1603507A
:1022E000EE16D950080FE66E000EDA20E66E50D8D2
:1022F0009DEC13F0E552E552E552E5521BD0DF04A8
:1023000019E1070EDB5006E0006A016A026A800EDE
:10231000036E04D0006A016A026A036A080E00C0F4
:10232000DBFF090E01C0DBFF0A0E02C0DBFF0B0E54
:1023300003C0DBFFF60EDBCFE9FFF70EDBCFEAFFD2
:102340000C0EDBCFEFFF080EDBCF00F0090EDBCF6A
:1023500001F00A0EDBCF02F00B0EDBCF03F000C062
:1023600026F001C027F002C028F003C029F0130EA8
:10237000E15C02E2E16AE552E16EE552E5CFDAFFA7
:10238000E7CFD9FF1200E96E000EDA20EA6E1200E4
:0E239000D950010FE66E000EDA20E66E120044
:02239E00FFFD41
:1023A00001000000FE00010001FF01020002000127
:1023B0000300FF0001040001010105000002010605
:1023C00000FF03010700FE00010800FEFE010909ED
:1023D000FFFF010A090101010B090202010C0900BA
:1023E000FD010D0D0300010E0D0003010F0DFD0099
:1023F00001100D000000110D030301120D0000007B
:102400001313000000FFFF000000000000000000A8
:1024100000000000000000000000000000000000BC
:1024200000000000000000000000000000000000AC
:10243000000000000000000000000000000000009C
:10244000000000000000000000000000000000008C
:02261E00D9CF12
:10262000E6FFDACFE6FFE1CFD9FFE2CFDAFFE652ED
:10263000006801687F0E026E036AD950FA0FE96ED6
:10264000FF0EDA20EA6EEE500016EE500116EE5044
:102650000216EE5003166AD800C0EEFF01C0EEFF6E
:1026600002C0EEFF03C0EEFFFD0EDB50800B02E068
:10267000010E01D0000EE66E59D8060EE926000EB6
:10268000EA22E552E750EF6EFC0EDBCF00F0FD0EC4
:10269000DBCF01F0D89000360136FC0E00C0DBFF26
:1026A000FD0E01C0DBFFDB50E66E40D8040EE926CC
:1026B000000EEA22E552E750EE6EED6AFD0EDB50A9
:1026C000006E016AFF0E001818E1015016E12ED8C5
:1026D000EECF00F0EECF01F0EECF02F0EFCF03F03F
:1026E000005001100210031006E0210E0001FA6FE5
:1026F000FB6B800E0BD0040E09D0FD0EDB5008E101
:1027000015D8EE6AEE6AEE6AEE6A010EDF6E06D04A
:10271000020EDF6E0BD8EE52EE52EE8EDF50E55217
:10272000E552E5CFDAFFE7CFD9FF1200F80EDBCF95
:0A273000E9FFF90EDBCFEAFF12000B
:06273A00D9CFE6FFDACF63
:10274000E6FFE1CFD9FFE2CFDAFF5BD8013411E237
:102750000050FE08000E01540CE276D805E06CD85B
:10276000800EEE6EEE6847D067D8800EEE6E7F0E5C
:102770000ED047D8D890015004E6010E005C000E40
:1027800001580BE261D805E057D8EE6A800EEE6E74
:1027900032D052D8EE6AEE6A2ED047D8EECF00F093
:1027A000EECF01F0EECF02F0EFCF03F032D800C051
:1027B000EEFF01C0EEFF02C0EEFF03C0EEFF21D826
:1027C0000050010B05E025D8020E3AD8EF8E04D058
:1027D00020D8020E35D8EF9E14D8D890013200329E
:1027E00018D8030E2DD800C0EFFF1AD804E011D876
:1027F000030E26D8EF8EE552E5CFDAFFE7CFD9FFFB
:10280000120013D8040E1CD8EECF00F0EFCF01F069
:102810001200FA0EDBCFE9FFFB0EDBCFEAFF12005E
:1028200004D8060E0DD8EF501200FC0EDBCFE9FFE6
:10283000FD0EDBCFEAFF1200ECDFEE6AEE6A12005B
:10284000E926000EEA221200220E0001FA6FFB6B4D
:0428500010EF14F081
:0C285400D9CFE6FFDACFE6FFE1CFD9FFD5
:10286000E2CFDAFF060EE12402E3E168E652E16E10
:10287000D950050FE66E000EDA20E66E000EE66E09
:10288000E66AD950FA0FE96EFF0EDA20EA6EEECF53
:10289000E6FFEECFE6FFEECFE6FFEFCFE6FF86ECFA
:1028A00010F0006E080EE15C02E2E16AE552E16EB2
:1028B0000050010E26C0DBFF020E27C0DBFF030E17
:1028C00028C0DBFF040E29C0DBFF050EDB502AE029
:1028D000040EDB50800B26E1006A016A800E026E56
:1028E0003F0E036ED950010FE96E000EDA20EA6E3A
:1028F000EECF27F0EECF28F0EECF29F0EFCF2AF081
:1029000000C02CF001C02DF002C02EF003C02FF04B
:102910002DEC0AF02AC0EDFF29C0EDFF28C0EDFF25
:1029200027C0EFFF010EDBCF00F0020EDBCF01F07E
:10293000030EDBCF02F0040EDBCF03F000C026F065
:1029400001C027F002C028F003C029F0060EE15CA8
:1029500002E2E16AE552E16EE552E5CFDAFFE7CF48
:04296000D9FF120089
:0C2964001E0EF66E000EF76E000EF86EF0
:102970000E010900F550056F0900F550066F03E1DF
:10298000056701D03DD00900F550006F0900F550F2
:10299000016F0900F550026F09000900F550E96E5A
:1029A0000900F550EA6E090009000900F550036FAF
:1029B0000900F550046F09000900F6CF07FEF7CFB4
:1029C00008FEF8CF09FE00CEF6FF01CEF7FF02CEDB
:1029D000F8FF0E01035302E1045307E00900F5502C
:1029E000EE6E0307F8E20407F9D707CEF6FF08CE2C
:1029F000F7FF09CEF8FF0E010507000E065BBFD7F3
:022A00001200C2
:0E2A0200D9CFE6FFDACFE6FFE1CFD9FFE2CF72
:102A1000DAFFBA6AA66AFD0EDBB0BA88DBA202D082
:102A2000BA8CA68CDBB4BA8EDBA602D0A68801D005
:102A3000A68ADBA802D0BA8401D0BA94DBBAA686F3
:102A4000DBAC02D0A38A01D0A39ADBAE02D0A3886C
:102A500001D0A398FB0EDB507B6EFC0EDBCF01F0A8
:102A600001C000F0016A00507C6EBA8AA68EE55261
:0A2A7000E5CFDAFFE7CFD9FF12002F
:062A7A00D9CFE6FFDACF20
:102A8000E6FFE1CFD9FFE2CFDAFFE652E652D950B6
:102A9000FD0F006EFF0EDA2000C0DEFFDD6EDECF20
:102AA000E9FFDDCFEAFFEF9EFA0EDBCF00F0FB0E71
:102AB000DBCF01F0FC0EDBCF02F0FD0EDBCF03F02D
:102AC00000C026F001C027F002C028F003C029F0A2
:102AD000E552E552E552E5CFDAFFE7CFD9FF120024
:102AE000D9CFE6FFDACFE6FFE1CFD9FFE2CFDAFFB9
:102AF000010EE66ED950FA0FE96EFF0EDA20EA6E8B
:102B0000EECFE6FFEECFE6FFEECFE6FFEFCFE6FF3C
:102B1000B1EC0DF0006E050EE15C02E2E16AE552F7
:102B2000E16E0050E552E5CFDAFFE7CFD9FF1200A2
:102B3000D9CFE6FFDACFE6FFE1CFD9FFE2CFDAFF68
:102B4000E66AD950FA0FE96EFF0EDA20EA6EEECF90
:102B5000E6FFEECFE6FFEECFE6FFEFCFE6FFB1EC0C
:102B60000DF0006E050EE15C02E2E16AE552E16EF5
:0E2B70000050E552E5CFDAFFE7CFD9FF1200A3
:022B7E00256AC6
:102B8000246A236A226A200EE76ED89026362736FA
:102B90002836293622362336243625362B50225C19
:102BA0002C5023582D5024582E50255809E32B50D3
:102BB000225E2C50235A2D50245A2E50255A262A54
:062BC000E72EE4D712002D
:0A2BC600FB0EE3CFF6FFFC0EE3CF99
:102BD000F7FFFD0EE3CFF8FFFE0EE3CFE9FFFF0E98
:102BE000E3CFEAFFE9CFF3FFEACFF4FFF90EE350BA
:102BF00003E1FA0EE35009E0F90EE30602E2FA0EF1
:0C2C0000E3060900F5CFEEFFF1D712004B
:042C0C00D9CFE6FF37
:102C1000DACFE6FFE1CFD9FFE2CFDAFFE652E652A4
:102C2000FC0EDBCFDEFFDBCFDDFF010EDB50D76E0E
:102C3000DF50D66EE552E552E552E5CFDAFFE7CF39
:042C4000D9FF1200A6
:0C2C4400D9CFE6FFDACFE6FFE1CFD9FFE1
:102C5000E2CFDAFFFD0EDB507F0BD56ED76AD66A66
:102C6000F294FD0EDBAE02D0F28A01D0F29AD58E3C
:0C2C7000E552E5CFDAFFE7CFD9FF1200F4
:042C7C00D9CFE6FFC7
:102C8000DACFE6FFE1CFD9FFE2CFDAFFFD0EDB506E
:102C9000FB0BCA6ECC6A9E92FD0EDBAE02D09D820B
:102CA00001D09D92CA84E552E5CFDAFFE7CFD9FF84
:022CB000120010
:0E2CB200410EF36E00EE00F00E0E01D812007F
:102CC000EA6002D0EE6AFCD7F350E9601200EE6AC7
:022CD000FCD72F
:0E2CD2001DEE00F02DEE00F0F86A219CB2EC31
:0E2CE00014F003EC00F08AEC05F0FBD71200B4
:022CEE000000E4
:102CF00000FFFF00000000000000000000000000D6
:102D000000000000000000000000000000000000C3
:102D100000000000000000000000000000000000B3
:102D200000000000000000000000000000000000A3
:102D30000000000000000000000000000000000093
:0C2F70000000006E736173706F6F6B00E7
:042F7C000100000050
:102F800000000000000085080000000000000000B4
:0C2F9000000000000000000066B6F444E1
:020000040030CA
:0100000015EA
:0100010018E6
:010002007F7E
:0100030028D4
:0100050008F2
:010006009168
:010008000FE8
:01000900C036
:01000A000FE6
:01000B00E014
:01000C000FE4
:01000D0040B2
:00000001FF
