:020000040000FA
:0600000012EF12F01200E5
:020006001200E6
:0600080094EF00F012006D
:060018001CEF00F01200D5
:02001E000200DE
:100020004E290000D10000001E0000004024000006
:08003000000600000E050000AF
:08003800DACFE4FFE9CFE4FF99
:10004000EACFE4FFF3CFE4FFF4CFE4FFE6529EA251
:1000500064D09E92A80ECC6E8A688B6AFCEC08F085
:10006000E8EC08F0EF5011E1D75116EC08F0BAECCB
:1000700008F0EF50FF0808E0DAEC08F004E6000EA4
:10008000305C010E3158EAE3D76BD75116EC08F01B
:10009000EFCF30F0303431E2D75116EC08F0EE52A9
:1000A000EFCF31F0313429E2010E0001A06FA16BD6
:1000B000A26FA36BFCEC08F0EF5006E00001D890B3
:1000C000A037A137E804FBE1FCEC08F0EE52EF505A
:1000D00006E00001D890A237A337E804FBE1FCEC6E
:1000E00008F0E8EC08F0EF5006E00001A21D8A6E6F
:1000F000A0C08BFF02D08A688B6AFCEC08F0BAECD7
:1001000008F0EF50FF0808E0DAEC08F004E6000E13
:10011000305C010E315801E3D76BE552E5CFF4FFB7
:10012000E5CFF3FFD3EF08F0DACFE4FFE2CFDAFF59
:10013000E9CFE4FFEACFE4FFF6CFE4FFF7CFE4FF37
:10014000F8CFE4FFF5CFE4FFF3CFE4FFF4CFE4FF13
:10015000FACFE4FFFBCFE4FF00EE19F0140EE80441
:1001600003E3EECFE4FFFBD700EE00F0190EE80446
:1001700003E3EECFE4FFFBD7E652A350100B1FE0E2
:10018000A450100B1CE00001DC51DE19E8AE02D0D7
:10019000DE3504D0DD51DB5DDE51DC5905E3BAA26A
:1001A0000ED0A398D56B0BD0D9C0E9FFDAC0EAFF17
:1001B000EF50796EDB2B000EDC23D92BDA23A4AAB7
:1001C00013D0A6A202D0A698A6887ACFA6F0A6C081
:1001D00005FB0001050ED96F0B0EDA6FDB6BDC6BD4
:1001E000010EDD6FDE6BA388F2A42DD0F2940F0117
:1001F00055B313D08D8054910001D36B010ED46F91
:100200008D82D6511F0BF36EF346F346830EC21454
:10021000F310C26EC280C28216D08D905593000139
:10022000010ED36FD46F0CEC09F0800EE926000E9E
:10023000EA22EECFE6FFEFCFE6FFAFEC11F0E5529A
:10024000E5520F0154819EAC4AD09E9C8D92C3CF43
:10025000A4F0C4CFA5F0A4C032F0A5C033F0040EC2
:10026000D89033323232E804FBE132C0A4F033C01C
:10027000A5F067EC08F000013250A45D3350A55999
:100280000CE20001D65103E1010E2E6E2F6AD60555
:1002900002E12E6A2F6A8D840DD067EC08F0080EFB
:1002A0003226000E33220001A451325CA55133588E
:1002B00001E28D94A5C0B3FFA4C0B2FF0001010EFE
:1002C000D26FD46B0F01558F549154935583380ED0
:1002D000E66EC70EE66EAFEC11F0E552E552E55260
:1002E00000EE18F0190EE80403E3E5CFEDFFFBD7AD
:1002F00000EE2CF0140EE80403E3E5CFEDFFFBD78E
:10030000E5CFFBFFE5CFFAFFE5CFF4FFE5CFF3FF45
:10031000E5CFF5FFE5CFF8FFE5CFF7FFE5CFF6FF37
:10032000D3EF08F0D9CFE6FFE1CFD9FF0001DF6BB3
:10033000E06BE16BE26BFE0EDBCFE6FF79D8E552B6
:100340000001D26B0001D25102E10400FBD7000191
:10035000A76BA86B080E0001A8AF02D0D89003D0FD
:10036000A75D000EA85922E20001D26B0001D25114
:1003700002E10400FBD7E66AFE0EDBCFE6FFD4D82D
:10038000E552E552F3CF00F0F4CF01F00001005048
:100390000001DF27000101500001E023000EE123EE
:1003A000E2230001A72B000EA823D4D7DFC000F062
:1003B000E0C001F0026A036A080E246E256A266A0C
:1003C000276A00C01FF001C020F002C021F003C066
:1003D00022F040EC0AF01FC000F020C001F021C064
:1003E00002F022C003F0FE0EEA6ADB34FE0BEA36AE
:1003F000E96E600EE926000EEA2200C0EEFF01C0A1
:10040000EDFFFE0EEA6ADB34FE0BEA36E96E600EA3
:10041000E926000EEA22EECF00F0EFCF01F000C097
:10042000F3FF01C0F4FF00D0E552E7CFD9FF12007F
:10043000D9CFE6FFE1CFD9FFFE0EDB50030801E282
:1004400011D00001D45102E00400FBD7F29EFE0E51
:10045000DBCFD6F00001D26BF28E0001D25102E167
:100460000400FBD7E552E7CFD9FF1200F7EC08F004
:100470000F01556B900E546F010E536FFE0EDB5043
:100480000E0A17E0030A0FE0010A07E0070A18E165
:1004900020EC08F0EE6AFA0E11D020EC08F0670E9E
:1004A000EE6EF00E0BD020EC08F0E80EEE6EFD0EB6
:1004B00005D020EC08F04F0EEE6EF40EED6E07D076
:1004C00020EC08F0780EEE6EED687D0E536FFE0E98
:1004D000DB50020807E1020E536F20EC08F0780EA3
:1004E000EE6EED685D819280C08EC70EC014380933
:1004F000C06EF80EC0140609C06ECF0EC1143009CC
:10050000C16EC196F80EC1140009C16E830EC214EB
:100510000009C26EC2809D8CB190B182B36AB26A8A
:10052000F36AF46A63EF08F0F7EC08F00001D251C7
:100530003EE0B2CFA9F0B3CFAAF03F0E0001A9155B
:10054000A96FAA6BFD0EDB5005E1A9C0F3FFAAC09D
:10055000F4FF31D0AFEC08F0EECF00F0EFCF01F0B8
:100560000050A95D0150AA590EE2AFEC08F0A95164
:10057000EE5C0001E36F0001AA51EE5800011F0E6E
:10058000E315E36FE46B0001E751E81107E1FD0EAD
:10059000DB5004E0E3C0E7F0E4C0E8F0E3C0E5F0DE
:1005A000E4C0E6F0E3C0F3FFE4C0F4FF04D0E5C02C
:1005B000F3FFE6C0F4FF63EF08F01200E66A050EF1
:1005C000E66E5E0EE66E210EE66E000EE66E000E24
:1005D000E66E060EE66E8CEC11F0006E070EE15E24
:1005E00000501200F7EC08F0FD0EDB5005E00001B2
:1005F000E96BEEEC08F0B0D00001EA6B050E0001EB
:10060000AF6FB06BAFC0E6FFB0C0E6FF5E0E036E2B
:10061000210E046E000E056EFE0EDB500001EA2571
:10062000066E076A086A050E256E266A276A06C0E6
:1006300020F007C021F008C022F074EC0AF01DC0C1
:1006400006F01EC007F01FC008F003501D24F36E13
:1006500004501E20F46E0550E1EC08F0F6CF00F0D7
:10066000F7CF01F0F8CF02F000C0E6FF01C0E6FFCF
:1006700002C0E6FF0001E951EA2516EC08F0E9CFD7
:1006800009F0EACF0AF0E9CFE6FFEACFE6FF8CEC0B
:1006900011F00B6E070EE15E0B500001EA2B5E0EAF
:1006A000016E210E026E000E036EFE0EDB50EA2577
:1006B000046E056A066A050E256E266A276A04C05E
:1006C00020F005C021F006C022F074EC0AF00150C1
:1006D0001D24F36E02501E20F46E0350E1EC08F06E
:1006E000040EF626000EF722F8220800F5CF00F0DF
:1006F000FE0EDB50005C01E185D70001E9510001ED
:10070000AD6FAE6B0001E951EA250001AEAF02D03A
:10071000D89003D0AD5D000EAE5917E20001E9514B
:100720000001016AAD25006EAE51012289EC08F08E
:10073000BAEC08F000C0EFFF89EC08F01FEC09F0FC
:10074000E9C0EFFFAD2BAE23DDD70001EA51E92769
:10075000EEEC08F0EA51E95D63EF08F047EC08F0D1
:1007600002E6BCEC08F007E2EAEC08F0E8EC08F07E
:10077000FD0EDBCFEFFF63EF08F0F7EC08F0FA0EA9
:10078000DBCF00F0FB0EDBCF01F0FC0EDBCF02F085
:10079000FD0EDBCF03F0EBC025F0ECC026F0EDC082
:1007A00027F0EEC028F000EC09F0E4EC0AF0010AB2
:1007B0004AE0290E206E5C0E216E8F0E226E3C0EDA
:1007C000236E9BEC08F020C0B1F021C0B2F022C033
:1007D000B3F023C0B4F020C0E6FF21C0E6FF22C082
:1007E000E6FF23C0E6FF41EC11F0E552E552E55289
:1007F000E5521FC0C1F020C0C2F021C0C3F022C02A
:10080000C4F0B1C0E6FFB2C0E6FFB3C0E6FFB4C0BB
:10081000E6FF19EC11F0E552E552E552E5521FC032
:10082000BDF020C0BEF021C0BFF022C0C0F0FA0E63
:10083000DBCFEBF0FB0EDBCFECF0FC0EDBCFEDF013
:10084000FD0EDBCFEEF0EAEC08F0A9EC08F020C0DA
:10085000B5F021C0B6F022C0B7F023C0B8F0EAEC82
:1008600008F0EE52A9EC08F020C0B9F021C0BAF0AF
:1008700022C0BBF023C0BCF0C1EC08F076EC08F05D
:10088000CAEC08F0E8DB3CEC09F019EC09F0E552A1
:10089000E750EF6ECAEC08F076EC08F0C1EC08F017
:1008A000DADB3DEC09F021EF09F0F7EC08F0EAECB7
:1008B00008F0FD0EDB50EF26EAEC08F0EE52FC0EDD
:1008C000DB50EF2663EF08F0F7EC08F0EAEC08F0F5
:1008D000A9EC08F020C0C5F021C0C6F022C0C7F0C6
:1008E00023C0C8F0EAEC08F0EE52A9EC08F020C0F2
:1008F000C9F021C0CAF022C0CBF023C0CCF0C5C0E3
:1009000020F0C6C021F0C7C022F0C8C023F0BDEC63
:100910000AF02DEC09F09BEC08F019EC09F0E55217
:10092000E750EF6EC9C020F0CAC021F0CBC022F062
:10093000CCC023F0BDEC0AF02DEC09F0F60EDBCFB5
:1009400025F0F70EDBCF26F0F80EDBCF27F0F90EFF
:10095000DBCF28F0D3EC09F021EF09F098DB02E6B9
:10096000BCEC08F017E20001CD6B400ECD5D12E249
:10097000FE0EDB50CD2509EC09F00CE113EC09F07B
:10098000CD25E66EFADE006E050EE15E0050000138
:10099000CD2BEBD798D37BDB01E6EEDB1CE200012D
:1009A000CE6B400ECE5D17E2FE0EDB50CE2509EC7D
:1009B00009F011E1FC0EDBCFE6FFFD0EDBCFE6FF19
:1009C000FE0EDB50CE25E66E70DFE552E552E552B5
:1009D0000001CE2BE6D777D35ADB01E6CDDB1AE256
:1009E0000001CF6B400ECF5D15E2FE0EDB50CF2530
:1009F00009EC09F00FE1D950F60F58DB13EC09F0C0
:100A0000CF25E66E61DF006E090EE15E0050000149
:100A1000CF2BE8D758D33BDB01E6AEDB17E2000172
:100A2000D06B400ED05D12E2FE0EDB50D025F1DB24
:100A30000DE1FD0EDBCFE6FFFE0EDB50D025E66EAE
:100A40008DDEE552E5520001D02BEBD73CD3F28C82
:100A50001200F29C8A688B6A1200D9CFE6FFE1CFC0
:100A6000D9FF180EE126DE6ADD6A010EF36E020E72
:100A7000F3CFDBFF010EF36E030EF3CFDBFF090EA6
:100A8000F36E060EF3CFDBFF070EDB6A080EDB6AA0
:100A9000090EDB6A0A0EDB6A230EF36E0B0EF3CF30
:100AA000DBFF0C0EDB6A0D0EDB6A0E0EDB6A100E2E
:100AB000DB6A110EDB6A120EDB6A130EDB6A140EA0
:100AC000DB6A150EDB6A160EDB6A400EF36E170E3C
:100AD000F3CFDBFF72DD2E6A2F6A0F0E926E896AEA
:100AE0000F010F0E5D6F0F015C6B936A8A68946A49
:100AF0008B68956A8C6A966A8D6A700ED36EC00E8A
:100B00009B6E906A9F0EE66ECBEC11F0E552380EAC
:100B1000E66EC70EE66EAFEC11F0E552E552FD0E43
:100B2000E66EE7EC11F0E5529F92A80ECC6E670ED0
:100B3000E66EE66AEC0EE66E73EC10F0E552E552F6
:100B4000E552D08EF28EF28C2D6AE66A0D0EE66EBC
:100B50008DDCE552E552010EE66E0D0EE66E86DC8A
:100B6000E552E552020EE66E0D0EE66E7FDCE552B2
:100B7000E552030EE66E0D0EE66E78DCE552E552A8
:100B8000E66A92EC01F0E552F3CFDEFFF4CFDDFF31
:100B9000010EE66E92EC01F0E552F3CFDEFFF4CFEA
:100BA000DDFF020EE66E92EC01F0E552F3CFDEFFC0
:100BB000F4CFDDFF030EE66E92EC01F0E552F3CFC9
:100BC000DEFFF4CFDDFF2D6A2D50030801E223D2B2
:100BD0002D50E66E2DDCE5522D500AE1E66A2D50CF
:100BE000E66EA2DCE552E552040EF3CFDBFF06D041
:100BF000E66A2D50E66E98DCE552E5520400D950C5
:100C0000070FE96EDACFEAFFEF2AEECF00F0000E11
:100C1000EF22EECF01F0EF22EECF02F0EF22EFCF86
:100C200003F0D9500B0FE96EDACFEAFFEE50005C0B
:100C3000EE500158EE500258EE50035801E2E9D14F
:100C4000F29C2E502F105FE1230EF36E0B0EF3CFAC
:100C5000DBFF0C0EDB6A0D0EDB6A0E0EDB6A010E8B
:100C6000E66EE66ABFDCE552E552E66A060EDBCFC9
:100C7000E6FFB8DCE552E552E76E0F0EE7CFDBFF8B
:100C8000D950140FE96EDACFEAFFEECFE6FFEECFD0
:100C9000E6FFEECFE6FFEFCFE6FFD950140FE96E87
:100CA000DACFEAFFEECFE6FFEECFE6FFEECFE6FFCC
:100CB000EFCFE6FF0F0EDBCFE6FF8EDE006E090EF4
:100CC000E15E0050D950100FE96EDACFEAFFEECFA7
:100CD000E6FFEECFE6FFEECFE6FFEFCFE6FF0F0E2B
:100CE000DBCFE6FF3BDE006E050EE15E0050030E3B
:100CF000E66E030EE66E0F0EDBCFE6FF4CDEE5522E
:100D0000E552E552D1D0230EF36E0B0EF3CFDBFF8D
:100D10000C0EDB6A0D0EDB6A0E0EDB6A010EE66E50
:100D2000E66A60DCE552E552E66A060EDBCFE6FFD6
:100D300059DCE552E552E76E0F0EE7CFDBFF046AA0
:100D4000056A066A400E076E140EDBCF08F0150E1A
:100D5000DBCF09F0160EDBCF0AF0170EDBCF0BF05E
:100D600008C025F009C026F00AC027F00BC028F003
:100D700004C020F005C021F006C022F007C023F017
:100D80003CEC09F020C000F021C001F022C002F0CC
:100D900023C003F000C0E6FF01C0E6FF02C0E6FF8B
:100DA00003C0E6FF106A116A126A400E136E140E39
:100DB000DBCF14F0150EDBCF15F0160EDBCF16F0DF
:100DC000170EDBCF17F014C025F015C026F016C0A3
:100DD00027F017C028F010C020F011C021F012C079
:100DE00022F013C023F03CEC09F020C00CF021C02D
:100DF0000DF022C00EF023C00FF00CC0E6FF0DC0B6
:100E0000E6FF0EC0E6FF0FC0E6FF0F0EDBCFE6FFEA
:100E1000E3DD186E090EE15E1850046A056AB40E2F
:100E2000066E430E076E100EDBCF08F0110EDBCFFF
:100E300009F0120EDBCF0AF0130EDBCF0BF008C067
:100E400025F009C026F00AC027F00BC028F004C026
:100E500020F005C021F006C022F007C023F03CECD2
:100E600009F020C000F021C001F022C002F023C030
:100E700003F000C0E6FF01C0E6FF02C0E6FF03C0CA
:100E8000E6FF0F0EDBCFE6FF69DD0C6E050EE15EBF
:100E90000C50030EE66E030EE66E0F0EDBCFE6FF80
:100EA0007ADDE552E552E552D2DD006A016A400E74
:100EB000026E410E036ED950100FE96EDACFEAFFD1
:100EC000EECF20F0EECF21F0EECF22F0EFCF23F0E7
:100ED00000C025F001C026F002C027F003C028F0B2
:100EE0003DEC09F023C0EDFF22C0EDFF21C0EDFF76
:100EF00020C0EFFF100EDBCF00F0110EDBCF01F0B2
:100F0000120EDBCF02F0130EDBCF03F0256A266A48
:100F1000B40E276E430E286E00C020F001C021F0F1
:100F200002C022F003C023F0EBEC0AF0010A69E1F1
:100F3000100EDB6A110EDB6A120EDB6A130EDB6A1F
:100F4000CD0E006ECC0E016ECC0E026E3D0E036E09
:100F5000D950140FE96EDACFEAFFEECF20F0EECFD2
:100F600021F0EECF22F0EFCF23F000C025F001C03A
:100F700026F002C027F003C028F03CEC09F023C0A3
:100F8000EDFF22C0EDFF21C0EDFF20C0EFFF140EEA
:100F9000DBCF00F0150EDBCF01F0160EDBCF02F039
:100FA000170EDBCF03F00A0E256ED70E266E230E2A
:100FB000276EBC0E286E00C020F001C021F002C0D8
:100FC00022F003C023F0F4EC0AF0010A1AE1140E37
:100FD000DB6A150EDB6A160EDB6A400EF36E170E27
:100FE000F3CFDBFF060EDB50090806E10D0EF36EB2
:100FF000060EF3CFDBFF05D0090EF36E060EF3CF1E
:10100000DBFF070EDB6A080EDB6A090EDB6A0A0EDD
:10101000DB6A2D2AD9D5D7D5180EE15C02E2E16A48
:10102000E552E16EE552E7CFD9FF1200050DF3CF8F
:10103000E9FFF4CFEAFF000EE926060EEA221200CD
:10104000FD0EEA6ADB34FE0BEA36E96E800EE92615
:10105000000EEA221200B9C020F0BAC021F0BBC0D5
:1010600022F0BCC023F0D3EC09F020C004F021C072
:1010700005F022C006F023C007F020C025F021C0F3
:1010800026F022C027F023C028F000EF09F0AFD8E7
:10109000FE0EDB50006E016AD89001501200CFD8CE
:1010A000EFCF00F0FE0EDB50005C1200E96EFF0E89
:1010B000DA20EA6EEECFE6FFEECFE6FFEECFE6FFF8
:1010C000EFCFE6FF1200E552E7CFD9FF1200000193
:1010D000A3D8600EE926000EEA22EECF32F0EFCF61
:1010E00033F0200E325E000E335A1200B5C020F0ED
:1010F000B6C021F0B7C022F0B8C023F0D3EC09F09D
:1011000020C000F021C001F022C002F023C003F093
:101110001200ADC0E9FFAEC0EAFF050EEA02F3CF50
:10112000EAFFE902F3CFE9FFF450EA26000EE926D0
:10113000060EEA221200FA0EDBCF25F0FB0EDBCF03
:1011400026F0FC0EDBCF27F0FD0EDBCF28F0D3EF2F
:1011500009F0EFCF00F000C022F02DEF09F0FE0EF5
:10116000EA6ADB34FE0BEA36E96E600EE926000E11
:10117000EA221200030E6BD0000E005C010E015833
:101180001200C1C025F0C2C026F0C3C027F0C4C001
:1011900028F01200BDC025F0BEC026F0BFC027F069
:1011A000C0C028F01200E5CFEAFFE5CFE9FFE5CFA8
:1011B000DAFF1100D72BD751306E316AD8903150F9
:1011C00012001F20F86EF4CFF7FFF3CFF6FF1200E6
:1011D000020E3DD0FE0EDB5016EF08F0E95126DF7F
:1011E000C9DFEF68E95122DF2AD8EF681200D9CFB2
:1011F000E6FFE1CFD9FF12000001D75116EF08F04A
:1012000000C020F001C021F002C022F003C023F092
:1012100012000CDF4FEF08F0D651E96EEA6AD89061
:10122000E936EA361200D950FA0F40DFFE0EDB50E5
:101230001200BDEC0AF02250E66EEAEF08F0040E50
:1012400006D0F7DFEE52E552E750EF6E3CD7E926C5
:06125000000EEA2212006C
:0A1256001A9E05D01A9E22AE02D0A7
:10126000226C1A8E22C01CF01B6A2C6A2B6A860E16
:101270001D6E1E6A6EEF0BF0287E1A6AAAEC0BF048
:10128000C2EC0BF01AB652EF0BF01AA20AD01AAA4F
:1012900003D01ABE52EF0BF01AA45EEF0BF05BEF17
:1012A0000BF01AAA05D01AAC5EEF0BF05BEF0BF057
:1012B0001AA00AD01AA808D01ABE04D01AA402D0C4
:1012C00067EF0BF06BEF0BF02B6A1E6A2850235C64
:1012D0002A6E10E320C02CF021C01BF022C01CF0AD
:1012E00023C029F025C020F026C021F027C022F01D
:1012F0001A3A09D025C02CF026C01BF027C01CF0DC
:1013000028C029F02A6C1A9E1ABC1A8E29C01DF01A
:101310001AB09AEF0BF01A0E2A609AEF0BF01D6AC2
:10132000236A1AA408D0206C211E221E231EE86AFC
:101330002122222223221AAC08D02C6C1B1E1C1E38
:101340001D1EE86A1B221C221D221F6A2A5207E06A
:1013500023342232213220321F322A2EF9D7205054
:101360002C2621501B2222501C2223501D221FC03C
:101370002BF01A9E1DAE0BD02B6C2C1E1B1E1C1EA0
:101380001D1EE86A2C221B221C221D221A8E1DA063
:1013900006D0D8801C321B322C322B32292A29C08D
:1013A0001DF06EEF0BF01A6AAAEC0BF0C2EC0BF01A
:1013B0001AB652EF0BF01AA205D01AB852EF0BF082
:1013C00059EF0BF01AAA05D01AB052EF0BF059EFF3
:1013D0000BF01AB002D01AA802D065EF0BF01E6A0B
:1013E000285023241D6EE86A1E227E0E1D5EE86AC8
:1013F0001E5A2B6A2C6A1B6A1C6A27502202F4CFE1
:101400001CF0F3CF1BF026502202F3502C26F45090
:101410001B22000E1C2227502102F3502C26F450D0
:101420001B22000E1C2225502202F3502B26F450C2
:101430002C22000E1B221C2226502102F3502B26A8
:10144000F4502C22000E1B221C2227502002F350A5
:101450002B26F4502C22000E1B221C222550210288
:10146000F4502B26000E2C221B221C222650200278
:10147000F4502B26000E2C221B221C226EEF0BF0A8
:10148000196AE86A27AE4DEF0AF0246C251E261E65
:10149000271E252226222722191E22AE58EF0AF0E7
:1014A0001F6C201E211E221E202221222222191EF4
:1014B00068EC11F022BE6FEF0AF019AE000C1F6C41
:1014C000201E211E221EE86A2022212222221B6CBD
:1014D0001C1E1D1E1E1E1C221D221E22000C19BEBB
:1014E0005FEF0AF01A88FF0C22C02CF021C02BF00D
:1014F00020C02AF020502502F4CF1EF0F3CF1DF0BB
:1015000021502602F4CF20F0F3CF1FF02502F35034
:101510001E26F4501F22E86A20222A502602F35089
:101520001E26F4501F22E86A202222502502F35082
:101530001F26F450202222502602216AE86A212226
:10154000F3502026F45021222A502702F3501F2660
:10155000F4502022226AE86A212222222B502702FC
:10156000F3502026F4502122E86A22222C50270230
:10157000F3502126F4502222000C1A6AAAEC0BF038
:101580001AB6C7EF0AF01AA20AD01AB403D07F0E17
:10159000226E19D0800E226E16D0226A14D01AB094
:1015A000FCD7870E2360F1D77E0E2364F6D7860E14
:1015B000235C04E0D8902232232AF9D71AA403D05E
:1015C000226C22AEEAD71200FDEC0AF01AB6000C2B
:1015D0001AB0010C000CFDEC0AF01AB6000C1AB09F
:1015E000000C1AB4000C010CFDEC0AF01AB6000C49
:1015F0001AB0000C1AA4000C010C1A6AAAEC0BF029
:10160000C2EC0BF01AB612001AAE08D01AA004D021
:101610001AA802D01A8012001A9012002850235CD7
:101620000BE12750225C08E12650215C05E12550A2
:10163000205C02E11A801200D8A002D01A8E10D0CD
:10164000235028C023F0286E225027C022F0276E96
:10165000215026C021F0266E205025C020F0256E96
:101660002850235C10E0FF0F09E01A901AB403D051
:101670001AAE1A8412001AAE1A941200282AD890B0
:101680002732263225322550205E2650215A2750F7
:10169000225A22BEEAD7D890203621362236232E6F
:1016A000F8D7C8D77F0E236EFF0E226E216E206EF4
:1016B00012007F0E1ABEFF0E236E02D07F0E236E25
:1016C000800E226E216A206AF3D71AAE04D0800EF3
:1016D000236E226AF7D7236A226AF4D71C501B10A4
:1016E0002C102B10F8E01EBEF0D71CBE0CD01D50E5
:1016F0001E10EBE0D8902B362C361B361C361D0600
:10170000D8A01E06F2D71E50D4E11D28D2E02BAE81
:1017100011D07F0E2B1402E12CA00CD02C2AE86AE9
:101720001B221C2207E3D8801C321B322C321D2ABC
:101730001D28BFE01D50C9E02CC020F01BC021F0C7
:101740001C34226E1D30236E2232239E1ABE238E3D
:1017500058EF0BF02236233602E31A841A7E06E194
:101760001A80236A226A216A206A1200232803E071
:10177000D88022321200D890223202E11A8212005E
:101780001A8612002736283602E31A8C1A7E06E1E2
:101790001A88286A276A266A256A1200282803E020
:1017A000D88027321200D8902732EAE11A8A120034
:1017B0001A9E08D01A9E22AE05D0216C221EE86A1D
:1017C00022221A8E22C01CF021C01BF02C6A2B6A28
:1017D0008E0E1D6E1E6A6EEF0BF01A9E0CD01A9EB6
:1017E00022AE09D01F6C201E211E221EE86A202274
:1017F000212222221A8E22C01CF021C01BF020C000
:101800002CF01FC02BF09E0E1D6E1E6A6EEF0BF0AB
:101810001A6AAAEC0BF0C2EC0BF01AB652EF0BF0FE
:101820001AA205D01ABA52EF0BF059EF0BF01ABA00
:1018300065EF0BF01AA005D01AB852EF0BF065EF68
:101840000BF01AB859EF0BF01E6A7F0E23241D6EA1
:10185000E86A1E2228501D5EE86A1E5A1A0E296E7A
:10186000236A2B6A2C6A1B6A1C6A2550205E26504C
:10187000215A2750225A000E235A09E725502026C4
:101880002650212227502222000E232201D02B8A0B
:10189000D8902036213622362336D8902B362C3657
:1018A0001B361C36292EE1D7225021102010D8A437
:1018B0002B8A6EEF0BF01A6AAAEC0BF01AB665EFE2
:1018C0000CF01AA20ED01AB405D07F0E226EFF0EB5
:1018D000216E1FD0800E226E216A1BD0226A216ADF
:1018E00018D01AB0FBD78F0E2360EDD77E0E23647D
:1018F000F5D78E0E235C05E0D89022322132232AC0
:10190000F8D71AA406D0216C221EE86A222222AE41
:10191000E5D712001A6AAAEC0BF01AB694EF0CF095
:101920001AA20FD01AB407D07F0E226EFF0E216EBE
:10193000206E1F6E25D0800E226E01D0226A000E0E
:10194000F6D71AB0FBD71F6A9F0E2360EBD77E0E27
:101950002364F4D79E0E235C07E0D8902232213214
:1019600020321F32232AF6D71AA40AD01F6C201E59
:10197000211E221EE86A20222122222222AEDED748
:02198000120053
:0E198200D9CFE6FFDACFE6FFE1CFD9FFE2CF03
:10199000DAFF220EE12402E3E168E652E16ED9505B
:1019A000130FE66E000EDA20E66EA8DA96EC0FF062
:1019B000006E060EE15C02E2E16AE552E16E005063
:1019C000E76E0E0EE7CFDBFFDB50840B0CE0210E41
:1019D0000001F96FFA6B0F0EDB68100EDB68110E59
:1019E000DB687F0E6ED08ADA36DA020E1FC0DBFFAC
:1019F000030E20C0DBFF040E21C0DBFF050E22C05A
:101A0000DBFF87DA256A100E266E490E276E460E1A
:101A100014DAF4EC0AF0010A32E07BDA67DA0DDA64
:101A200008EC0CF0BFD9060EDBCF20F0070EDBCFA1
:101A300021F0080EDBCF22F0090EDBCF23F08AEC79
:101A40000CF0EFEC0BF0AED964DA060EDBCF08F049
:101A5000070EDBCF09F0080EDBCF0AF0090EDBCF53
:101A60000BF044DA286E08C020F009C021F00AC04B
:101A700022F00BC023F048DA3CEC09F0C4D9F90E8F
:101A8000DB5012E00E0EDB040BE1FA0EDBCF00F0B0
:101A9000FB0EDBCF01F0FC0EDBCF02F0FD0E52D1CE
:101AA00067D9276AF8D947D00E0EDB0419E10F0E6B
:101AB000DB6A100EDB6A800EF36E110EF3CFDBFFD4
:101AC0003F0EF36E120EF3CFDBFF0F0EDBCF00F0F5
:101AD000100EDBCF01F0110EDBCF02F0120E32D16F
:101AE000190EDB6A45D9800E276ED5D9006A016AC6
:101AF000026A3F0E036ED950060FE96E000EDA201F
:101B0000EA6EEECF20F0EECF21F0EECF22F0EFCF55
:101B100023F000C025F001C026F002C027F003C06A
:101B200028F03CEC09F023C0EDFF22C0EDFF21C0FE
:101B3000EDFF20C0EFFFDF50010B0AE0190EDB5074
:101B400002E0000E01D0010EE76E190EE7CFDBFFB9
:101B50008CD9060EDBCF0CF0070EDBCF0DF0080E94
:101B6000DBCF0EF0090EDBCF0FF0256A266A490E97
:101B7000276E400E286E0CC020F00DC021F00EC064
:101B800022F00FC023F0D3EC09F05CD9A6D995D987
:101B90003CEC09F077D9060EDBCF14F0070EDBCF53
:101BA00015F0080EDBCF16F0090EDBCF17F0220E72
:101BB000256EAA0E266E7D0E276E3A0E286E14C074
:101BC00020F015C021F016C022F017C023F0D3EC8E
:101BD00009F020C010F021C011F022C012F023C083
:101BE00013F0EDD83CEC09F00A0E20C0DBFF0B0E21
:101BF00021C0DBFF0C0E22C0DBFF0D0E23C0DBFF7C
:101C0000D9500A0FE96E000EEAD825D91FC000F09E
:101C100020C001F021C002F022C003F0256A266A2C
:101C2000800E276E390E286E1FC020F04FD9F4ECBD
:101C30000AF0010A13E1D9500A0FE96E000EDA200A
:101C4000EA6E020EEECFDBFF030EEECFDBFF040EDB
:101C5000EECFDBFF050EEECFDBFF68D0E1D80A0E3A
:101C6000DBCF25F00B0EDBCF26F00C0EDBCF27F001
:101C70000D0EDBCF28F0D3EC09F01A0E20C0DBFFED
:101C80001B0E21C0DBFF1C0E22C0DBFF1D0E23C07C
:101C9000DBFF5B0E206E9C0E216E2E0E226E360E2A
:101CA000236E72D8CFD8220E256EB20E266E4F0E3E
:101CB000276EB90E32D99ED83E0E256E870E266E3F
:101CC000080E276E3C0E29D9DDD8A40E256EAA0E6B
:101CD000266E2A0E276EBE0E20D91E0E20C0DBFFF8
:101CE0001F0E21C0DBFF200E22C0DBFF210E23C010
:101CF000DBFF0A0EDBCF00F00B0EDBCF01F00C0E8A
:101D0000DBCF02F00D0EDBCF03F08AD81E0EDBCF47
:101D100025F01F0EDBCF26F0200EDBCF27F0210EA3
:101D2000DBCF28F0F1D83DEC09F06DD8190EDB506F
:101D300008E09BD8256A266A800E276EBF0EF0D871
:101D400003D042D8DBCF03F000C01FF001C020F069
:101D500002C021F003C022F0220EE15C02E2E16A3F
:101D6000E552E16EE552E5CFDAFFE7CFD9FF120089
:101D70007CD8830E256EF90E266EA20E276E3E0EBF
:101D8000CFD8256A266A12001A0EDBCF25F01B0E6B
:101D9000DBCF26F01C0EDBCF27F01D0EDBCF28F0AB
:101DA000D3EF09F0060E20C0DBFF070E21C0DBFFDA
:101DB000080E22C0DBFF090E23C0DBFF12008DD806
:101DC00000C020F066EF0FF0020EDBCF00F0030E34
:101DD000DBCF01F0040EDBCF02F0050E1200DA209B
:101DE000EA6EEECFE6FFEECFE6FFEECFE6FFEFCFF7
:101DF000E6FF120020C004F021C005F022C006F06A
:101E000023C007F01200020E20C0DBFF030E21C02A
:101E1000DBFF040E22C0DBFF050E23C0DBFF120038
:101E20000A0EDBCF20F00B0EDBCF21F00C0EDBCF48
:101E300022F00D0EDBCF23F01200286E00C020F040
:101E400066EF0FF020C008F021C009F022C00AF0B0
:101E500023C00BF01200E6EC10F0E552E552E5521B
:101E6000E5521200286E3DEF09F0020EDBCF04F0C0
:101E7000030EDBCF05F0040EDBCF06F0050EDBCF43
:101E800007F0120020C000F021C001F022C002F0D3
:101E900023C003F012003F0EE5DF5BEC0CF021C025
:101EA000DEFF22C0DDFF000EDFCF21F0010EDBCF11
:101EB00022F0DAEC0BF0D2EF0EF004C020F005C0F7
:101EC00021F006C022F007C023F0120001C021F06B
:101ED00002C022F003C023F0120020C025F021C070
:101EE00026F022C027F023C028F01200DB0E256E5A
:101EF0000F0E266EC90E276E400E1200D950FA0F33
:101F0000E96EFF0EEFEF0EF0D3EC09F073DFDFEFB9
:101F10000EF05ADFDBCF03F01200A4DFC4EF0EF0A7
:0C1F2000286ECBDFD3EC09F042EF0FF08D
:041F2C00D9CFE6FF24
:101F3000DACFE6FFE1CFD9FFE2CFDAFFE652006861
:101F400001687F0E026E036AD950FA0FE96EFF0E28
:101F5000DA20EA6EEE500016EE500116EE50021630
:101F6000EE5003166AD800C0EEFF01C0EEFF02C0BB
:101F7000EEFF03C0EEFFFD0EDB50800B02E0010E12
:101F800001D0000EE66E59D8060EE926000EEA22B0
:101F9000E552E750EF6EFC0EDBCF00F0FD0EDBCF1D
:101FA00001F0D89000360136FC0E00C0DBFFFD0EBC
:101FB00001C0DBFFDB50E66E40D8040EE926000EC0
:101FC000EA22E552E750EE6EED6AFD0EDB50006E40
:101FD000016AFF0E001818E1015016E12ED8EECF6D
:101FE00000F0EECF01F0EECF02F0EFCF03F00050A3
:101FF00001100210031006E0210E0001F96FFA6BC8
:10200000800E0BD0040E09D0FD0EDB5008E115D870
:10201000EE6AEE6AEE6AEE6A010EDF6E06D0020E1E
:10202000DF6E0BD8EE52EE52EE8EDF50E552E552E7
:10203000E5CFDAFFE7CFD9FF1200F80EDBCFE9FFDB
:08204000F90EDBCFEAFF1200EC
:082048001E0EF66E000EF76E8D
:10205000000EF86E00010900F550F46F0900F5500C
:10206000F56F03E1F46701D03DD00900F550EF6F43
:102070000900F550F06F0900F550F16F09000900F3
:10208000F550E96E0900F550EA6E090009000900F3
:10209000F550F26F0900F550F36F09000900F6CF13
:1020A000F6F0F7CFF7F0F8CFF8F0EFC0F6FFF0C09A
:1020B000F7FFF1C0F8FF0001F25302E1F35307E02C
:1020C0000900F550EE6EF207F8E2F307F9D7F6C013
:1020D000F6FFF7C0F7FFF8C0F8FF0001F407000EA5
:0620E000F55BBFD7120002
:0A20E600D9CFE6FFDACFE6FFE1CF25
:1020F000D9FFE2CFDAFFBA6AA66AFD0EDBB0BA8872
:10210000DBA202D0BA8CA68CDBB4BA8EDBA602D0DE
:10211000A68801D0A68ADBA802D0BA8401D0BA94DE
:10212000DBBAA686DBAC02D0A38A01D0A39ADBAED1
:1021300002D0A38801D0A398FB0EDB507B6EFC0E6F
:10214000DBCF01F001C000F0016A00507C6EBA8A5A
:0E215000A68EE552E5CFDAFFE7CFD9FF1200E9
:02215E00FFFD83
:1021600001000000FE00010001FF01020002000169
:102170000300FF0001040001010105000002010647
:1021800000FF03010700FE00010800FEFE0109092F
:10219000FFFF010A090101010B090202010C0900FC
:1021A000FD010D0D0300010E0D0003010F0DFD00DB
:1021B00001100D000000110D030301120D000000BD
:0C21C000130D000000FFFF000000FFFFF7
:0421CC00D9CFE6FF82
:1021D000DACFE6FFE1CFD9FFE2CFDAFFE652E652EF
:1021E000D950FD0F006EFF0EDA2000C0DEFFDD6E5D
:1021F000DECFE9FFDDCFEAFFEF9EFA0EDBCF00F086
:10220000FB0EDBCF01F0FC0EDBCF02F0FD0EDBCFCF
:1022100003F000C01FF001C020F002C021F003C095
:1022200022F0E552E552E552E5CFDAFFE7CFD9FFDC
:0222300012009A
:0E223200D9CFE6FFDACFE6FFE1CFD9FFE2CF4A
:10224000DAFF010EE66ED950FA0FE96EFF0EDA20C2
:10225000EA6EEECFE6FFEECFE6FFEECFE6FFEFCF82
:10226000E6FFC1EC0CF0006E050EE15C02E2E16AF3
:10227000E552E16E0050E552E5CFDAFFE7CFD9FF36
:0222800012004A
:0E228200D9CFE6FFDACFE6FFE1CFD9FFE2CFFA
:10229000DAFFE66AD950FA0FE96EFF0EDA20EA6E2D
:1022A000EECFE6FFEECFE6FFEECFE6FFEFCFE6FFA5
:1022B000C1EC0CF0006E050EE15C02E2E16AE55251
:1022C000E16E0050E552E5CFDAFFE7CFD9FF12000B
:1022D0001E6A1D6A1C6A1B6A200EE76ED8901F36A4
:1022E0002036213622361B361C361D361E3624502B
:1022F0001B5C25501C5826501D5827501E5809E3BA
:1023000024501B5E25501C5A26501D5A27501E5A19
:082310001F2AE72EE4D712009A
:08231800FB0EE3CFF6FFFC0E03
:10232000E3CFF7FFFD0EE3CFF8FFFE0EE3CFE9FFAB
:10233000FF0EE3CFEAFFE9CFF3FFEACFF4FFF90E98
:10234000E35003E1FA0EE35009E0F90EE30602E27E
:0E235000FA0EE3060900F5CFEEFFF1D71200FA
:02235E00D9CFD5
:10236000E6FFDACFE6FFE1CFD9FFE2CFDAFFE652B0
:10237000E652FC0EDBCFDEFFDBCFDDFF010EDB50D4
:10238000D76EDF50D66EE552E552E552E5CFDAFF63
:06239000E7CFD9FF1200A7
:0A239600D9CFE6FFDACFE6FFE1CF72
:1023A000D9FFE2CFDAFFFD0EDB507F0BD56ED76A87
:1023B000D66AF294FD0EDBAE02D0F28A01D0F29A18
:0E23C000D58EE552E5CFDAFFE7CFD9FF120048
:0223CE00D9CF65
:1023D000E6FFDACFE6FFE1CFD9FFE2CFDAFFFD0E6D
:1023E000DB50FB0BCA6ECC6A9E92FD0EDBAE02D0B8
:1023F0009D8201D09D92CA84E552E5CFDAFFE7CFF6
:04240000D9FF1200EE
:0C240400410EF36E00EE00F00E0E01D849
:102410001200EA6002D0EE6AFCD7F350E9601200C5
:04242000EE6AFCD78D
:0C2424001DEE00F02DEE00F0F86A1A9C8E
:1024300024EC10F003EC00F02DEC05F0FBD71200BB
:10244000000000FFFF00000000000000000000008E
:10245000000000000000000000000000000000007C
:10246000000000000000000000000000000000006C
:10247000000000000000000000000000000000005C
:10248000000000000000000000000000000000004C
:0E29400000000000006E736173706F6F6B001B
:02294E00010086
:10295000000000000000050B000000000000000067
:0C296000000000000000000066B6F44417
:020000040030CA
:0100000015EA
:0100010018E6
:010002007F7E
:0100030028D4
:0100050008F2
:010006009168
:010008000FE8
:01000900C036
:01000A000FE6
:01000B00E014
:01000C000FE4
:01000D0040B2
:00000001FF
